:020000040800F2
:1000000008080020A9010008B1010008B301000898
:10001000B5010008B7010008B901000800000000A0
:10002000000000000000000000000000BB0100080C
:10003000BD01000800000000BF0100080B2D0008F2
:10004000C3010008C3010008C3010008A130000873
:10005000C3010008C3010008C3010008C301000870
:10006000C3010008C3010008C3010008C301000860
:10007000C3010008C3010008C3010008C301000850
:10008000C3010008C3010008C3010008C301000840
:10009000C3010008C3010008C3010008C301000830
:1000A000C3010008C3010008C3010008C301000820
:1000B000F12B0008AB2C0008C3010008C3010008A5
:1000C000C3010008C3010008C3010008C301000800
:1000D000C3010008C3010008C3010008C3010008F0
:1000E000C3010008C3010008C301000800F002F8C2
:1000F00000F04AF80AA090E8000C82448344AAF178
:100100000107DA4501D100F03FF8AFF2090EBAE875
:100110000F0013F0010F18BFFB1A43F0010318473B
:100120007460000094600000103A24BF78C878C161
:10013000FAD8520724BF30C830C144BF04680C60ED
:10014000704700000023002400250026103A28BF35
:1001500078C1FBD8520728BF30C148BF0B60704739
:10016000662904F0DA86642903F07C810020704758
:100170001FB503F0FFFC04000020002104F042FA48
:10018000E0601FBD10B510BD03F0F0FD1146FFF794
:10019000EFFF02F081FA03F00EFE03B4FFF7F2FF67
:1001A00003BC03F051FE000009488047094800479E
:1001B000FEE7FEE7FEE7FEE7FEE7FEE7FEE7FEE717
:1001C000FEE7FEE704480549054A064B7047000074
:1001D000C7020008ED0000080802002008080020FF
:1001E00008040020080400200CB5002001900090B5
:1001F0006C48006840F480306A49086000BF694874
:10020000006800F4003000900198401C01900098B4
:1002100018B90198B0F5A06FF1D16248006800F4F8
:10022000003010B10120009001E000200090009803
:10023000012843D15C48006840F010005A4908602A
:100240000846006820F0030008600846006840F097
:1002500002000860534840685249486008464068B8
:1002600048600846406840F480604860084640683E
:1002700020F47C1048600846406840F4E81048606C
:100280000846006840F08070086000BF454800687C
:1002900000F000700028F9D04248406820F00300C8
:1002A000404948600846406840F00200486000BF8E
:1002B0003C48406800F00C000828F9D10CBD10B58E
:1002C000FFF792FF10BD10B53648006840F00100FE
:1002D000344908600846406834490840314948605C
:1002E00008460068324908402E4908600846006800
:1002F00020F4802008600846406820F4FE00486032
:100300004FF41F008860FFF7DAFF4FF000602949C3
:10031000086010BD10B5002100200022214B5B6851
:1003200003F00C0121B1042906D0082928D107E0E7
:10033000214B224C236027E01F4B204C236023E0FD
:10034000184B5B6803F47010164B5B6803F4803243
:10035000022303EB904022B9194B4343174C23600F
:100360000DE0104B5B6803F4003323B1144B43439F
:10037000124C236003E0104B4343104C236003E016
:100380000D4B0E4C236000BF00BF064B5B68C3F3F0
:1003900003130C4CE15C094B1B68CB40074C2360FA
:1003A00010BD000000100240002002400000FFF8D5
:1003B000FFFFF6FE08ED00E000127A0000000020CA
:1003C00000093D000400002010B50446CC488442DA
:1003D00008D10121042000F02DFB0021042000F0B1
:1003E00029FB46E0C748844208D10121082000F0DB
:1003F00021FB0021082000F01DFB3AE0C2488442A6
:1004000008D10121102000F015FB0021102000F080
:1004100011FB2EE0BD48844208D10121202000F0CC
:1004200009FB0021202000F005FB22E0B8488442AF
:1004300008D10121402000F0FDFA0021402000F009
:10044000F9FA16E0B348844208D10121802000F077
:10045000F1FA0021802000F0EDFA0AE0AE48844273
:1004600007D10121801500F0E5FA0021A01500F068
:10047000E1FA10BD10B50121084600F0DBFA0021B9
:10048000012000F0D7FA10BD2DE9F0410246002509
:100490000026002000230024002791F803C00CF060
:1004A0000F0591F803C00CF0100CBCF1000F03D045
:1004B00091F802C04CEA050591F800C0BCF1000FAC
:1004C00031D0146800202BE04FF0010C0CFA00F33F
:1004D000B1F800C00CEA03069E4220D183004FF021
:1004E0000F0C0CFA03F7BC4305FA03FC4CEA0404B6
:1004F00091F803C0BCF1280F06D14FF0010C0CFAA3
:1005000000FCC2F814C00AE091F803C0BCF1480F27
:1005100005D14FF0010C0CFA00FCC2F810C0401CD1
:100520000828D1D31460B1F800C0BCF1FF0F34DD4E
:10053000546800202EE000F1080C4FF0010808FA82
:100540000CF3B1F800C00CEA03069E4221D18300EF
:100550004FF00F0C0CFA03F7BC4305FA03FC4CEA0E
:10056000040491F803C0BCF1280F05D100F1080C78
:1005700008FA0CF8C2F8148091F803C0BCF1480FD7
:1005800007D100F1080C4FF0010808FA0CF8C2F886
:100590001080401C0828CED35460BDE8F0814FF68F
:1005A000FF710180022181700421C17070470246F1
:1005B000002093680B400BB1012000E00020704741
:1005C0000146886880B2704702460020D3680B401D
:1005D0000BB1012000E0002070470146C86880B2DE
:1005E000704701617047416170470AB1016100E0E5
:1005F00041617047C16070474FF480320A438261A5
:100600008161826182698269704702460020434BA2
:1006100018684FF68073184040EA021008433F4BB9
:10062000186070473E49C8617047F0B50A4600231C
:1006300000240021002500F00046B6F1004F02D151
:10064000364EF16901E0354E7168C0F3034583B25F
:1006500000F44016B6F5401F08D121F070612F4E0E
:10066000766826F070662D4F7E6012E000F48016EA
:10067000B6F5801F06D1032606FA05F4A14341F022
:10068000706106E0460D360103FA06F6B14341F00B
:10069000706122B1460D360103FA06F6314300F0CF
:1006A0000046B6F1004F02D11C4EF16101E01B4E35
:1006B0007160F0BD30B500228B071C0F0F2303FAC9
:1006C00004F2164B08338C1053F824309343134C28
:1006D00008348D1044F8253023468C1053F824300C
:1006E0008C07240F00FA04F423430C4C08348D10BB
:1006F00044F8253030BD0A49DC31086070470000FD
:1007000000080140000C01400010014000140140AD
:1007100000180140001C0140002001400000014081
:1007200000002042DF48006840F00100DD49086019
:1007300008464068DC490840DA49486008460068D5
:10074000DA490840D74908600846006820F480204C
:1007500008600846406820F4FE0048604FF41F001F
:1007600088607047CF49096821F48031CD4A116013
:100770001146096821F480211160B0F5803F03D053
:10078000B0F5802F0ED106E0C649096841F48031EA
:10079000C44A116007E0C349096841F4A021C14A75
:1007A000116000E000BF00BF704710B50146002295
:1007B000002300204A11012A02D1BA4C236806E026
:1007C000022A02D1B74C236A01E0B64C636A01F0F9
:1007D0001F02012494401C400CB1012000E00020C5
:1007E00010BD38B5002000900024002500BF312046
:1007F000FFF7DBFF05460098401C00900098B0F51D
:10080000A06F01D0002DF2D03120FFF7CEFF08B14C
:10081000012400E00024204638BD01460020A14A02
:10082000106820F0F80040EAC10010607047A0494D
:1008300008607047024600209A4B586820F47C10EC
:1008400042EA01031843974B58607047984908667D
:10085000704701460020934A506820F00300084387
:10086000506070478F48406800F00C0070470146A8
:1008700000208C4A506820F0F00008435060704718
:1008800001460020874A506820F4E0600843506029
:10089000704701460020834A506820F4605040EAC7
:1008A000C1005060704729B17E4A527A02437D4BA5
:1008B0005A7204E07B4A527A82437A4B5A727047EA
:1008C0007B49D8310860704701460020754A50685E
:1008D00020F440400843506070470021714A2032A4
:1008E0001170704A82F82010012802D004280AD121
:1008F00004E001216B4A2032117005E00521694AAC
:100900002032117000E000BF00BF704769490860E5
:1009100070476449096A0143624A11627047654938
:1009200044390860704730B50021002200240023BC
:100930005C4D6D6805F00C0121B1042905D0082932
:1009400023D105E05C4D056022E05B4D05601FE0B2
:10095000544D6D6805F47012524D6D6805F4803485
:10096000022505EB92421CB9544D554305600BE03E
:100970004C4D6D6805F400351DB1504D5543056073
:1009800002E04D4D5543056002E04B4D056000BF50
:1009900000BF444D6D6805F0F0010909484D6B5CDE
:1009A0000568DD4045603F4D6D6805F4E061090A6A
:1009B000434D6B5C4568DD4085603A4D6D6805F4DC
:1009C0006051C90A3E4D6B5C4568DD40C560354DE0
:1009D0006D6805F44041890B3A4D6B5CC568B5FB09
:1009E000F3F5056130BD29B12E4A526902432D4B02
:1009F0005A6104E02B4A526982432A4B5A6170477C
:100A000029B1284A92690243264B9A6104E0254A9B
:100A100092698243234B9A61704729B1214AD26976
:100A20000243204BDA6104E01E4AD26982431D4B27
:100A3000DA61704729B11B4AD2680243194BDA6068
:100A400004E0184AD2688243164BDA60704729B135
:100A5000144A12690243134B1A6104E0114A1269E5
:100A60008243104B1A617047124940390860704741
:100A70000F49C86470470B49C87170470948406AFC
:100A800040F0807007494862704701460020054ADF
:100A900092680A400AB1012000E000207047014935
:100AA00088727047001002400000FFF8FFFFF6FE5A
:100AB000000042428004424200127A0000093D00D8
:100AC000140000202400002031490143314A116004
:100AD000704770B5002100230F22C47804B32D4C59
:100AE000246804F4E064C4F5E064210AC1F104035D
:100AF000CA40447804FA03F1847814402143090180
:100B0000254C0678A155047804F01F050124AC405B
:100B100005786D11AD0005F1E025C5F8004109E04B
:100B2000047804F01F050124AC401C4D06787611B2
:100B300045F8264070BD1A4A0A400243154B1B1F58
:100B40001A60704739B1134A121D12680243114BE3
:100B50001B1D1A6006E00F4A121D126882430D4BDE
:100B60001B1D1A607047042808D14FF0E021096965
:100B700041F004014FF0E022116107E04FF0E02165
:100B8000096921F004014FF0E02211617047000073
:100B90000000FA050CED00E000E400E080E100E078
:100BA00080FFFF1F10B50120FFF75EFF0020FFF759
:100BB0005BFF10BD2A49086070472949091F08607A
:100BC0007047274984310860704701460020254A54
:100BD00010884FF67F4210400843224A1080704729
:100BE000014600201F4A10884FF6807210400843CB
:100BF0001C4A1080704708B500220092194A2C3A0E
:100C00000092009A02440092009A116008BD08B553
:100C100001460020009013482C38009000980844AA
:100C200000900098008808BD0D489C300068C0B254
:100C300070470C480830008840F00100094908312D
:100C4000088070470648A0300068C0B27047054869
:100C50000830008840F002000249083108807047DF
:100C600004860D422C6C004010B501210807FFF7E7
:100C7000EEFE00214FF08050FFF7E9FE10BD2A493B
:100C80000862704728490861704701460020274ADA
:100C9000106820F0E0000843106070472249A0313E
:100CA0000860704710B502460020204B186820F0FD
:100CB0000300104318601E4B1B6843F004031C4CD8
:100CC0002360012901D130BF00E020BF184B1B6811
:100CD00023F00403164C236010BD1448006840F054
:100CE0000400124908600846006840F002000860ED
:100CF0000F48006840F004000D49086000BF00BFC5
:100D000030BF704701460020084A52680A400AB1C5
:100D1000012000E0002070470449096841EA800191
:100D2000024A11607047000000000E42007000404F
:100D300010ED00E029B1504A128802434E4B1A8050
:100D400004E04D4A128882434B4B1A8070474A4850
:100D5000001D008840F010004749091D08807047B9
:100D60004548001D00884FF6EF7108404249091DB3
:100D700008807047002140481C300188001F00880F
:100D800041EA0040704700B50246FFF7E0FF100C53
:100D9000394918310880091D0A80FFF7E1FF00BDBD
:100DA00000B50246FFF7D3FFC2F3034032490831D2
:100DB0000880091D0A80FFF7D3FF00BD00B5024679
:100DC000FFF7C5FF100C2C4920310880091D0A804F
:100DD000FFF7C6FF00BD0020274910310988090729
:100DE000080B2549143109880843704700BF224881
:100DF000001D008800F020000028F8D070471E4831
:100E0000001D00884FF6F77108401B49091D088036
:100E100000BF1948001D008800F008000028F8D025
:100E2000704701460020144A121D12880A400AB178
:100E3000012000E0002070470F49091D0988814307
:100E40000D4A121D11807047014600200A4A121DEA
:100E500012880A40D0B2084A12880A4012B108B17A
:100E6000012000E0002070470349091D09888143E3
:100E7000014A121D118070470028004010B5044639
:100E8000FE48844208D10121C014FFF7D3FD0021A0
:100E9000E014FFF7CFFDC4E0B4F1804F08D1012189
:100EA0000846FFF7D4FD00210120FFF7D0FDB8E090
:100EB000F348844208D101210220FFF7C8FD002138
:100EC0000220FFF7C4FDACE0EE48844208D10121C6
:100ED0000420FFF7BCFD00210420FFF7B8FDA0E0CF
:100EE000E948844208D101210820FFF7B0FD002124
:100EF0000820FFF7ACFD94E0E448844208D10121CA
:100F00001020FFF7A4FD00211020FFF7A0FD88E0CE
:100F1000DF48844208D101212020FFF798FD0021FD
:100F20002020FFF794FD7CE0DA48844208D10121BB
:100F30004014FFF77FFD00216014FFF77BFD70E098
:100F4000D548844209D10121C804FFF773FD00216F
:100F50004FF40020FFF76EFD63E0D048844209D1D2
:100F600001210805FFF766FD00214FF48010FFF70F
:100F700061FD56E0CA48844209D101214805FFF7C6
:100F800059FD00214FF40010FFF754FD49E0C5481A
:100F9000844208D101214020FFF759FD0021402063
:100FA000FFF755FD3DE0C048844208D10121802073
:100FB000FFF74DFD00218020FFF749FD31E0BB48E0
:100FC000844208D101218015FFF741FD0021A015C1
:100FD000FFF73DFD25E0B648844209D10121080410
:100FE000FFF728FD00214FF48030FFF723FD18E0C4
:100FF000B048844209D101214804FFF71BFD0021BC
:101000004FF40030FFF716FD0BE0AB48844208D1E7
:1010100001218804FFF70EFD00214FF48020FFF727
:1010200009FD10BD00220288944B98420ED0994BC6
:1010300098420BD0B0F1804F08D0914B984205D028
:10104000904B984202D0904B984204D14FF68F7348
:101050001A404B881A438D4B984207D08C4B9842CC
:1010600004D04FF6FF431A40CB881A4302808B8886
:1010700083850B880385814B98420BD0854B984222
:1010800008D08B4B984205D08A4B984202D08A4BAD
:10109000984201D10B7A038601238382704770B591
:1010A000002400220023058C4FF6FE76354005848F
:1010B000028C8388048B4FF68F752C40B51E2C4014
:1010C0000D882C43751E2A400D892A434D882A43DA
:1010D0006A4DA8420BD06F4DA84208D0744DA8426B
:1010E00005D0744DA84202D0734DA84213D14FF6DB
:1010F000F7752A404D892A434FF6FB752A408D88A3
:101100002A434FF6FF652B404FF6FF552B408D8944
:101110002B43CD892B4383800483CD88858602842D
:1011200070BD70B5002400220023058C4FF6EF76C9
:1011300035400584028C8388048B48F6FF752C406B
:101140004FF6FF452C400D884FF6FF7606EA052541
:101150002C434FF6DF752A400D8906EA05152A4310
:101160004D8806EA05152A43444DA84202D0494D50
:10117000A8421DD14FF67F752A404D894FF6FF7664
:1011800006EA05152A434FF6BF752A408D8806EA00
:1011900005152A434FF6FF352B404FF2FF752B40C4
:1011A0008D8906EA85052B43CD8906EA85052B4303
:1011B00083800483CD880587028470BD70B50024C8
:1011C00000220023058C4FF6FF6635400584028C13
:1011D0008388848B4FF68F752C404FF6FC752C401E
:1011E0000D882C434FF6FF552A400D894FF6FF76A8
:1011F00006EA05252A434D8806EA05252A431F4DA0
:10120000A84202D0234DA8421DD14FF2FF752A40BB
:101210004D894FF6FF7606EA05252A434FF6FF353E
:101220002A408D8806EA05252A434EF6FF752B4095
:101230004DF6FF752B408D8906EA05152B43CD89A8
:1012400006EA05152B4383808483CD888587028435
:1012500070BD70B5002200230024058C4EF6FF7689
:1012600035400584038C8488828B48F6FF752A40BC
:101270004FF6FF452A400D8820E00000002C014079
:101280000004004000080040000C00400010004036
:101290000014004000340140004C01400050014067
:1012A0000054014000180040001C00400020004095
:1012B0000040014000440140004801404FF6FF76E5
:1012C00006EA05252A434DF6FF752B400D8906EAEF
:1012D00005352B434D8806EA05352B43FA4DA842C8
:1012E00002D0FA4DA84208D14BF6FF752C408D89EB
:1012F0004FF6FF7606EA85152C4384808283CD88DD
:10130000A0F84050038470BD828B4FF2FF331A4027
:101310008283828B4FF6FF7303EA01231A43828391
:101320007047F0B50C461546002200210026078CB8
:101330004EF6FF7C07EA0C070784828B018C4FF680
:10134000FF7707EA043640F6FF473A404FF6FF774B
:1013500007EA05273A434FF6FF7707EA03373A4390
:10136000D94FB8420ED0D94FB8420BD0B0F1804F10
:1013700008D0D74FB84205D0D64FB84202D0D64F8A
:10138000B84206D14DF6FF77394046F480573943CD
:1013900005E047F6FF57394044F4805739438283CC
:1013A0000184F0BD828B4FF6F3731A408283828BE7
:1013B0000A4382837047F0B50C461546002200218F
:1013C0000026078C4FF6FF6C07EA0C070784828B18
:1013D000018C4FF6FF7707EA04264FF60C773A4068
:1013E0004FF6FF7707EA03172F433A43B64FB84249
:1013F0000ED0B64FB8420BD0B0F1804F08D0B44FEA
:10140000B84205D0B34FB84202D0B34FB84206D16C
:101410004FF6FF57394046F48077394305E04FF2E5
:10142000FF57394044F48077394382830184F0BD0B
:10143000028B4FF2FF331A400283028B4FF6FF7389
:1014400003EA01231A4302837047F0B50C461546A0
:10145000002200210026078C4FF6EF7C07EA0C07DC
:101460000784028B018C4FF6FF7707EA041640F6DB
:10147000FF473A404FF6FF7707EA03373A434FF604
:10148000FF7707EA05273A438F4FB8420ED08F4FB8
:10149000B8420BD0B0F1804F08D08D4FB84205D084
:1014A0008C4FB84202D08C4FB84206D14FF6DF774E
:1014B000394046F01007394305E04FF65F77394071
:1014C00044F01007394302830184F0BD028B4FF6CC
:1014D000F3731A400283028B0A4302837047F0B50C
:1014E0000C46154600220021068C4FF6FE773E4042
:1014F0000684028B018C4FF60C7632407E1C06EA85
:1015000003162E433243704EB0420ED06F4EB0429F
:101510000BD0B0F1804F08D06D4EB04205D06D4E6B
:10152000B04202D06C4EB04206D14FF6FD7631404B
:1015300044F00106314305E04FF6F576314044F0C2
:101540000106314302830184F0BD70B505460C46A7
:101550005D4885420ED05D4885420BD0B5F1804F85
:1015600008D05B48854205D05A48854202D05A4887
:10157000854200D100E000BF208850B92389A288AD
:1015800061882846FFF7ABFFE1882846FFF79EFFFA
:1015900025E0208804280AD12389A288618828466A
:1015A000FFF753FFE1882846FFF742FF17E0208846
:1015B00008280AD12389A28861882846FFF7FBFE04
:1015C000E1882846FFF7EEFE09E02389A2886188BA
:1015D0002846FFF7A6FEE1882846FFF795FE70BD76
:1015E0002DE9F04105460C4600260127608808B920
:1015F000022600E00026A088012801D1022700E091
:1016000001272088A0B92389A28861882846FFF78E
:1016100066FFE1882846FFF759FF23893A4631469D
:101620002846FFF712FFE1882846FFF701FF13E085
:101630002389A28861882846FFF707FFE1882846AA
:10164000FFF7F6FE23893A4631462846FFF747FF63
:10165000E1882846FFF73AFFBDE8F0810A884B8809
:101660001A438B881A43CB881A430B891A434B8938
:101670001A438B891A43A0F8442070474FF6FF7134
:10168000818000210180C18041800172704700216A
:10169000018041808180C180018141818181C1813E
:1016A0007047002101804180012181800021C1809B
:1016B000018170470021018041808180C1800181CA
:1016C0004181818170470000002C014000340140BD
:1016D0000004004000080040000C004021B10288D6
:1016E00042F00102028004E002884FF6FE731A40C5
:1016F0000280704731B1B0F8442042F40042A0F8B3
:10170000442005E0B0F84420C2F30E02A0F84420C3
:1017100070471AB183890B43838102E083898B432D
:10172000838170478182704741EA0203A0F8483004
:1017300070471AB183890B43838102E083898B430D
:101740008381704701894FF6F8721140018170471B
:101750000A46002101894FF68F7319401143018118
:10176000704730B504460D4629462046FFF7F0FF86
:10177000208940F00700208130BD2DE9F04104466A
:101780000D4616461F46602D06D13B4601223146C6
:101790002046FFF75AFE05E03B460122314620462F
:1017A000FFF79DFE29462046FFF7D2FF208940F033
:1017B00007002081BDE8F08130B50C460021018989
:1017C000C9B24FF6FF7505EA0325154325432943A2
:1017D000018130BD2DE9F04105460E461746984679
:1017E000002443463A4631462846FFF7E5FF2C8958
:1017F0004FF6F870044044F007044FF68F70044031
:1018000044F070042C81BDE8F081F0B504460D462B
:1018100016461F463B46324629462046FFF7CCFF78
:10182000208940F480402081F0BD0185828270478C
:101830000A46002101884FF68F7319401143018039
:101840007047F0B50C4615461E46002100220023C5
:101850000189028B038C4FF6F877394021434FF60C
:10186000FC473A4040F201173A434FF6DD773B40E0
:101870004FF6FF7707EA06172F433B4301810283A8
:101880000384F0BD0A460021018B4FF68F73194087
:101890001143018370470A460021018B48F6FF730C
:1018A00019404FF6FF7303EA02231943018370477F
:1018B0000A460021818B4FF68F73194011438183B3
:1018C00070470A460021818B48F6FF7319404FF696
:1018D000FF7303EA022319438183704721B1028811
:1018E00042F08002028004E002884FF67F731A40C3
:1018F0000280704721B1828842F00402828004E0B5
:1019000082884FF6FB731A408280704721B182882B
:1019100042F00802828004E082884FF6F7731A4092
:101920008280704721B1828842F00102828004E007
:1019300082884FF6FE731A40828070470A46002163
:10194000018B4FF6F77319401143018370470A4624
:101950000021018B4FF2FF7319404FF6FF7303EA2A
:1019600002231943018370470A460021818B4FF6F9
:10197000F77319401143818370470A460021818B18
:101980004FF2FF7319404FF6FF7303EA0223194326
:10199000818370470A460021018B4FF6FB73194083
:1019A0001143018370470A460021018B4FF6FF3334
:1019B00019404FF6FF7303EA02231943018370476E
:1019C0000A460021818B4FF6FB7319401143818336
:1019D00070470A460021818B4FF6FF3319404FF6BE
:1019E000FF7303EA02231943818370470A460021EB
:1019F000018B4FF67F7319401143018370470A46EC
:101A00000021018BC1F30E014FF6FF7303EA02239D
:101A10001943018370470A460021818B4FF67F737B
:101A200019401143818370470A460021818BC1F31D
:101A30000E014FF6FF7303EA0223194381837047B7
:101A40000A460021018C4FF6FD73194011430184B1
:101A500070470A460021018C4FF6F7731940114375
:101A6000018470470A460021018C4FF6DF7319404C
:101A70004FF6FF7303EA02131943018470470A46C5
:101A80000021018C4FF67F7319404FF6FF7303EA74
:101A900002131943018470470A460021018C4FF656
:101AA000FF5319404FF6FF7303EA022319430184E1
:101AB00070470A460021018C4FF2FF7319404FF620
:101AC000FF7303EA02231943018470470A46002189
:101AD000018C4DF6FF7319404FF6FF7303EA023392
:101AE00019430184704730B5002301248C40A3B210
:101AF000048C9C430484048C02FA01F5ADB22C439F
:101B0000048430BD30B5002304248C40A3B2048C7F
:101B10009C430484048C02FA01F5ADB22C43048486
:101B200030BD70B50346002000241846183001254A
:101B30008D40ACB21D8CA5431D8409B1082909D183
:101B400000EB6100056825F0700505600568154328
:101B500005600EE00D1FC5F34E052844056825F409
:101B6000E045056005684FF6FF7606EA0226354334
:101B7000056070BD21B1028842F00202028004E0DB
:101B800002884FF6FD731A400280704721B1028827
:101B900042F00402028004E002884FF6FB731A4010
:101BA0000280704721B1828842F08002828004E086
:101BB00082884FF67F731A408280704702884FF602
:101BC000F7731A40028002880A43028070478288B5
:101BD0004FF68F731A40828082880A438280704752
:101BE00002894FF6F8731A40028102890A43028182
:101BF000704702894FF67F731A40028102890A43B7
:101C00000281704781847047818570478186704763
:101C10000187704781877047A0F84010704702889D
:101C20004FF6FF431A40028002880A430280704741
:101C30000146888E70470146088F70470146888F9D
:101C400070470146B1F8400070470146888C7047E4
:101C50000146088D704702460020138A0B400BB1E5
:101C6000012000E000207047CA430282704730B56F
:101C70000246002000230024158A05EA0103958905
:101C800005EA010413B10CB1012000E0002030BDD1
:101C9000CA43028270470000002109E0002201E0EF
:101CA000531C9AB240F6B8339A42F9DB4B1C99B2F6
:101CB0008142F3DB70474FF40072FA4B1A60521006
:101CC0001A6020221B1F1A60F74AD06020221B1DB9
:101CD0001A601B1F1A60D2001A60F34AD1602022DA
:101CE0001B1D1A601B1F1A60D2001A60704700B5D6
:101CF00001210020FFF7DFFF4FF47A70FFF7CCFFE0
:101D000000210120FFF7D7FF41F290711020FFF76B
:101D1000D2FF4FF41C516020FFF7CDFF012161205D
:101D2000FFF7C9FF02214620FFF7C5FF48F2100167
:101D30001320FFF7C0FF48F2FE011220FFF7BBFFA0
:101D40004FF4A0610220FFF7B6FF41F230010320FB
:101D5000FFF7B1FF40F203313020FFF7ACFF40F254
:101D600003313120FFF7A7FF40F203313220FFF7A4
:101D7000A2FF4FF440713320FFF79DFF0321342071
:101D8000FFF799FF40F203313520FFF794FF14214C
:101D90003620FFF790FF40F203313720FFF78BFF2B
:101DA00040F203313820FFF786FF40F2033139203B
:101DB000FFF781FF4FF440713A20FFF77CFF0321CA
:101DC0003B20FFF778FF40F203313C20FFF773FF21
:101DD0004FF4A0513D20FFF76EFF4FF400719220A9
:101DE000FFF769FF40F203319320FFF764FF40F6ED
:101DF0000D019020FFF75FFF41F218010320FFF76C
:101E00005AFF40F273110720FFF755FF00BD00B5E0
:101E100043F20801E320FFF74EFF1221E720FFF70E
:101E20004AFF41F23121EF20FFF745FF0021012059
:101E3000FFF741FF4FF4E0610220FFF73CFF41F262
:101E400030010320FFF737FF00210420FFF733FFA5
:101E500040F207210820FFF72EFF00210920FFF79D
:101E60002AFF00210A20FFF726FF00210C20FFF7A0
:101E700022FF00210D20FFF71EFF00210F20FFF79A
:101E80001AFF00211020FFF716FF07211120FFF78E
:101E900012FF00211220FFF70EFF00211320FFF791
:101EA0000AFF4FF47A70FFF7F7FE41F290611020BD
:101EB000FFF701FF40F227211120FFF7FCFE32203F
:101EC000FFF7EAFE1D211220FFF7F5FE3220FFF793
:101ED000E3FE4FF400611320FFF7EDFE14212920EB
:101EE000FFF7E9FE0B212B20FFF7E5FE3220FFF77D
:101EF000D3FE00212020FFF7DEFE00212120FFF786
:101F0000DAFE07213020FFF7D6FE40F207713120BC
:101F1000FFF7D1FE06213220FFF7CDFE40F204711B
:101F20003520FFF7C8FE41F604713620FFF7C3FEE7
:101F300004213720FFF7BFFE00213820FFF7BBFE4A
:101F400040F206713920FFF7B6FE40F201713C20E5
:101F5000FFF7B1FE0F213D20FFF7ADFE002150201D
:101F6000FFF7A9FEEF215120FFF7A5FE0021522027
:101F7000FFF7A1FE40F23F115320FFF79CFE4FF404
:101F80001C516020FFF797FE01216120FFF793FEAF
:101F900000216A20FFF78FFE00218020FFF78BFED3
:101FA00000218120FFF787FE00218220FFF783FEBA
:101FB00000218320FFF77FFE00218420FFF77BFEB6
:101FC00000218520FFF777FE10219020FFF773FE98
:101FD00000219220FFF76FFE03219320FFF76BFE95
:101FE0004FF488719520FFF766FE00219720FFF7D8
:101FF00062FE00219820FFF75EFE41F218010320E7
:10200000FFF759FE40F273110720FFF754FE00BDA1
:1020100008B54FF6FF70ADF8000003208DF8020000
:1020200010208DF8030069461F48FEF72DFA08BD01
:1020300008B54FF6FF70ADF8000003208DF80200E0
:1020400048208DF8030069461748FEF71DFA08BDC1
:1020500070B504464FF400701249086040100860E3
:102060002020091F08601048C4602020091D086056
:10207000091F0860C0000860FFF7DAFF4FF48060B6
:10208000084908600848806885B20815091F08607B
:10209000FFF7BEFF4FF400700249091F0860284691
:1020A00070BD0000140C01400010014008B5012172
:1020B0001820FEF7A5FC01212020FEF7A1FC4FF41B
:1020C000E460ADF8000001208DF8020010208DF8CA
:1020D00003006946F848FEF7D7F9FFF799FFF6487D
:1020E0001030006840F4C460F3491031086008BD46
:1020F00010B5FFF7DBFF0020FFF7AAFFEF490880CC
:102100000846008848F23021884202D1FFF7EFFDEF
:1021100001E0FFF77CFE0020FFF79AFFE749088007
:1021200010BD01B5BDF80000E549088008BD01B546
:10213000BDF80000E349088008BD30B504460D46EF
:1021400021462020FFF7B7FD29462120FFF7B3FDE8
:1021500030BD4FF40071D84A143211604910121F7B
:10216000116020211160D849C8602021121D116022
:10217000121F1160C90011604900116070474FF4CF
:102180000070CD4914310860401008602020091FFC
:1021900008602220CC49C8602020C749143108605B
:1021A000091F0860C00008604000086070472DE902
:1021B000F04306468946174600240025A046B0464F
:1021C00049464046FFF7B9FF00BF1EE0FFF7D7FFC3
:1021D00000250FE037F814000121A940084020B97C
:1021E000B8480088FFF7B5FF03E0B5480088FFF75F
:1021F000B0FF6D1C102DEDD308F1010000F0FF08B9
:1022000049464046FFF799FF641C182CDED3BDE811
:10221000F08370B505460E461446A4F12000C4B202
:1022200004EB4400A94901EB001231462846FFF7B0
:10223000BEFF70BDF0B507460C46002540F23F16C4
:1022400009E0227831463846FFF7E3FFA6F1100097
:1022500086B2641C6D1C207808B1142DF1D3F0BD3A
:1022600010B504469AA12046FFF7E4FF10BD30B533
:102270000546002400210846FFF75FFFFFF77FFFB8
:1022800000BF03E02846FFF764FF641CB4F5963FE7
:10229000F8D330BDF0B504460D4616461F46B4428D
:1022A00006DBA01B401C81B25020FFF704FD03E0B9
:1022B00000215020FFF7FFFC21465120FFF7FBFCD7
:1022C000BD4206DBE81B401C81B25220FFF7F3FC45
:1022D00003E000215220FFF7EEFC29465320FFF7D0
:1022E000EAFC29462046FFF728FFF0BD00B54FF471
:1022F000A073F022591EEF20FFF7CCFF41F2180126
:102300000320FFF7D8FC00BD2DE9F04106468846C2
:1023100015461F46002441463046FFF70EFF5FB9C1
:10232000FFF72DFF00BF04E065480088FFF711FFAD
:10233000641CAC42F8D310E000240CE0FFF71FFF50
:102340005F480088FFF705FF701CC6B24146304663
:10235000FFF7F3FE641CAC42F0D3BDE8F081F0B5AA
:1023600005460E4617461C4600232246314628469F
:10237000FFF7CAFFE919C8B2002322463146FFF72A
:10238000C3FF01233A4631462846FFF7BDFF301B05
:10239000401C81B201233A462846FFF7B5FFF0BD45
:1023A0002DE9F04306460F4690460320A0EB48096E
:1023B000002445466EE07A1991B23219D0B2FFF787
:1023C000BCFEFFF7DCFE3E480088FFF7C2FE7A1B2A
:1023D00091B23219D0B2FFF7B0FEFFF7D0FE384805
:1023E0000088FFF7B6FE7A1991B2321BD0B2FFF720
:1023F000A4FEFFF7C4FE32480088FFF7AAFE7A1B4E
:1024000091B2321BD0B2FFF798FEFFF7B8FE2C480E
:102410000088FFF79EFE3A1991B27219D0B2FFF709
:102420008CFEFFF7ACFE26480088FFF792FE3A1BB1
:1024300091B27219D0B2FFF780FEFFF7A0FE2048DC
:102440000088FFF786FE3A1991B2721BD0B2FFF7EF
:1024500074FEFFF794FE1A480088FFF77AFE3A1BD5
:1024600091B2721BD0B2FFF768FEFFF788FE1448E6
:102470000088FFF76EFEB9F1000F04DA062000EBCA
:102480008400814405E0601B0A2101EB8000814447
:102490006D1E641CAC428ED9BDE8F08370B5064653
:1024A0000024002540F23F110020FFF746FEFFF711
:1024B00066FE00BF2DE00000000C01402C00002053
:1024C000280000202A000020001001401E4F0008B4
:1024D00020202020202020202020202020202020FC
:1024E000202020200000000000250FE056F82400E6
:1024F0000121A940084020B95F480088FFF729FE64
:1025000003E05E480088FFF724FE6D1C202DEDD30C
:10251000641CB4F5166FE7D370BD70B50446002592
:1025200000266688A08846EA00466589A08945EAB3
:102530000045701B46082C4441F208010320FFF7B8
:10254000BAFBFFF71CFE002504E02088FFF701FE20
:10255000A41C6D1CB542F8D341F218010320FFF70B
:10256000AAFB70BD10B54FF40070454908604010DB
:1025700008602020091F086022204249C8602020EE
:102580003F490860091F0860C0000860FFF750FD60
:102590004FF480603A4908603A48806884B2081570
:1025A000091F0860FFF734FD4FF400703449091F1C
:1025B0000860204610BD00B500211020FFF77BFB0E
:1025C00000211120FFF777FB00211220FFF773FB9A
:1025D00000211320FFF76FFB1420FFF75DFB41F292
:1025E000B0711020FFF767FB40F237111120FFF7A1
:1025F00062FB0520FFF750FB40F239111220FFF774
:102600005AFB0520FFF748FB4FF4E8511320FFF772
:1026100052FB13212920FFF74EFB0520FFF73CFB5F
:1026200040F273110720FFF746FB00BD00B540F2F2
:1026300073110720FFF73FFB00BD00B50021072005
:10264000FFF739FB00BD30B5054600210846FFF70E
:1026500074FDFFF794FD002409E015F814206100D3
:10266000491C695C42EA0120FFF773FD641CB4F564
:10267000963FF2DB30BD00002A0000202800002039
:10268000140C014000100140FE49086000BFFD49E4
:1026900009680029FBD17047FB4800684FF47A7243
:1026A000B0FBF2F1481EB0F1807F00D31BE0481E62
:1026B0004FF0E022506150170F22002807DA13076D
:1026C0001E0EF24B00F00F052D1F5E5503E01307A1
:1026D0001D0EEF4B1D5400BF00204FF0E022906113
:1026E0000720106100BFC820FFF7CEFFFFF700FDF5
:1026F0004FF4C060FEF7E8F900F05EFC00F04AFE1F
:1027000000F054FB00F068FB4FF47F4000F089FBC1
:1027100000F0A0FB1F20FFF7AAFD1F20FFF707FD19
:102720004FF6FF70FFF7FDFC4FF47A70FFF7ACFF38
:102730004FF47F4000F075FB64E00020D54908604D
:102740000EE0D4490978491CC8B200F050FED249C5
:10275000D04A12688854CF480068401CCD490860B0
:10276000CC4800680428ECDBCB480068CB49086003
:1027700008460068CA490860CA48CB490860002278
:10278000CAA1D14800F05AFECF490020FFF752FD00
:10279000CE48006802F0A6F805462A460B46CCA1B2
:1027A000C94800F04BFEC8493020FFF743FDCD4833
:1027B000006802F097F805462A460B46CAA1C248AF
:1027C00000F03CFEC0499020FFF734FDB34800689C
:1027D00002F088F805462A460B46C7A1BA4800F021
:1027E0002DFEB949D820FFF725FD0421C748FDF784
:1027F000DEFE38B900BF0221C448FDF7D8FE00282C
:10280000F9D000E099E700BFEBE10221BF48FDF7F6
:10281000CEFED0B900BF0221BC48FDF7C8FE00289B
:10282000F9D0BB480068A0F57A70B949086008463D
:102830000068B84991FBF0F0B74908600122042113
:102840000807FEF766FF00F05BFB0421AF48FDF7C9
:10285000AEFE18BB00BF0421AC48FDF7A8FE00285F
:10286000F9D0AB48006800F57A70A94908600846BD
:10287000006844F62061884202DD0846A4490860E9
:10288000A3480068A34991FBF0F0A3490860012226
:1028900004210807FEF73DFF00F032FB9C4800686A
:1028A000002875DC00209A490860002204210807EE
:1028B000FEF72FFF002099490860994800684FF4FF
:1028C0006161484397490968C1EB011100EB810040
:1028D000954909680844954908600846006802F06F
:1028E0005DF9054692497F48006802F0A3F9064663
:1028F000294602F091F875490860684800688D49DA
:1029000008600C460020634908600DE0614A1268C7
:10291000A15C604A1278521CD0B200F04EFD5D48B6
:102920000068401C5B4908605A4800680428EDDBD9
:102930000020814908606B49086065E059485A49A0
:1029400008600020534908600EE052490978491C8C
:10295000C8B200F04CFD50494E4A126888544D48A8
:102960000068401C4B4908604A4800680428ECDBBA
:1029700049480068494908600846006848490860B5
:102980006648006801F0AEFF05462A460B4600E0A7
:102990003CE06AA14C4800F051FD4B490020FFF794
:1029A00049FC4A48006801F09DFF05462A460B464F
:1029B00047A1454800F042FD43493020FFF73AFC6B
:1029C0004848006801F08EFF05462A460B4662A182
:1029D0003D4800F033FD3C499020FFF72BFC2F4889
:1029E000006801F07FFF05462A460B465EA1364887
:1029F00000F024FD3449D820FFF71CFC0421434893
:102A0000FDF7D5FD00B900E098E700BF4A4800682F
:102A100001F03FFE0546594A594B01F065FE074655
:102A200001F006FE2F490860084601681C4800684E
:102A300001F084FF1949086052493848006802F0E3
:102A4000C5F903D201205049086006E000204E4934
:102A500008604FF47F4000F0E4F93048006801F06E
:102A600041FF05462A460B4634A1174800F0E6FC14
:102A700015490020FFF7DEFB1448006801F032FF23
:102A8000054683E0300000200000002018ED00E043
:102A900000E400E04000002038000020500000204A
:102AA000580000207F5101009C0000202056696DD5
:102AB000286B6D2F68293A202544202020202020D3
:102AC0002020202000000000A80000204800002056
:102AD0002056617667286B6D2F68293A20252E33A2
:102AE000662020004C0000202053286B6D293A20DE
:102AF000252E336C662020002020546F79616C28CD
:102B00006B6D293A2025462020000000000C014072
:102B10003400002080A812015C0000204400002046
:102B20009000002094000020980000206000002009
:102B30000000614554000020880000202056696D87
:102B4000286B6D2F68293A20252E31662020202001
:102B500020202020202000002053286B6D293A20BF
:102B6000252E3366202000002020546F79616C28C8
:102B70006B6D293A20252E33662020008DEDB5A0FF
:102B8000F7C6C03E0000B442680000202A460B464B
:102B9000AFF2C401134800F051FC12493020FFF796
:102BA00049FB1148006801F09DFE05462A460B4688
:102BB000AFF25C010B4800F041FC0A499020FFF79E
:102BC00039FB0A48006801F08DFE05462A460B468F
:102BD000AFF26C01034800F031FC0249D820FFF746
:102BE00029FB12E6A80000204C0000205000002025
:102BF0002DE9F04104210807FFF739F8012852D1E7
:102C000004218007FFF744F85748008848B94FF07F
:102C10008040FFF710F8554908800120524908808C
:102C20002DE051480088012829D18007FFF703F8DB
:102C30004F490880084600884C490988884207DDCA
:102C40004B48008849490988401A4A49086009E008
:102C5000464800884FF6FF71081A4549098808441C
:102C600044490860434800684FF47A714843424938
:102C7000B1FBF0F04149086000203B490880404822
:102C80000068401C3E4908603C490968480001F062
:102C900017FD06463B4A3C4B01F026FD044601F079
:102CA000C7FC3A490860BDE8F08110B502213848F8
:102CB000FEF7DDFF40B302213548FEF7E9FF344857
:102CC000FEF7B6FF334908803348006878B93248C8
:102CD0000068401C304908602E4800882F4A12685E
:102CE00000EB520081B22A48FEF790FF0CE0002072
:102CF0002949086027480088284A126800EB5200DA
:102D000081B22348FEF782FF10BD10B52448006849
:102D1000401E2349086023480068012823D1224827
:102D20000068401C20490860084600684FF496710E
:102D300090FBF1F018B94FF47E4000F072F81A4899
:102D400000684FF4967190FBF1F0012803D14FF425
:102D50007F4000F066F814480068B0F5167F02D195
:102D600000201149086010BD700000206C00002098
:102D70006E0000207400002080A81201780000205E
:102D800088000020CDCCCCCCCCCC0C404400002022
:102D900000040040800000207C0000205C00002037
:102DA00030000020680000208400002008B50121C8
:102DB0000820FDF725FE0620ADF8000048208DF81C
:102DC000030003208DF8020069460248FDF75CFB12
:102DD00008BD0000000C014008B501211020FDF7DE
:102DE0000FFE01212020FDF70BFE4FF47F40ADF8D0
:102DF000000010208DF8030003208DF802006946C2
:102E00001248FDF741FB0420ADF8000010208DF8BA
:102E1000030003208DF8020069460D48FDF734FBDE
:102E200008BD10B50446A1B20848FDF7E3FB084809
:102E30000C30006840F0040005490C310860084679
:102E4000006820F00400086010BD00000010014080
:102E50000014014000B589B001210846FDF7DDFDF1
:102E600001210420FDF7CCFD0220ADF82000042054
:102E70008DF8230003208DF8220008A91F48FDF7D4
:102E800003FB4FF6FF70ADF808000320ADF8040017
:102E90000020ADF80A00ADF8060001A94FF080400F
:102EA000FEF7C0F81C208DF81C0000208DF81D00D6
:102EB00001208DF81E008DF81F0007A8FDF709FE00
:102EC0000420ADF810000020ADF812000120ADF88C
:102ED00014000020ADF81600ADF8180004A94FF05A
:102EE0008040FEF732FB01218807FEF7F7FB012245
:102EF00004210807FEF70DFC09B000BD00080140E1
:102F000000B589B001210220FDF787FD01210420D1
:102F1000FDF776FD1D208DF8000000208DF80100E2
:102F20008DF8020001208DF803006846FDF7D1FD01
:102F30004020ADF8200018208DF8230003208DF8E4
:102F4000220008A91948FDF79FFA4FF6FF70ADF867
:102F500018000320ADF814000020ADF81A00ADF8F9
:102F6000160005A91248FEF75DF83020ADF8040000
:102F70000120ADF806000F480088ADF80A000220D5
:102F8000ADF80C0001A90A48FEF789F800210848AD
:102F9000FEF7D4FC01210648FEF7A0FB0122022126
:102FA0000348FEF7B6FB09B000BD00000008014071
:102FB000000400408C00002008B501214FF0C050F3
:102FC000FDF72BFD0120FDF75AFEFDF7EBFD01207B
:102FD000FDF79CFC00BF6120FDF7E7FB0028FAD05D
:102FE0004FF40070FDF795FC0120FDF798FCFDF70C
:102FF00006FFFDF7FBFE01210846FDF79BFEFDF7EE
:10300000F5FE49F64040FDF7CBFEFDF7EFFE01214E
:103010000846FDF78FFE0020FDF7B5FEFDF7E6FE42
:1030200003208DF8000001208DF8010000208DF8AC
:10303000020001208DF803006846FDF74AFD08BD37
:1030400010B5FDF797FE2B49884204D10020FDF70B
:103050009AFEFDF7CBFE284800684FF46161B0FB93
:10306000F1F026490860244800684FF46161B0FB24
:10307000F1F201FB12003C21B0FBF1F020490860A5
:103080001D4800684FF46161B0FBF1F201FB1200D2
:103090003C21B0FBF1F201FB12001A49086010BD9F
:1030A00008B50120FDF7D0FE18B313480068401C96
:1030B00011490860084600680E49491C884202D13F
:1030C00000200D490860FFF7BBFF0E480068009024
:1030D0000B48036809480CA10268124800F0AEF9D9
:1030E00010496020FFF7A6F80120FDF7BDFEFDF7AF
:1030F0007DFE08BD7F5101009C0000209000002053
:103100009400002098000020205428683A6E3A73FA
:10311000293A25302E32643A25302E32643A253051
:103120002E3264007001002008B58020ADF8000048
:1031300002208DF8020028208DF803006946BD4862
:10314000FDF7A2F908BD08B58020ADF80000022007
:103150008DF8020010208DF803006946B548FDF790
:1031600093F908BD10B5044624B18021B148FDF79C
:1031700038FA03E08021AF48FDF735FA10BD10B5ED
:10318000044624B14021AB48FDF72BFA03E040216F
:10319000A848FDF728FA10BD10B58021A548FDF715
:1031A00006FA10BD002100E0491C8142FCD37047A3
:1031B00010B50120FFF7D6FF4FF4FA70FFF7F2FFCA
:1031C0000120FFF7DCFF4FF4FA70FFF7EBFF002060
:1031D000FFF7C8FF4FF4FA70FFF7E4FF0020FFF796
:1031E000CEFF4FF4FA70FFF7DDFF10BD10B50020E1
:1031F000FFF7C5FF4FF4FA70FFF7D4FF0020FFF789
:10320000B1FF4FF4FA70FFF7CDFF0120FFF7B7FFD2
:103210004FF4FA70FFF7C6FF0120FFF7A3FF4FF44A
:10322000FA70FFF7BFFF10BD10B50524FFF77CFF54
:103230004FF4FA70FFF7B6FF0120FFF7A0FF4FF43D
:10324000FA70FFF7AFFF0CE0601E84B24FF4FA7023
:10325000FFF7A8FF2CB9FFF776FFFFF7C7FF0020A5
:1032600010BDFFF799FF0028EED1FFF76CFF00209B
:10327000FFF785FF4FF4FA70FFF794FF0120EFE7A7
:1032800010B50020FFF76EFF4FF4FA70FFF78AFFCA
:103290004FF4FA70FFF786FF0120FFF770FF4FF43D
:1032A000FA70FFF77FFF0020FFF769FF4FF4FA7015
:1032B000FFF778FF10BD10B50120FFF753FF4FF463
:1032C000FA70FFF76FFF0120FFF759FF4FF4FA7014
:1032D000FFF768FF0020FFF752FF4FF4FA70FFF787
:1032E00061FF10BD70B5044608251BE00020FFF704
:1032F00046FF4FF4FA70FFF755FF04F08000FFF728
:1033000031FF4FF4FA70FFF74DFF6006040E4FF4E3
:10331000FA70FFF747FF0120FFF731FF4FF4FA7013
:10332000FFF740FF281EA5F10101CDB2DED1FFF766
:1033300026FF4FF4FA70FFF735FF70BD70B5082512
:103340000024FFF7F1FE16E06006040E0020FFF7F0
:1033500016FF4FF4FA70FFF725FF4FF4FA70FFF7EE
:1033600021FF0120FFF70BFF4FF4FA70FFF71AFF60
:10337000FFF712FF0443281EA5F10101CDB2E3D1EE
:10338000FFF7FDFE4FF4FA70FFF70CFFFFF7DBFECF
:10339000204670BD08B501210820FDF731FBC02093
:1033A000ADF8000002208DF8020010208DF8030017
:1033B00069462048FDF768F808BD70B505460C461B
:1033C000FFF7F6FEA020FFF78DFFFFF72DFF284641
:1033D000FFF788FFFFF728FF2046FFF783FFFFF77F
:1033E00023FFFFF703FF0520FFF74EF970BD10B56F
:1033F0000446FFF7DDFEA020FFF774FFFFF714FF80
:103400002046FFF76FFFFFF70FFFFFF7D1FEA12068
:10341000FFF768FFFFF708FFFFF790FF0649087006
:10342000FFF749FFFFF7E2FE0520FFF72DF90248FD
:10343000007810BD000C0140A40000200FB41CB5A2
:10344000074B06AA7B4469460090059800F079FB7B
:103450000020694600F088FB1CBC5DF814FB0000EE
:10346000210700002DE9F041064600241068752967
:10347000314616A510D0AFF30080002802DA404292
:1034800013A507E031688A0701D512A502E04907B4
:1034900004D511A5012401E0AFF3008000210A2228
:1034A00006F1240709E0B0FBF2FCB0FBF2F302FBEB
:1034B0001C00303078541846491C0028F3D12346AC
:1034C0002A463046BDE8F04100F0CFB800000000C9
:1034D0002D0000002B000000200000002DE9F05F0F
:1034E000894604464FF0000ADFF874B1FB44C0F887
:1034F00020A02046E1688847002874D0252806D0FF
:10350000D4E901219047206A401C2062F1E700269F
:103510005F462046E16888472028054607DB312DB5
:1035200005D2781910F8200C08B10643F1E7B0076E
:1035300001D526F00406C4F81CA00027C4F818A082
:103540002A2D09D0284601F055F838B304EB870836
:10355000303DC8F8185019E059F8041B204604EB18
:1035600087029161E1688847012F054618D1E0691B
:10357000002820DA26F020061DE0D8F8180000EB1D
:10358000800005EB40003038C8F818002046E1689C
:103590008847054601F02EF80028EED1012F0AD009
:1035A0002E2D08D12046E16888477F1C0546022F52
:1035B00046F02006C4DBA069002803DA404246F04A
:1035C0000106A061F00701D026F010066C2D0BD08B
:1035D000682D09D04C2D39D06A2D35D0742D35D0B9
:1035E0007A2D33D016E038E0E1682F462046884730
:1035F000B842054609D16C2F26D04FF48060E168AF
:10360000064320468847054604E06C2F1AD04FF445
:10361000807006430DB3A5F14100192802D820356A
:1036200046F400664A462946204626604E46FCF788
:1036300097FD80B101280BD0F61D26F0070000F1A0
:10364000080956E74020E4E78020D8E70020D6E7C5
:1036500006F104094DE7284652E7206ABDE8F09FCD
:10366000FE2B00007047704770472DE9F0470D466C
:1036700099469246044600F124080168880604D55C
:10368000E06921F01001216000E00120A84201DD85
:10369000471B00E00027A1697A1902EB0900081A0C
:1036A000A0612078C00602D42046AFF30080002637
:1036B00008E0D4E901211AF806009047206A401C6E
:1036C000761C20624E45F4DB2078C0060AD52046E1
:1036D000AFF3008006E0D4E9012130209047206A52
:1036E000401C2062381EA7F10107F4DC07E0D4E992
:1036F000012118F805009047206A401C2062281E0E
:10370000A5F10105F3DC2046AFF300802078000628
:1037100002D50220BDE8F0870120FBE770472DE9C4
:10372000FF4F0C461E464FF0FF378BB0D2E9000129
:10373000DDF860800A908A46C1F30A5505B93D4616
:10374000002108464FF00000BAF1000F00F44000DD
:1037500005DA00EB80004FF4400101EA50004FEA27
:103760009059B9F1010F00DDB9460A9850EA4A00B4
:103770000ED044F61050A5F2FF3545432F14B8F192
:10378000000F1ED07542291E1EDDC9F100021CE08B
:10379000B8F1010F4FF0000001D0302103E0F243F7
:1037A00005E02154401CB042FBDB304600220021E2
:1037B00021540B99C1F80880C1E900200FB0BDE881
:1037C000F08FBD1B6D1CDEE74A4600DA694206A891
:1037D00000F05AFA06AB93E8070003AB83E8070052
:1037E00050460A9900F037FB8DE80700A0F500501D
:1037F0001F3800900398002D09DD42F21F014A4650
:10380000084403A90390684600F096FD08E0A0F57F
:1038100000504A461F3803A90390684600F0A0FDF7
:103820008DE807000004000C03D04FF0FF30410882
:1038300000E01046B8F1000F03D0002200921546B8
:103840001EE0751E05D400F099F9303262556D1EE8
:10385000F9D5B3460122084302D000227F1C04E0C0
:103860002078302801D100227F1E002A099786D0B7
:103870001DE0112D07DA00F081F9303262556D1C20
:1038800050EA0102F5D1084302D00098C8B10EE019
:103890000021681E05E0235C625C63542254401ED4
:1038A000491C8142F7DBAB46A81B401E0990002053
:1038B00004F80B000B98099AC0F80880C0E9002BA7
:1038C0007CE711264FF0000859E72DE9F04F8846B4
:1038D0000446D21D22F0070191B0D1E90001CDE9E3
:1038E0000A0100F073FE02460B98C00F01D02D2094
:1038F00007E02068810701D52B2002E0202101EAA2
:10390000C000032A099001D0072A05DB034641467F
:10391000204600F079F90BE12078800601D5E069B6
:1039200000E00620B8F1650F814606D0B8F1660FB9
:1039300018D0B8F1670F70D131E00020B9F1110F44
:10394000009001DB112301E009F101030AAA01A99A
:103950000CA8FFF7E4FEDDE90C70002609F1010573
:10396000834647E001204B4600904FF000470AAAEB
:1039700001A90CA8FFF7D3FEDDE90DB00C995D4657
:10398000002610B909F101000D18B9EB050003D4A8
:10399000C0F1FF3609F10105A5EB09002BE0B9F1F3
:1039A000010F01DA4FF001090020B9F1110F009069
:1039B000484601DD112300E003460AAA01A90CA82C
:1039C000FFF7ADFEDDE90C704D46002683462078FA
:1039D00000070AD4AB4500DA5D4601A8012D04DDDD
:1039E000411911F8011C302907D04F4502DA17F1AF
:1039F000040F04DA012082460FE06D1EEEE7002F6F
:103A000002DCED1B3E4403E0781CA84200DD7D1C77
:103A1000B81B00F1010A4FF000472078000703D4DB
:103A2000AA4501DB4FF0FF3A0021B7F1004F0DF13D
:103A300043088DF8431024D002202B23002F01DAF5
:103A40007F422D230A21021EA0F1010000DC5FB19C
:103A500097FBF1FC97FBF1F201FB1C7C17460CF184
:103A6000300C08F801CDEEE7A8F1010003702188C1
:103A7000090501D5452100E06521A0F1010800F804
:103A8000011C09980FA9A1EB0807FF1D00B1012037
:103A9000411901EBEA70A1693844081A401EA0617F
:103AA0002078C00602D42046AFF30080099828B1E0
:103AB000D4E901219047206A401C20622078C0068A
:103AC00022D52046AFF300801EE0002E04DBB34574
:103AD00002DD01A8805D00E03020D4E9012190479B
:103AE000206A401C2062761CAAF101005FEA000AED
:103AF0000AD100F03FF8C0680168405CD4E90121B8
:103B00009047206A401C2062281EA5F10105DCDCDC
:103B100007E0D4E9012118F8010B9047206A401C06
:103B20002062381EA7F10107F3DC2046AFF30080C6
:103B3000032011B043E6000001694A1C02610878C5
:103B4000704700B58FB0CDE90131002105910549DD
:103B50007944CDE9031011466846FFF7BFFC0FB06A
:103B600000BD0000E5FFFFFF0A6802F8010B0A60D4
:103B70007047000000487047C401002030B5B0F124
:103B80000A024FEA900E71F100034EEA817EB0EB1B
:103B90000E0061EB91014FEA101E4EEA017E10EB20
:103BA0000E0041EB11114FEA102E4EEA016E10EBA0
:103BB0000E0041EB11214FEA104E4EEA014E10EB80
:103BC0000E0041EB1141401841F100014FEAD000D5
:103BD00040EA41704FEAD10110EB80054FEA8104C1
:103BE00044EA907444EB01046D1944EB0404521B45
:103BF000A3414FF0000348BF0A3200D530BD401C3E
:103C000041F1000130BD00002DE9F0411F4604469E
:103C100003260168072A01F4006004DB08B116A539
:103C200005E016A503E008B115A500E015A521F0F3
:103C300010002060A069C01EA0610FB1401EA061ED
:103C40002046AFF300804FB1D4E9012138469047B8
:103C5000206A401C2062C01C206206E0206AFAE74D
:103C6000D4E9012115F8010B9047761EF8D22046C1
:103C7000AFF30080BDE8F0814E414E006E616E00F2
:103C8000494E4600696E66002DE9F04781461646AA
:103C90008AB0334878440DC88DE80D003048784428
:103CA000801C03AC0DC884E80D0041F69B3008442D
:103CB000372190FBF1F290FBF1F5A5F1800501FBB6
:103CC00012041B3C02D56442012000E00020DFF812
:103CD00090A080460027FA44AAF1BE0A0DE0E00752
:103CE00009D03246684607EB47010AEB810100F034
:103CF00037FB8DE8070064107F1C002CEFD1184FB4
:103D00007F44AC3F18E0E80714D007EB04100DF136
:103D1000180A90E80E008AE80E00C068F04201D14F
:103D200098190890324606A903A800F019FB03ABC6
:103D300083E807006D10641C002DE4D1324669460B
:103D4000B8F1000F03A802D000F0F6FA01E000F08D
:103D500007FBC9E90001C9F808200AB0BDE8F087EF
:103D6000E424000000487047A40100207546FFF7D6
:103D7000F9FFAE4605006946534620F00700854628
:103D800018B020B5FCF71EFABDE820404FF0000641
:103D90004FF000074FF000084FF0000B21F0070133
:103DA000AC46ACE8C009ACE8C009ACE8C009ACE876
:103DB000C0098D46704710B50446AFF30080204619
:103DC000BDE81040FCF7E9B94FF0013C50F8042B76
:103DD00051F8043B9A4221D1A2EB0C03934313EA1E
:103DE000CC1317D150F8042B51F8043B9A4215D14B
:103DF000A2EB0C03934313EACC130BD150F8042B22
:103E000051F8043B9A4209D1A2EB0C03934313EA05
:103E1000CC13DBD04FF00000704700BFD01A01BABE
:103E2000B1FA81F101F0180122FA01F0CB40C1F1A1
:103E30002001DBB2C0B2C01A2CFA01F3D11A9143AF
:103E400011EAC311E6D1704701491820ABBEFEE765
:103E50002600020070475FEA400C08BF91F0000F97
:103E60004FEA8C234FEAC12243EA51514FEA1C50DA
:103E700018BF00F5F0404FEA300018BF41F0004194
:103E80005FEA6C5C00F02980BCF1FF3F08BF40F0A6
:103E900080407047130C06BF12044FF0100C4FF017
:103EA000000C130E04BF12020CF1080C130F04BF18
:103EB00012010CF1040C930F04BF92000CF1020CE0
:103EC000D30F04BF52000CF1010C11464FF0000259
:103ED000A0F11F00A0EB0C00704711F0004F08BFCD
:103EE000704731F000413FF4D5AF0B0C06BF090419
:103EF0004FF0100C4FF0000C0B0E04BF09020CF138
:103F0000080C0B0F04BF09010CF1040C8B0F04BF4C
:103F100089000CF1020CCB0F04BF49000CF1010C1D
:103F2000CCF12003A0EB0C0022FA03F302FA0CF20E
:103F300041EA030100F10100704720F07F4C80EA64
:103F4000030023F07F47ACEB070303F57C5300F03D
:103F5000004003F1FF032DE980494FEA154B09B4F6
:103F60004FEA144325EA0B4E24EA03480FF20426D5
:103F700006EB132749083E785FEA320203FB066727
:103F8000C7F5000707FB06F64FEA54374FEAD64657
:103F900006F1020607FB066CCCF1005C4FEA1C47F9
:103FA0002CEA074C07FB06F40CFB06F504EB154660
:103FB0004FEA961634BF00204FF000404FEAD13749
:103FC00006FB07FC4FEA1C4C0CFB0BF7D21B03FB58
:103FD0000CF761EB07010CFB0EF7B0EB074072EB3F
:103FE00017420CFB08F734BFA2EB0742B2EB0742C3
:103FF00061EB17414FEA0C444FEA910706FB07FCBF
:104000004FEA1C4C0CFB0BF7B0EBC74072EB57327E
:1040100003FB0CF734BFA2EBC742B2EBC74261EB24
:1040200057310CFB0EF7B0EBC70072EB57720CFB6D
:1040300008F734BFA2EBC702B2EBC70261EB5771BE
:10404000039F4FEA816141EA921104EBCC044FEAED
:10405000D1374FEA826206FB07FC42EA90124FEA30
:1040600080604FEA1C4C0CFB0BF7D21B03FB0CF7D8
:1040700061EB07010CFB0EF7B0EB074072EB174248
:104080000CFB08F734BFA2EB0742B2EB074261EB2F
:1040900017414FEA8C554FEA910704EB9C2406FB2D
:1040A00007FC4FEA1C4C0CFB0BF7B0EBC74072EB64
:1040B000573203FB0CF734BFA2EBC742B2EBC74247
:1040C00061EB57310CFB0EF7B0EBC70072EB577288
:1040D0000CFB08F734BFA2EBC702B2EBC70261EBDF
:1040E000577115EB4C254FEA816141EA92114FEA75
:1040F00082624FEAD13742EA901206FB07FC44F194
:1041000000044FEA80604FEA1C4C0CFB0BF7D21BFB
:1041100003FB0CF761EB07010CFB0EF7B0EB07405C
:1041200072EB17420CFB08F734BFA2EB0742B2EB6D
:10413000074261EB174115EB1C154FEA813141EA4B
:1041400092414FEA823242EA90424FEA80304FEA8F
:104150000C7644F1000448EA03434EEA0B484FF062
:10416000000EB2EB080C71EB030724BF6246394620
:104170004EEB0E0E4FF0000B0018524149414BEB35
:104180000B0BB2EB080C71EB03077BF1000B24BFA8
:10419000624639464EEB0E0E4FF0000B00185241AE
:1041A00049414BEB0B0BB2EB080C71EB03077BF1B6
:1041B000000B24BF624639464EEB0E0E51EA020751
:1041C00018BF46F0010616EB0E7655F1000254F1C9
:1041D000000103D5BDE88901BDE80088BDE889017B
:1041E000BDE80048B619524141EB0101A3F10103BA
:1041F000704780807F7E7D7C7B7A79787776767554
:104200007473727171706F6E6E6D6C6C6B6A6A69CB
:104210006868676666656464636362616160605F65
:104220005F5E5E5D5D5C5C5B5B5A5A5959585857DE
:104230005756565555555454535352525251515046
:1042400050504F4F4F4E4E4D4D4D4C4C4C4B4B4B99
:104250004A4A4A49494948484847474747464646DF
:10426000454545444444444343434342424242411A
:104270004141002B26D4770021D01CB54FEA3707E7
:1042800003B44FF010004FF010014FF000000FBCCE
:10429000BDE810400BF1010BBBF1010F08BF5FEA55
:1042A000170722BF12F1010211F101014FF0004185
:1042B00043F1000300F0004043EA00007047F9D3E7
:1042C0005708DAE746EA064613F1400F4FEA16466A
:1042D0001FDD13F1200FDFBF16430A4600212033F4
:1042E0005B42C8D0C3F1200746EA064602FA07F748
:1042F0004FEA164646EA0706C3F1200722FA03F200
:1043000001FA07F721FA03F14FF0000342EA07022E
:10431000B1E746EA020646EA06464FEA164646EA8C
:104320000106BCBF46EA0646360C4FF000034FF0CC
:1043300000024FF000019EE72DE9C048934630B4DB
:1043400091E8380007C831EA400C48BF34EA430C12
:1043500003D5FFF7F2FDFFF78CFFF0BCBDE8008846
:104360002DE9C048934630B491E8380007C810F0F2
:10437000804F08BF13F0804F03D100F005F8FFF71E
:1043800078FFF0BCBDE8008820F07F4780EA03009A
:1043900023F07F4C07EB0C03A3F57C5300F00040A7
:1043A000A3F1FE0392F0000F00F0B38095F0000F30
:1043B00000F077802DE901494FEA11404FEA144699
:1043C00021EA004800FB06FC24EA064708FB06F643
:1043D00007FB08F800FB07F718EB06484CEB164CF8
:1043E0004FEA124B18EB07484FEA15464CEB1740C3
:1043F00022EA0B4E0BFB06FC25EA06470EFB06F6EF
:1044000007FB0EFE0BFB07F71EEB064E4CEB164CA4
:104410004FF000061EEB074E4CEB174B18EB0B084A
:1044200040F1000018EB0E0B58EB000840F10000C3
:104430008F1A4FF000013CBFC943661B14BFB5EB98
:10444000040C00213CBFC943F61B4FEA17444EEA57
:104450008E0E27EA04454FEA1C4704FB07622CEA4C
:10446000074C05FB07F70CFB05F604FB0CFC16EBF1
:10447000074642EB174216EB0C4642EB1C421BEB85
:10448000060658EB0202414146EA9E0601D5BDE808
:104490000189B619524141EB0101A3F10103BDE8C5
:1044A00001894FEA14454FEA114724EA054621EAFB
:1044B000074C05FB07F406FB07F70CFB06F105FBB1
:1044C0000CFC11EB074144EB17444FEA124711EB88
:1044D0000C4144EB1C4422EA074C05FB07F206FBA7
:1044E00007F70CFB06F605FB0CFC16EB074642EB48
:1044F000174216EB0C4642EB1C456A1854F10001BA
:1045000048BF7047B619524141EB0101A3F10103C5
:10451000704795F0000F37D04FEA11424FEA144729
:1045200021EA024624EA074C02FB07F106FB07F7E3
:104530000CFB06F402FB0CFC14EB074441EB1741A7
:104540004FEA154714EB0C4441EB1C4125EA074C9C
:1045500002FB07F506FB07F70CFB06F602FB0CFC5B
:1045600016EB074645EB174516EB0C4645EB1C4290
:10457000121951F1000148BF7047B619524141EB81
:104580000101A3F1010370474FEA14454FEA1147B7
:1045900024EA054621EA074C05FB07F106FB07F76D
:1045A0000CFB06F24FF0000605FB0CFC12EB074279
:1045B00041EB174112EB0C4251EB1C4148BF7047D5
:1045C000921841EB0101A3F101037047490050EA41
:1045D000C12018BF04204A0D18BF40F0010040F26E
:1045E000FF72B2EB515F08BF40F00200012808BF24
:1045F0000520704730380A2801D20120704700207A
:104600007047000010B500290AD00878002807D0AC
:1046100005487844FFF7D8FB002801D0002010BDE2
:104620000248784410BD0000A21B00009A1B000045
:1046300021F00042A2F16052B2F5801F01F0004368
:1046400028BFD2F17F6C0BD95FEA001C43EAC2029B
:1046500042EB507018BF704728BF20F00100704730
:10466000B2F5801FBCBF184670474FEA410C1CF5DD
:10467000001F02D2084600F0A4BB70B500F0DEF8BF
:1046800000000089FFF7F6BF4FF00040A0F5800062
:10469000704710F0004248BF4042B0FA80F310FA71
:1046A00003F10AD0C3F11D0303F580634FEA4150C3
:1046B00002EB035202EBD12170474FF0000070472C
:1046C000B0FA80F310FA03F10AD0C3F11D0303F529
:1046D00080634FEA41504FEA035202EBD121704709
:1046E0004FF0000070470000DFF848C170B51CEAC9
:1046F000111E1EBF1CEA13159EEA0C0F95EA0C0F43
:1047000000F06F8081EA030423EA4C134EEAD47E62
:1047100021EA4C1141F4801143F48013AE44A1FB13
:10472000024CA0FB0365AEF17F7E361955EB0C05FC
:10473000A1FB034C4CF10003A0FB021C16EB0C0682
:10474000654153F10003094218BF46F0010613F416
:10475000007F0BD14FEA03314FEA0530340341EAC1
:10476000155140EA16506FF003020AE04FEAC321E8
:104770004FEAC520F40241EA555140EA56506FF025
:10478000020202EB2E4201EB025585EACE710AD0FD
:104790005FEA440C18BF24F0004450F1000041F1DE
:1047A000000120EAD47040F2FE7C624500D270BD68
:1047B000A84214BF4FF080444FF04044002E08BF81
:1047C0000024BEF1806FA8BFA1F1C041BDE87040D8
:1047D00080F282804FF0000001F1C04101F0004101
:1047E00070479EEA0C0F0CEA131518BF95EA0C0FE0
:1047F00006D04FF0000081EA030E0EF0004170BDBC
:1048000000F01CF88900013E00F007B800F009B87C
:104810004FEA430C5FEA5C5C08D081EA030100F0D8
:104820005BB84FEA410C5FEA5C5CF6D14FF00000E8
:10483000014970470000FF070000F87F0EF1020EEB
:104840002EF0030E5EF8046B364205D4012A43EBCA
:10485000030515F5001F12D8012841EB010C1CF5CA
:10486000001F0CD80ED14FEAD17C15F5001F0CEBC0
:104870004C0C0CF1020C08BF4CEBD37C04E04FF065
:10488000080C01E04FEAD37C0CEB4C0526FA05F648
:1048900006F00706B6F1040C06D20EEB860CBDE856
:1048A00070404CF0010C6047DFE80CF0090B02028D
:1048B0004FF000414FF00000A1F5002170BD1946F6
:1048C0001046012851EB010418BFD4F5001484BF31
:1048D000002001F0004170BD0808A0F500114FEA6A
:1048E0003101704743004FEAD30C4FEA3C0C434080
:1048F0001FBF40070CF1605113F0FE4F70471CF0D2
:10490000006F03D100200CF0004170470CF0004311
:1049100043EA507010B540EACC0000F00CFA00BF3A
:10492000000000924FEA0001FFF7D6BF4FF00041B0
:104930004FF00000A1F500217047000090EA010F40
:1049400048BF81F0004100F17A82421A3CBF801AD0
:1049500089184FEAD0524FF07F4C1CEA410FA2EB6E
:10496000D15318BF9CEA026F00F03B804FF0004C1F
:104970004CEA00204CEA012121FA03FC10EB0C0C5C
:104980001ED202F1FF325FEA1C2040EBC25038BF5A
:1049900070471CF07F0F4FEA400C18BFBCF17F4FEF
:1049A00038BF7047C3F12003994008BF20F00100D1
:1049B000BCF17F4F38BF7047A0F1C04000F001BA92
:1049C0004FEA3C00000A40EBC25028BF1CF0FF0F2A
:1049D0004FEA400CE6D018BFBCF17F4F38BF70479C
:1049E000EAE79CEA026F05D010EA5C0F08BF00F00E
:1049F0000040704710B500F09EF900BF64FBBE3E5A
:104A0000401058BFC0F14040491058BFC1F140416B
:104A10008142EFF3008070474FF47F0C1CEAD01204
:104A20001EBF1CEAD11392EA0C0F93EA0C0F00F0A0
:104A3000858090EA010F48BF42F4807240F4000C78
:104A400041F400002CF07F4120F07F4000B581420E
:104A5000A2EB03020FF2081CACEB504EC0F10000B9
:104A60009EF800E04FEA4E0E00FB0EFC38BF4900F6
:104A70004FEA2C1C02F5FA020CFB0EF34FEACE1E95
:104A80004FEA112C4FEAC1210EEB635E42EB22424A
:104A90000EFB0CFC4FEA1C5300FB03114FEA112CD8
:104AA0004FEA01310EFB0CFC4FEADC4C00FB0C1111
:104AB000C14228BF09184CEB03335DF804EB10EB3F
:104AC000410143EBC250B2F57C0F38BF704729D586
:104AD00012F0F00F1CBF00F1C04000F00040704722
:104AE000008182838485868788898B8C8D8E8F91C7
:104AF0009293959697999A9C9D9FA0A2A3A5A7A8EB
:104B0000AAACAEB0B2B3B5B7B9BCBEC0C2C5C7C916
:104B1000CCCED1D4D7D9DCDFE2E6E9ECF0F3F7FA7A
:104B2000FE0000004FEA400C0CF1807CBCF17E4F8F
:104B300028BF7047B0F1C04000F043B990EA010FC0
:104B40000CEAD11348BF42F48072624538BF634516
:104B500007D213F47F0F16D080EA010000F0004066
:104B6000704710B500F0E7F8097EFC3E00F005B88C
:104B700080EA010000F00040704780EA010000F088
:104B8000004000F01EB912F47F0F04BF02487047C6
:104B900080EA010000F015B90000C07F10F000416C
:104BA00048BF4042B0FA80F310FA03F2C3F19D030C
:104BB0000BD051EAC35101EB1220530638BF7047A6
:104BC00000F1010008BF20F00100704750EA010C1D
:104BD00000F113801CF5000F58BFBCF5000F01D485
:104BE0008842704707D710F5000F58BF11F5000F26
:104BF00015D488427047894270471CF5000F04D5D0
:104C0000BCF5000FF7D5814270474FF0807C1CEB5C
:104C1000400F38BF1CEB410F01D28142704710B5E5
:104C200000F089F8922449004FF000504FF0805175
:104C3000FFF7E6BE4FF47F0C1CEAD0121EBF1CEA41
:104C4000D11392EA0C0F93EA0C0F00F0478090EA20
:104C5000010F48BF42F480724FF0004C4CEA002034
:104C60004CEA012102EB0302A0FB0113A2F50002B2
:104C7000002918BF43F001035B0028BF4FEA33034C
:104C800042EB22425FEA132C4CEBC2502EBFBCEB2E
:104C9000436FB2F57C0F70474FEA036CBCF1004FD5
:104CA00008BF20F00100B2F57C0F38BF70470BD56C
:104CB00082F0FF0212F5803FC8BF704700F1C0408C
:104CC000D8BF00F00040704700F5000C5FEA4C0CC4
:104CD00048BF7047B0F1C04000F073B890EA010FD0
:104CE0000CEAD11348BF42F48072624538BF634575
:104CF00004D280EA010000F00040704710B500F0D7
:104D00001AF800BF8900013E00F007B800F009B8AA
:104D10005FEA410C5FEA1C6C08D080EA010000F0F9
:104D200050B85FEA400C5FEA1C6CF6D14FF00040CF
:104D3000A0F5800070470EF1020E2EF0030E5EF813
:104D4000044B244204D44FEA4102B2F17F4F11D800
:104D50004FEA4003B3F17F4F0CD80ED14FEAD07C1D
:104D6000B2F17F4F0CEB4C0C0CF1020C08BF4CEB7A
:104D7000D17C04E04FF0080C01E04FEAD17C0CEB51
:104D80004C0324FA03F404F00704B4F1040C06D233
:104D90000EEB840CBDE810404CF0010C6047DFE8DE
:104DA0000CF0070802024FF00040A0F5800010BD93
:104DB0000846420018BFD2F1807288BF00F0004060
:104DC00010BDFF2141EAD050C005704751EA000CE8
:104DD00000F113801CF5000F58BFBCF5000F01D483
:104DE0008142704707D711F5000F58BF10F5000F2B
:104DF00015D481427047894270471CF5000F04D5D5
:104E0000BCF5000FF7D5884270474FF0807C1CEB53
:104E1000410F38BF1CEB400F01D28842704780EA37
:104E2000010081EA000180EA0100FFF7F8BE0000FE
:104E300090EA010F48BF81F000413FF586AD421A6C
:104E400004D882F00042A0EB020011444FEAD05295
:104E50004FF07F4C1CEA410FA2EBD15318BF9CEAE4
:104E6000026F4AD04FF0004C4CEA00204CEA01217E
:104E700021FA03FCB0EB0C0C0FD412F0FE0F36D06D
:104E80005FEA4C001DD5001240EBC25038BF70479E
:104E90001CF03F0F18BF70470BE0A2F101025FEA60
:104EA0001C2040EBC25038BF70471CF07F0F18BF6A
:104EB0007047C3F12003994014BF401E20F0010049
:104EC000704780084FEA122308BF7047B0FA80FC91
:104ED000A2EB0C02CCF1280C60FA0CF093EA122F32
:104EE00004BF00EBC25070474FEAC3707047130A0B
:104EF0005FEADC1008BF7047F6E79CEA026F04D057
:104F000010EA5C0F08BF0020704710B5FFF713FFD1
:104F100040DFF63E81F000407047FEF7D6BC00004F
:104F20000000000000000000000000000000000081
:104F30000000000000000000000000000000000071
:104F40000000000000000000000000000000000061
:104F50008001800180018001800180018001800149
:104F6000800180018001800180010000000080013B
:104F700080010000000000000000000000000000B0
:104F80000000CC00CC00CC00CC00CC00CC00000059
:104F90000000000000000000000000000000000011
:104FA0000000000000000000000000000000000001
:104FB00000000000000000000000600C600C600CAD
:104FC00030063006FE1FFE1F300638071803FE1F8E
:104FD000FE1F180318038C018C018C0100000000D7
:104FE0008000E003F80F9C0E8C1C8C188C0098003D
:104FF000F801E007800E801C8C188C189C18B80CE7
:10500000F00FE003800080000000000000000000BE
:10501000000000000E181B0C110C110611061103E4
:1050200011039B018E01C038C06C60446044304461
:1050300030441844186C0C380000000000000000D8
:10504000E001F0033807180618063003F001F000FD
:10505000F8009C310E33061E061C061C063FFC732E
:10506000F02100000000000000000000000000002F
:1050700000000C000C000C000C000C000C000000E8
:105080000000000000000000000000000000000020
:105090000000000000000000000000000000000010
:1050A000000200038001C000C0006000600030000A
:1050B0003000300030003000300030003000600040
:1050C0006000C000C000800100030002000000007A
:1050D00020006000C0008001800100030003000682
:1050E0000006000600060006000600060006000393
:1050F000000380018001C00060002000000000006B
:1051000000000000000000000000C000C000D80641
:10511000F807E0013003380700000000000000003D
:10512000000000000000000000000000000000007F
:1051300000000000000000000000800180018001EC
:1051400080018001FC3FFC3F8001800180018001E3
:1051500080010000000000000000000000000000CE
:10516000000000000000000000000000000000003F
:10517000000000000000000000000000000000002F
:10518000800180010001000180000000000000009B
:10519000000000000000000000000000000000000F
:1051A000000000000000E007E00700000000000031
:1051B00000000000000000000000000000000000EF
:1051C00000000000000000000000000000000000DF
:1051D00000000000000000000000000000000000CF
:1051E000C000C0000000000000000000000000003F
:1051F000000C000C0006000600060003000300037C
:105200008003800180018001C000C000C0006000F8
:10521000600000000000000000000000000000002E
:10522000E003F007380E180C0C180C180C180C18AA
:105230000C180C180C180C180C18180C380EF00759
:10524000E00300000000000000000000000000007B
:1052500000018001C001F0019801880180018001F6
:105260008001800180018001800180018001800136
:1052700080010000000000000000000000000000AD
:10528000E003F80F180C0C180C1800180018000C8C
:10529000000600038001C000600030001800FC1F01
:1052A000FC1F0000000000000000000000000000E3
:1052B000E001F807180E0C0C0C0C000C0006C003E3
:1052C000C007000C001800180C180C18180CF80770
:1052D000E0030000000000000000000000000000EB
:1052E000000C000E000F000F800DC00C600C600C55
:1052F000300C180C0C0CFC3FFC3F000C000C000C9C
:10530000000C000000000000000000000000000091
:10531000F80FF80F180018000C00EC03FC071C0E27
:10532000001C0018001800180C181C0C180EF807A8
:10533000E00300000000000000000000000000008A
:10534000C007F00F381C181818000C00CC03EC0F25
:105350003C0E1C1C0C180C180C18181C380EF007EE
:10536000E00300000000000000000000000000005A
:10537000FC1FFC1F000C00060006000380038001D8
:10538000C001C000E000600060007000300030002C
:1053900030000000000000000000000000000000DD
:1053A000E003F007380E180C180C180C3806F0073C
:1053B000F007180C0C180C180C180C18380CF80FF7
:1053C000E0030000000000000000000000000000FA
:1053D000E003F007380E1C0C0C180C180C181C1CE1
:1053E000381EF81BE0190018000C000C1C0EF80702
:1053F000F0010000000000000000000000000000BC
:10540000000000000000000000008001800100009A
:10541000000000000000000000000000000080010B
:1054200080010000000000000000000000000000FB
:10543000000000000000000000008001800100006A
:1054400000000000000000000000000000008001DB
:105450008001000100018000000000000000000049
:10546000000000000000000000000000000000102C
:10547000001C800FE003F8001800F800E003800F24
:10548000001C0010000000000000000000000000F0
:105490000000000000000000000000000000F81FF5
:1054A000000000000000F81F0000000000000000E5
:1054B00000000000000000000000000000000000EC
:1054C00000000000000000000000000000000800D4
:1054D0003800F001C007001F0018001FC007F001CE
:1054E000380008000000000000000000000000007C
:1054F000E003F80F180C0C180C180018000C00062C
:1055000000038001C000C000C00000000000C00017
:10551000C0000000000000000000000000000000CB
:105520000000E00718180420C229224A1144094447
:105530000944094409221113E20C024004201818FE
:10554000E007000000000000000000000000000074
:1055500080038003C006C006C006600C600C3018D3
:1055600030183018F83FF83F1C700C600C6006C013
:1055700006C0000000000000000000000000000065
:10558000FC03FC0F0C0C0C180C180C180C0CFC0772
:10559000FC0F0C180C300C300C300C300C18FC1FAD
:1055A000FC070000000000000000000000000000F8
:1055B000C007F01F38381C300C700660060006006B
:1055C000060006000600060006600C701C30F01F86
:1055D000E0070000000000000000000000000000E4
:1055E000FE03FE0F060E06180618063006300630BB
:1055F000063006300630063006180618060EFE0F76
:10560000FE03000000000000000000000000000099
:10561000FC3FFC3F0C000C000C000C000C00FC1FBD
:10562000FC1F0C000C000C000C000C000C00FC3FDC
:10563000FC3F00000000000000000000000000002F
:10564000F83FF83F18001800180018001800F81F5D
:10565000F81F18001800180018001800180018008B
:105660001800000000000000000000000000000022
:10567000E00FF83F3C780E6006E007C0030003002F
:1056800003FE03FE03C007C006C00EC03CF0F83F97
:10569000E00F00000000000000000000000000001B
:1056A0000C300C300C300C300C300C300C30FC3F1B
:1056B000FC3F0C300C300C300C300C300C300C300B
:1056C0000C3000000000000000000000000000009E
:1056D00080018001800180018001800180018001C2
:1056E00080018001800180018001800180018001B2
:1056F0008001000000000000000000000000000029
:105700000006000600060006000600060006000669
:105710000006000600060006180618063807F00303
:10572000E001000000000000000000000000000098
:1057300006300618060C060606038601C60066003B
:105740007600DE008E0106030606060C06180630FB
:1057500006600000000000000000000000000000E3
:105760001800180018001800180018001800180079
:105770001800180018001800180018001800F81F6A
:10578000F81F000000000000000000000000000002
:105790000EE01EF01EF01EF036D836D836D836D8B9
:1057A00066CC66CC66CCC6C6C6C6C6C6C6C686C3EA
:1057B00086C30000000000000000000000000000A0
:1057C0000C301C303C303C306C306C30CC30CC3049
:1057D0008C310C330C330C360C360C3C0C3C0C3836
:1057E0000C3000000000000000000000000000007D
:1057F000E007F81F1C380E70066003C003C003C02A
:1058000003C003C003C003C006600E701C38F81F3D
:10581000E0070000000000000000000000000000A1
:10582000FC0FFC1F0C380C300C300C300C300C18FA
:10583000FC1FFC070C000C000C000C000C000C0002
:105840000C0000000000000000000000000000004C
:10585000E007F81F1C380E70066003E003C003C0A9
:1058600003C003C003C007E006630E3F1C3CF83FC3
:10587000E0F700C000000000000000000000000091
:10588000FE0FFE1F06380630063006300638FE1FB3
:10589000FE0706030606060C061806180630063034
:1058A0000660000000000000000000000000000092
:1058B000E003F80F1C0C0C180C180C001C00F8036B
:1058C000E00F001E0038063006300E301C1CF80FAA
:1058D000E0070000000000000000000000000000E1
:1058E000FE7FFE7F800180018001800180018001B8
:1058F00080018001800180018001800180018001A0
:105900008001000000000000000000000000000016
:105910000C300C300C300C300C300C300C300C30A7
:105920000C300C300C300C300C300C301818F81FC8
:10593000E007000000000000000000000000000080
:1059400003600630063006300C180C180C18180CC2
:10595000180C380E30063006700760036003C00173
:10596000C001000000000000000000000000000076
:105970000360C361C361C3616633663366336633F4
:10598000663366336C1B6C1B6C1B2C1A3C1E380E6A
:10599000380E0000000000000000000000000000C1
:1059A0000FE00C7018303018700C600EC0078003C8
:1059B0008003C003E006700C301C18180C300E6019
:1059C00007E00000000000000000000000000000F0
:1059D00003C006600C301C383818300C6006E00735
:1059E000C00380018001800180018001800180016D
:1059F0008001000000000000000000000000000026
:105A0000FC7FFC7F006000300018000C00060003E3
:105A10008001C0006000300018000C000600FE7F0E
:105A2000FE7F0000000000000000000000000000F9
:105A3000E003E00360006000600060006000600060
:105A40006000600060006000600060006000600056
:105A50006000600060006000E003E0030000000000
:105A600030003000600060006000C000C000C00076
:105A7000C0018001800180010003000300030006D3
:105A80000006000000000000000000000000000010
:105A9000E003E0030003000300030003000300032E
:105AA00000030003000300030003000300030003DE
:105AB0000003000300030003E003E0030000000014
:105AC0000000C001C00160036003600330063006BF
:105AD000180C180C0000000000000000000000007E
