:020000040800F2
:10000000E004002001010008090100080B010008BC
:100010000D0100080F010008110100080000000098
:1000200000000000000000000000000013010008B4
:10003000150100080000000017010008C93400087D
:100040001B0100081B0100081B010008A93900085A
:100050001B0100081B0100081B0100081B01000810
:100060001B0100081B0100081B0100081B01000800
:100070001B0100081B0100081B0100081B010008F0
:100080001B0100081B0100081B0100081B010008E0
:100090001B0100081B0100081B0100081B010008D0
:1000A0001B0100081B0100081B0100081B010008C0
:1000B000693200081B0100081B0100081B01000831
:1000C0001B0100081B0100081B0100081B010008A0
:1000D0001B0100081B0100081B0100081B01000890
:1000E0001B0100081B0100081B010008DFF80CD0F1
:1000F00003F0B8FC00480047CB2A0008E0040020C9
:100100000648804706480047FEE7FEE7FEE7FEE7B1
:10011000FEE7FEE7FEE7FEE7FEE7FEE70302000874
:10012000ED0000080CB50020019000906C480068BC
:1001300040F480306A49086000BF6948006800F4F4
:10014000003000900198401C0190009818B9019867
:10015000B0F5A06FF1D16248006800F4003010B132
:100160000120009001E0002000900098012843D178
:100170005C48006840F010005A4908600846006872
:1001800020F0030008600846006840F002000860A4
:1001900053484068524948600846406848600846ED
:1001A000406840F4806048600846406820F47C1055
:1001B00048600846406840F4E81048600846006817
:1001C00040F08070086000BF4548006800F0007093
:1001D0000028F9D04248406820F0030040494860B8
:1001E0000846406840F00200486000BF3C48406854
:1001F00000F00C000828F9D10CBD10B5FFF792FFF4
:1002000010BD10B53648006840F001003449086060
:10021000084640683449084031494860084600684B
:10022000324908402E4908600846006820F48020C2
:1002300008600846406820F4FE0048604FF41F0044
:100240008860FFF7DAFF4FF000602949086010BDB1
:1002500010B5002100200022214B5B6803F00C0147
:1002600021B1042906D0082928D107E0214B224CCE
:10027000236027E01F4B204C236023E0184B5B6872
:1002800003F47010164B5B6803F48032022303EB17
:10029000904022B9194B4343174C23600DE0104B9B
:1002A0005B6803F4003323B1144B4343124C2360C7
:1002B00003E0104B4343104C236003E00D4B0E4C06
:1002C000236000BF00BF064B5B68C3F303130C4CF5
:1002D000E15C094B1B68CB40074C236010BD00005C
:1002E00000100240002002400000FFF8FFFFF6FE71
:1002F00008ED00E000127A000000002000093D0037
:100300000400002010B50446CC48844208D10121E5
:10031000042000F02DFB0021042000F029FB46E022
:10032000C748844208D10121082000F021FB0021A8
:10033000082000F01DFB3AE0C248844208D10121A8
:10034000102000F015FB0021102000F011FB2EE022
:10035000BD48844208D10121202000F009FB002182
:10036000202000F005FB22E0B848844208D101219A
:10037000402000F0FDFA0021402000F0F9FA16E0DC
:10038000B348844208D10121802000F0F1FA002115
:10039000802000F0EDFA0AE0AE48844207D1012146
:1003A000801500F0E5FA0021A01500F0E1FA10BD7B
:1003B00010B50121084600F0DBFA0021012000F011
:1003C000D7FA10BD2DE9F041024600250026002095
:1003D00000230024002791F803C00CF00F0591F8CA
:1003E00003C00CF0100CBCF1000F03D091F802C058
:1003F0004CEA050591F800C0BCF1000F31D014683B
:1004000000202BE04FF0010C0CFA00F3B1F800C013
:100410000CEA03069E4220D183004FF00F0C0CFA29
:1004200003F7BC4305FA03FC4CEA040491F803C04B
:10043000BCF1280F06D14FF0010C0CFA00FCC2F8F9
:1004400014C00AE091F803C0BCF1480F05D14FF089
:10045000010C0CFA00FCC2F810C0401C0828D1D3D3
:100460001460B1F800C0BCF1FF0F34DD5468002007
:100470002EE000F1080C4FF0010808FA0CF3B1F877
:1004800000C00CEA03069E4221D183004FF00F0CFE
:100490000CFA03F7BC4305FA03FC4CEA040491F898
:1004A00003C0BCF1280F05D100F1080C08FA0CF8C4
:1004B000C2F8148091F803C0BCF1480F07D100F1D5
:1004C000080C4FF0010808FA0CF8C2F81080401C24
:1004D0000828CED35460BDE8F0814FF6FF7101804B
:1004E000022181700421C170704702460020936888
:1004F0000B400BB1012000E00020704701468868E6
:1005000080B2704702460020D3680B400BB1012037
:1005100000E0002070470146C86880B27047016162
:100520007047416170470AB1016100E04161704765
:10053000C16070474FF480320A43826181618261F9
:1005400082698269704702460020434B18684FF663
:100550008073184040EA021008433F4B1860704710
:100560003E49C8617047F0B50A46002300240021C7
:10057000002500F00046B6F1004F02D1364EF16979
:1005800001E0354E7168C0F3034583B200F44016B4
:10059000B6F5401F08D121F070612F4E766826F025
:1005A00070662D4F7E6012E000F48016B6F5801F55
:1005B00006D1032606FA05F4A14341F0706106E076
:1005C000460D360103FA06F6B14341F0706122B1DF
:1005D000460D360103FA06F6314300F00046B6F147
:1005E000004F02D11C4EF16101E01B4E7160F0BD65
:1005F00030B500228B071C0F0F2303FA04F2164BB1
:1006000008338C1053F824309343134C08348D1066
:1006100044F8253023468C1053F824308C07240FDF
:1006200000FA04F423430C4C08348D1044F82530B0
:1006300030BD0A49DC310860704700000008014005
:10064000000C01400010014000140140001801405E
:10065000001C014000200140000001400000204239
:10066000DF48006840F00100DD4908600846406846
:10067000DC490840DA49486008460068DA49084021
:10068000D74908600846006820F4802008600846C2
:10069000406820F4FE0048604FF41F0088607047F7
:1006A000CF49096821F48031CD4A116011460968AB
:1006B00021F480211160B0F5803F03D0B0F5802F88
:1006C0000ED106E0C649096841F48031C44A116080
:1006D00007E0C349096841F4A021C14A116000E064
:1006E00000BF00BF704710B5014600220023002064
:1006F0004A11012A02D1BA4C236806E0022A02D12B
:10070000B74C236A01E0B64C636A01F01F02012472
:1007100094401C400CB1012000E0002010BD38B511
:10072000002000900024002500BF3120FFF7DBFFF0
:1007300005460098401C00900098B0F5A06F01D0CD
:10074000002DF2D03120FFF7CEFF08B1012400E0E8
:100750000024204638BD01460020A14A106820F040
:10076000F80040EAC10010607047A0490860704777
:10077000024600209A4B586820F47C1042EA01039C
:100780001843974B58607047984908667047014670
:100790000020934A506820F00300084350607047DF
:1007A0008F48406800F00C007047014600208C4ADA
:1007B000506820F0F0000843506070470146002068
:1007C000874A506820F4E060084350607047014653
:1007D0000020834A506820F4605040EAC100506015
:1007E000704729B17E4A527A02437D4B5A7204E027
:1007F0007B4A527A82437A4B5A7270477B49D8318E
:100800000860704701460020754A506820F4404057
:100810000843506070470021714A20321170704ABD
:1008200082F82010012802D004280AD104E0012116
:100830006B4A2032117005E00521694A203211709F
:1008400000E000BF00BF7047694908607047644915
:10085000096A0143624A1162704765494439086078
:10086000704730B500210022002400235C4D6D68E4
:1008700005F00C0121B1042905D0082923D105E098
:100880005C4D056022E05B4D05601FE0544D6D68D6
:1008900005F47012524D6D6805F48034022505EBA5
:1008A00092421CB9544D554305600BE04C4D6D68A8
:1008B00005F400351DB1504D5543056002E04D4D26
:1008C0005543056002E04B4D056000BF00BF444D3D
:1008D0006D6805F0F0010909484D6B5C0568DD4065
:1008E00045603F4D6D6805F4E061090A434D6B5C5E
:1008F0004568DD4085603A4D6D6805F46051C90A70
:100900003E4D6B5C4568DD40C560354D6D6805F456
:100910004041890B3A4D6B5CC568B5FBF3F5056149
:1009200030BD29B12E4A526902432D4B5A6104E071
:100930002B4A526982432A4B5A61704729B1284A8F
:1009400092690243264B9A6104E0254A92698243E8
:10095000234B9A61704729B1214AD2690243204B47
:10096000DA6104E01E4AD26982431D4BDA617047A6
:1009700029B11B4AD2680243194BDA6004E0184AD5
:10098000D2688243164BDA60704729B1144A126963
:100990000243134B1A6104E0114A12698243104B5F
:1009A0001A61704712494039086070470F49C8649E
:1009B00070470B49C87170470948406A40F0807021
:1009C00007494862704701460020054A92680A407C
:1009D0000AB1012000E00020704701498872704789
:1009E000001002400000FFF8FFFFF6FE0000424248
:1009F0008004424200127A0000093D0014000020E9
:100A00002400002010B50446FE48844208D101218C
:100A1000C014FFF7ADFF0021E014FFF7A9FFC4E009
:100A2000B4F1804F08D101210846FFF7AEFF002145
:100A30000120FFF7AAFFB8E0F348844208D1012162
:100A40000220FFF7A2FF00210220FFF79EFFACE08B
:100A5000EE48844208D101210420FFF796FF0021CF
:100A60000420FFF792FFA0E0E948844208D1012169
:100A70000820FFF78AFF00210820FFF786FF94E097
:100A8000E448844208D101211020FFF77EFF0021B5
:100A90001020FFF77AFF88E0DF48844208D1012167
:100AA0002020FFF772FF00212020FFF76EFF7CE07F
:100AB000DA48844208D101214014FFF759FF002190
:100AC0006014FFF755FF70E0D548844209D1012139
:100AD000C804FFF74DFF00214FF40020FFF748FF47
:100AE00063E0D048844209D101210805FFF740FFA7
:100AF00000214FF48010FFF73BFF56E0CA488442C4
:100B000009D101214805FFF733FF00214FF4001000
:100B1000FFF72EFF49E0C548844208D1012140205B
:100B2000FFF733FF00214020FFF72FFF3DE0C048D3
:100B3000844208D101218020FFF727FF0021802077
:100B4000FFF723FF31E0BB48844208D10121801523
:100B5000FFF71BFF0021A015FFF717FF25E0B648A0
:100B6000844209D101210804FFF702FF00214FF45C
:100B70008030FFF7FDFE18E0B048844209D1012122
:100B80004804FFF7F5FE00214FF40030FFF7F0FEB8
:100B90000BE0AB48844208D101218804FFF7E8FE4E
:100BA00000214FF48020FFF7E3FE10BD00220288F1
:100BB000944B98420ED0994B98420BD0B0F1804F95
:100BC00008D0914B984205D0904B984202D0904B60
:100BD000984204D14FF68F731A404B881A438D4BBD
:100BE000984207D08C4B984204D04FF6FF431A40EE
:100BF000CB881A4302808B8883850B880385814BC1
:100C000098420BD0854B984208D08B4B984205D028
:100C10008A4B984202D08A4B984201D10B7A0386C4
:100C200001238382704770B5002400220023058CC5
:100C30004FF6FE7635400584028C8388048B4FF690
:100C40008F752C40B51E2C400D882C43751E2A40F4
:100C50000D892A434D882A436A4DA8420BD06F4D17
:100C6000A84208D0744DA84205D0744DA84202D0C5
:100C7000734DA84213D14FF6F7752A404D892A4388
:100C80004FF6FB752A408D882A434FF6FF652B40AF
:100C90004FF6FF552B408D892B43CD892B43838005
:100CA0000483CD888586028470BD70B5002400223F
:100CB0000023058C4FF6EF7635400584028C83883F
:100CC000048B48F6FF752C404FF6FF452C400D88ED
:100CD0004FF6FF7606EA05252C434FF6DF752A40CE
:100CE0000D8906EA05152A434D8806EA05152A43AB
:100CF000444DA84202D0494DA8421DD14FF67F7500
:100D00002A404D894FF6FF7606EA05152A434FF62D
:100D1000BF752A408D8806EA05152A434FF6FF3530
:100D20002B404FF2FF752B408D8906EA85052B433A
:100D3000CD8906EA85052B4383800483CD8805870A
:100D4000028470BD70B5002400220023058C4FF68C
:100D5000FF6635400584028C8388848B4FF68F753F
:100D60002C404FF6FC752C400D882C434FF6FF5558
:100D70002A400D894FF6FF7606EA05252A434D885D
:100D800006EA05252A431F4DA84202D0234DA8425A
:100D90001DD14FF2FF752A404D894FF6FF7606EAC6
:100DA00005252A434FF6FF352A408D8806EA05259A
:100DB0002A434EF6FF752B404DF6FF752B408D896B
:100DC00006EA05152B43CD8906EA05152B438380DA
:100DD0008483CD888587028470BD70B5002200238E
:100DE0000024058C4EF6FF7635400584038C8488FC
:100DF000828B48F6FF752A404FF6FF452A400D8842
:100E000020E00000002C01400004004000080040E9
:100E1000000C00400010004000140040003401406D
:100E2000004C0140005001400054014000180040B7
:100E3000001C0040002000400040014000440140F0
:100E4000004801404FF6FF7606EA05252A434DF695
:100E5000FF752B400D8906EA05352B434D8806EAC0
:100E600005352B43FA4DA84202D0FA4DA84208D1CD
:100E70004BF6FF752C408D894FF6FF7606EA8515F7
:100E80002C4384808283CD88A0F84050038470BDB9
:100E9000828B4FF2FF331A408283828B4FF6FF73AF
:100EA00003EA01231A4382837047F0B50C461546C6
:100EB000002200210026078C4EF6FF7C07EA0C0773
:100EC0000784828B018C4FF6FF7707EA043640F6E1
:100ED000FF473A404FF6FF7707EA05273A434FF6B8
:100EE000FF7707EA03373A43D94FB8420ED0D94FBC
:100EF000B8420BD0B0F1804F08D0D74FB84205D0E0
:100F0000D64FB84202D0D64FB84206D14DF6FF7741
:100F1000394046F48057394305E047F6FF573940DA
:100F200044F48057394382830184F0BD828B4FF6AD
:100F3000F3731A408283828B0A4382837047F0B531
:100F40000C461546002200210026078C4FF6FF6C48
:100F500007EA0C070784828B018C4FF6FF7707EABC
:100F600004264FF60C773A404FF6FF7707EA03174F
:100F70002F433A43B64FB8420ED0B64FB8420BD0CB
:100F8000B0F1804F08D0B44FB84205D0B34FB8424B
:100F900002D0B34FB84206D14FF6FF57394046F45E
:100FA0008077394305E04FF2FF57394044F48077AA
:100FB000394382830184F0BD028B4FF2FF331A4024
:100FC0000283028B4FF6FF7303EA01231A43028365
:100FD0007047F0B50C461546002200210026078C0C
:100FE0004FF6EF7C07EA0C070784028B018C4FF663
:100FF000FF7707EA041640F6FF473A404FF6FF77BF
:1010000007EA03373A434FF6FF7707EA05273A43E3
:101010008F4FB8420ED08F4FB8420BD0B0F1804FF7
:1010200008D08D4FB84205D08C4FB84202D08C4FBB
:10103000B84206D14FF6DF77394046F01007394302
:1010400005E04FF65F77394044F0100739430283DB
:101050000184F0BD028B4FF6F3731A400283028BBA
:101060000A4302837047F0B50C4615460022002162
:10107000068C4FF6FE773E400684028B018C4FF6BD
:101080000C7632407E1C06EA03162E433243704E25
:10109000B0420ED06F4EB0420BD0B0F1804F08D0AE
:1010A0006D4EB04205D06D4EB04202D06C4EB04293
:1010B00006D14FF6FD76314044F00106314305E09C
:1010C0004FF6F576314044F0010631430283018446
:1010D000F0BD70B505460C465D4885420ED05D48B2
:1010E00085420BD0B5F1804F08D05B48854205D0D2
:1010F0005A48854202D05A48854200D100E000BFDC
:10110000208850B92389A28861882846FFF7ABFF61
:10111000E1882846FFF79EFF25E0208804280AD1B1
:101120002389A28861882846FFF753FFE188284673
:10113000FFF742FF17E0208808280AD12389A288F8
:1011400061882846FFF7FBFEE1882846FFF7EEFEA0
:1011500009E02389A28861882846FFF7A6FEE18876
:101160002846FFF795FE70BD2DE9F04105460C4677
:1011700000260127608808B9022600E00026A08822
:10118000012801D1022700E001272088A0B9238986
:10119000A28861882846FFF766FFE1882846FFF7A6
:1011A00059FF23893A4631462846FFF712FFE18866
:1011B0002846FFF701FF13E02389A28861882846AB
:1011C000FFF707FFE1882846FFF7F6FE23893A4636
:1011D00031462846FFF747FFE1882846FFF73AFFE8
:1011E000BDE8F0810A884B881A438B881A43CB8864
:1011F0001A430B891A434B891A438B891A43A0F867
:10120000442070474FF6FF71818000210180C1802A
:101210004180017270470021018041808180C1803E
:10122000018141818181C18170470021018041801C
:10123000012181800021C18001817047002101804E
:1012400041808180C180018141818181704700009E
:10125000002C014000340140000400400008004020
:10126000000C004021B1028842F00102028004E03B
:1012700002884FF6FE731A400280704731B1B0F811
:10128000442042F40042A0F8442005E0B0F8442095
:10129000C2F30E02A0F8442070471AB183890B43B1
:1012A000838102E083898B43838170478182704709
:1012B00041EA0203A0F8483070471AB183890B4312
:1012C000838102E083898B438381704701894FF6D4
:1012D000F8721140018170470A46002101894FF6DA
:1012E0008F73194011430181704730B504460D4694
:1012F00029462046FFF7F0FF208940F007002081B3
:1013000030BD2DE9F04104460D4616461F46602DBE
:1013100006D13B46012231462046FFF75AFE05E042
:101320003B46012231462046FFF79DFE29462046D6
:10133000FFF7D2FF208940F007002081BDE8F0814F
:1013400030B50C4600210189C9B24FF6FF7505EA98
:101350000325154325432943018130BD2DE9F04183
:1013600005460E4617469846002443463A463146FF
:101370002846FFF7E5FF2C894FF6F870044044F04B
:1013800007044FF68F70044044F070042C81BDE8D0
:10139000F081F0B504460D4616461F463B463246E0
:1013A00029462046FFF7CCFF208940F48040208169
:1013B000F0BD0185828270470A46002101884FF600
:1013C0008F731940114301807047F0B50C461546E4
:1013D0001E460021002200230189028B038C4FF658
:1013E000F877394021434FF6FC473A4040F2011765
:1013F0003A434FF6DD773B404FF6FF7707EA061793
:101400002F433B43018102830384F0BD0A46002140
:10141000018B4FF68F7319401143018370470A46C1
:101420000021018B48F6FF7319404FF6FF7303EA62
:1014300002231943018370470A460021818B4FF62E
:101440008F7319401143818370470A460021818BB5
:1014500048F6FF7319404FF6FF7303EA022319435E
:101460008183704721B1028842F08002028004E04B
:1014700002884FF67F731A400280704721B182883C
:1014800042F00402828004E082884FF6FB731A4027
:101490008280704721B1828842F00802828004E095
:1014A00082884FF6F7731A408280704721B1828894
:1014B00042F00102828004E082884FF6FE731A40F7
:1014C000828070470A460021018B4FF6F77319405E
:1014D0001143018370470A460021018B4FF2FF73CD
:1014E00019404FF6FF7303EA022319430183704743
:1014F0000A460021818B4FF6F7731940114381830F
:1015000070470A460021818B4FF2FF7319404FF656
:10151000FF7303EA02231943818370470A460021BF
:10152000018B4FF6FB7319401143018370470A4644
:101530000021018B4FF6FF3319404FF6FF7303EA8A
:1015400002231943018370470A460021818B4FF61D
:10155000FB7319401143818370470A460021818B38
:101560004FF6FF3319404FF6FF7303EA0223194386
:10157000818370470A460021018B4FF67F73194023
:101580001143018370470A460021018BC1F30E010C
:101590004FF6FF7303EA02231943018370470A469B
:1015A0000021818B4FF67F7319401143818370476F
:1015B0000A460021818BC1F30E014FF6FF7303EA47
:1015C00002231943818370470A460021018C4FF69C
:1015D000FD7319401143018470470A460021018CB4
:1015E0004FF6F77319401143018470470A460021F2
:1015F000018C4FF6DF7319404FF6FF7303EA0213B5
:101600001943018470470A460021018C4FF67F730D
:1016100019404FF6FF7303EA021319430184704720
:101620000A460021018C4FF6FF5319404FF6FF7315
:1016300003EA02231943018470470A460021018C02
:101640004FF2FF7319404FF6FF7303EA0223194369
:10165000018470470A460021018C4DF6FF73194042
:101660004FF6FF7303EA023319430184704730B524
:10167000002301248C40A3B2048C9C430484048C7A
:1016800002FA01F5ADB22C43048430BD30B500231D
:1016900004248C40A3B2048C9C430484048C02FA7E
:1016A00001F5ADB22C43048430BD70B50346002073
:1016B00000241846183001258D40ACB21D8CA5437E
:1016C0001D8409B1082909D100EB6100056825F0E6
:1016D000700505600568154305600EE00D1FC5F334
:1016E0004E052844056825F4E045056005684FF679
:1016F000FF7606EA02263543056070BD21B10288F7
:1017000042F00202028004E002884FF6FD731A40A4
:101710000280704721B1028842F00402028004E096
:1017200002884FF6FB731A400280704721B182880D
:1017300042F08002828004E082884FF67F731A4074
:101740008280704702884FF6F7731A400280028841
:101750000A430280704782884FF68F731A40828056
:1017600082880A438280704702894FF6F8731A40D4
:10177000028102890A430281704702894FF67F7312
:101780001A40028102890A430281704781847047AE
:1017900081857047818670470187704781877047D0
:1017A000A0F84010704702884FF6FF431A400280AD
:1017B00002880A43028070470146888E70470146BE
:1017C000088F70470146888F70470146B1F8400086
:1017D00070470146888C70470146088D7047024665
:1017E0000020138A0B400BB1012000E0002070475D
:1017F000CA430282704730B502460020002300240D
:10180000158A05EA0103958905EA010413B10CB1B3
:10181000012000E0002030BDCA4302827047000072
:1018200031490143314A1160704770B500210023EE
:101830000F22C47804B32D4C246804F4E064C4F58A
:10184000E064210AC1F10403CA40447804FA03F1B8
:101850008478144021430901254C0678A155047869
:1018600004F01F050124AC4005786D11AD0005F1B1
:10187000E025C5F8004109E0047804F01F050124C3
:10188000AC401C4D0678761145F8264070BD1A4ACA
:101890000A400243154B1B1F1A60704739B1134AA7
:1018A000121D12680243114B1B1D1A6006E00F4AFD
:1018B000121D126882430D4B1B1D1A6070470428CD
:1018C00008D14FF0E021096941F004014FF0E02216
:1018D000116107E04FF0E021096921F004014FF0A8
:1018E000E0221161704700000000FA050CED00E0F5
:1018F00000E400E080E100E080FFFF1F10B5012060
:10190000FFF750F80020FFF74DF810BD2A49086096
:1019100070472949091F08607047274984310860CA
:10192000704701460020254A10884FF67F4210403C
:101930000843224A10807047014600201F4A108841
:101940004FF68072104008431C4A1080704708B55B
:1019500000220092194A2C3A0092009A0244009206
:10196000009A116008BD08B5014600200090134898
:101970002C3800900098084400900098008808BD1A
:101980000D489C300068C0B270470C480830008891
:1019900040F0010009490831088070470648A0302E
:1019A0000068C0B2704705480830008840F0020067
:1019B000024908310880704704860D422C6C0040B3
:1019C00010B501210807FEF7E0FF00214FF080501D
:1019D000FEF7DBFF10BD2A490862704728490861FD
:1019E000704701460020274A106820F0E0000843B5
:1019F000106070472249A0310860704710B5024658
:101A00000020204B186820F00300104318601E4B84
:101A10001B6843F004031C4C2360012901D130BF33
:101A200000E020BF184B1B6823F00403164C236012
:101A300010BD1448006840F00400124908600846D0
:101A4000006840F0020008600F48006840F00400A1
:101A50000D49086000BF00BF30BF7047014600203D
:101A6000084A52680A400AB1012000E0002070478D
:101A70000449096841EA8001024A11607047000088
:101A800000000E420070004010ED00E029B1504A05
:101A9000128802434E4B1A8004E04D4A128882435A
:101AA0004B4B1A8070474A48001D008840F01000D8
:101AB0004749091D088070474548001D00884FF6BA
:101AC000EF7108404249091D0880704700214048D5
:101AD0001C300188001F008841EA0040704700B5B3
:101AE0000246FFF7E0FF100C394918310880091D44
:101AF0000A80FFF7E1FF00BD00B50246FFF7D3FF04
:101B0000C2F30340324908310880091D0A80FFF7FB
:101B1000D3FF00BD00B50246FFF7C5FF100C2C49EE
:101B200020310880091D0A80FFF7C6FF00BD002094
:101B30002749103109880907080B254914310988FC
:101B40000843704700BF2248001D008800F02000B5
:101B50000028F8D070471E48001D00884FF6F77126
:101B600008401B49091D088000BF1948001D008856
:101B700000F008000028F8D0704701460020144A01
:101B8000121D12880A400AB1012000E000207047AF
:101B90000F49091D098881430D4A121D11807047A4
:101BA000014600200A4A121D12880A40D0B2084A93
:101BB00012880A4012B108B1012000E000207047ED
:101BC0000349091D09888143014A121D118070478C
:101BD0000028004010B50446FB48844209D1012189
:101BE0008803FEF7C5FE00214FF48040FEF7C0FEDB
:101BF00032E0F648844209D101214804FEF7C5FECF
:101C000000214FF40030FEF7C0FE25E0F04884428A
:101C100009D101218804FEF7B8FE00214FF480208D
:101C2000FEF7B3FE18E0EB48844209D10121C80455
:101C3000FEF7ABFE00214FF40020FEF7A6FE0BE0FE
:101C4000E548844208D101210805FEF79EFE0021E7
:101C50004FF48010FEF799FE10BD2DE9F04786B0D5
:101C600005460E460024A24600BFA1460027B089C3
:101C700000B100BF2F462C8A4CF6FF700440F0885C
:101C800004432C82AC894EF6F3100440B0883189AD
:101C90000843718908430443AC81AC8A4FF6FF4086
:101CA0000440B0890443AC8201A8FEF7DAFDC648BF
:101CB000874202D1DDF810A001E0DDF80CA0A88970
:101CC00000F4004040B10AEBCA0000EB0A10316892
:101CD0004900B0FBF1F807E00AEBCA0000EB0A107C
:101CE00031688900B0FBF1F86420B8FBF0F0040122
:101CF0002009642101FB1089A88900F4004040B14B
:101D0000322000EBC900B0FBF1F000F00700044303
:101D100008E0322000EB09106421B0FBF1F000F084
:101D20000F0004432C8106B0BDE8F0874FF4165134
:101D3000016000218180C18001810C21418100214D
:101D40008181704710B502460020108A4FF2FF03D0
:101D500018400B884C8823438C882343CC8823432A
:101D60001843108210BD0021018041808180C18014
:101D7000704721B1828942F40052828104E0828955
:101D80004DF6FF731A4082817047F0B50346002478
:101D900000260025002040F66A17B94200D100BF96
:101DA0001846C1F3421401F01F06012707FA06F591
:101DB000012C01D10C3004E0022C01D1103000E0E4
:101DC00014301AB107682F43076002E00768AF4379
:101DD0000760F0BD1AB1838A0B43838202E0838AD5
:101DE0008B4383827047028A4FF6F0731A40028257
:101DF000028A0A430282704782894FF2FF731A40B7
:101E0000828182890A438281704721B1828942F0AE
:101E10000202828104E082894FF6FD731A408281BA
:101E20007047028A4FF6DF731A400282028A0A4321
:101E30000282704721B1028A42F48042028204E0A9
:101E4000028A4BF6FF731A4002827047C1F3080200
:101E50008280704701468888C0F3080070478189F6
:101E600041F0010181817047028BD2B20283028B63
:101E700042EA012202837047028B02F47F4202830E
:101E8000028B0A430283704721B1828A42F020020A
:101E9000828204E0828A4FF6DF731A4082827047A2
:101EA00021B1828A42F01002828204E0828A4FF6D7
:101EB000EF731A408282704721B1828A42F0080291
:101EC000828204E0828A4FF6F7731A40828270475A
:101ED00021B1828942F40042828103E08289C2F307
:101EE0000E028281704721B1828A42F400628282AE
:101EF00004E0828A4FF2FF731A4082827047828A1E
:101F00004FF6FB731A408282828A0A4382827047AC
:101F100021B1828A42F00202828204E0828A4FF674
:101F2000FD731A408282704702460020B1F5007F9F
:101F300000D100BF13880B400BB1012000E000204E
:101F4000704701F40072B2F5007F00D100BFCA43B0
:101F50000280704770B5024600240023002500204F
:101F600040F66A16B14200D100BFC1F3421501F03C
:101F70001F03012606FA03F3012D02D1968933408F
:101F800006E0022D02D1168A334001E0968A3340E2
:101F90000C12012606FA04F41688344013B10CB171
:101FA000012000E0002070BD10B50022002340F6A3
:101FB0006A14A14200D100BF0A1201249440A3B2C6
:101FC000DC43048010BD00000038014000440040A4
:101FD00000480040004C004000500040002109E053
:101FE000002201E0531C9AB240F6B8339A42F9DB62
:101FF0004B1C99B28142F3DB70474FF40072FA4BED
:102000001A6052101A6020221B1F1A60F74AD06013
:1020100020221B1D1A601B1F1A60D2001A60F34A8F
:10202000D16020221B1D1A601B1F1A60D2001A608B
:10203000704700B501210020FFF7DFFF4FF47A70F1
:10204000FFF7CCFF00210120FFF7D7FF41F290718D
:102050001020FFF7D2FF4FF41C516020FFF7CDFF97
:1020600001216120FFF7C9FF02214620FFF7C5FFCC
:1020700048F210011320FFF7C0FF48F2FE011220C2
:10208000FFF7BBFF4FF4A0610220FFF7B6FF41F25C
:1020900030010320FFF7B1FF40F203313020FFF79A
:1020A000ACFF40F203313120FFF7A7FF40F20331CC
:1020B0003220FFF7A2FF4FF440713320FFF79DFF5E
:1020C00003213420FFF799FF40F203313520FFF759
:1020D00094FF14213620FFF790FF40F203313720A0
:1020E000FFF78BFF40F203313820FFF786FF40F205
:1020F00003313920FFF781FF4FF440713A20FFF799
:102100007CFF03213B20FFF778FF40F203313C20A6
:10211000FFF773FF4FF4A0513D20FFF76EFF4FF420
:1021200000719220FFF769FF40F203319320FFF71F
:1021300064FF40F60D019020FFF75FFF41F21801A8
:102140000320FFF75AFF40F273110720FFF755FFF6
:1021500000BD00B543F20801E320FFF74EFF122156
:10216000E720FFF74AFF41F23121EF20FFF745FF5B
:1021700000210120FFF741FF4FF4E0610220FFF74B
:102180003CFF41F230010320FFF737FF002104201C
:10219000FFF733FF40F207210820FFF72EFF002151
:1021A0000920FFF72AFF00210A20FFF726FF002160
:1021B0000C20FFF722FF00210D20FFF71EFF00215A
:1021C0000F20FFF71AFF00211020FFF716FF07214D
:1021D0001120FFF712FF00211220FFF70EFF002150
:1021E0001320FFF70AFF4FF47A70FFF7F7FE41F272
:1021F00090611020FFF701FF40F227211120FFF727
:10220000FCFE3220FFF7EAFE1D211220FFF7F5FE4B
:102210003220FFF7E3FE4FF400611320FFF7EDFEDD
:1022200014212920FFF7E9FE0B212B20FFF7E5FE03
:102230003220FFF7D3FE00212020FFF7DEFE002131
:102240002120FFF7DAFE07213020FFF7D6FE40F20B
:1022500007713120FFF7D1FE06213220FFF7CDFEB6
:1022600040F204713520FFF7C8FE41F604713620B4
:10227000FFF7C3FE04213720FFF7BFFE00213820FF
:10228000FFF7BBFE40F206713920FFF7B6FE40F2C1
:1022900001713C20FFF7B1FE0F213D20FFF7ADFE9D
:1022A00000215020FFF7A9FEEF215120FFF7A5FEE6
:1022B00000215220FFF7A1FE40F23F115320FFF70B
:1022C0009CFE4FF41C516020FFF797FE0121612016
:1022D000FFF793FE00216A20FFF78FFE0021802088
:1022E000FFF78BFE00218120FFF787FE002182206F
:1022F000FFF783FE00218320FFF77FFE002184206B
:10230000FFF77BFE00218520FFF777FE102190204C
:10231000FFF773FE00219220FFF76FFE0321932049
:10232000FFF76BFE4FF488719520FFF766FE0021E2
:102330009720FFF762FE00219820FFF75EFE41F232
:1023400018010320FFF759FE40F273110720FFF731
:1023500054FE00BD08B54FF6FF70ADF80000032035
:102360008DF8020010208DF8030069461F48FEF723
:1023700029F808BD08B54FF6FF70ADF8000003203E
:102380008DF8020048208DF8030069461748FEF7D3
:1023900019F808BD70B504464FF400701249086082
:1023A000401008602020091F08601048C4602020E9
:1023B000091D0860091F0860C0000860FFF7DAFF08
:1023C0004FF48060084908600848806885B20815A5
:1023D000091F0860FFF7BEFF4FF400700249091F94
:1023E0000860284670BD0000140C01400010014038
:1023F00008B501211820FEF7A1FA01212020FEF7DF
:102400009DFA4FF4E460ADF8000001208DF8020061
:1024100010208DF803006946F748FDF7D3FFFFF75A
:1024200099FFF5481030006840F4C460F24910315B
:10243000086008BD10B5FFF7DBFF0020FFF7AAFF1B
:10244000EE4908800846008848F23021884202D1CF
:10245000FFF7EFFD01E0FFF77CFE0020FFF79AFF9A
:10246000E649088010BD01B5BDF80000E4490880C8
:1024700008BD01B5BDF80000E249088008BD30B5CF
:1024800004460D4621462020FFF7B7FD29462120AE
:10249000FFF7B3FD30BD4FF40071D74A143211601D
:1024A0004910121F116020211160D749C8602021F6
:1024B000121D1160121F1160C900116049001160E6
:1024C00070474FF40070CC49143108604010086028
:1024D0002020091F08602220CB49C8602020C6495F
:1024E00014310860091F0860C000086040000860DF
:1024F00070472DE9F043064689461746002400251B
:10250000A046B04649464046FFF7B9FF00BF1EE06F
:10251000FFF7D7FF00250FE037F814000121A9408D
:10252000084020B9B7480088FFF7B5FF03E0B4487A
:102530000088FFF7B0FF6D1C102DEDD308F10100EE
:1025400000F0FF0849464046FFF799FF641C182C2D
:10255000DED3BDE8F08370B505460E461446A4F1FF
:102560002000C4B204EB4400A84901EB001231463C
:102570002846FFF7BEFF70BDF0B507460C460025A4
:1025800040F23F1609E0227831463846FFF7E3FF74
:10259000A6F1100086B2641C6D1C207808B1142DC1
:1025A000F1D3F0BD10B5044699A12046FFF7E4FF32
:1025B00010BD30B50546002400210846FFF75FFF37
:1025C000FFF77FFF00BF03E02846FFF764FF641CAE
:1025D000B4F5963FF8D330BDF0B507460C4600255C
:1025E00040F2371609E0227831463846FFF7B3FF4C
:1025F000A6F1100086B2641C6D1C207808B1142D61
:10260000F1D3F0BDF0B504460D4616461F46B44260
:1026100006DBA01B401C81B25020FFF7EEFC03E05C
:1026200000215020FFF7E9FC21465120FFF7E5FC8F
:10263000BD4206DBE81B401C81B25220FFF7DDFCE7
:1026400003E000215220FFF7D8FC29465320FFF772
:10265000D4FC29462046FFF712FFF0BD00B54FF429
:10266000A073F022591EEF20FFF7CCFF41F21801B2
:102670000320FFF7C2FC00BD2DE9F0410646884665
:1026800015461F46002441463046FFF7F8FE5FB965
:10269000FFF717FF00BF04E059480088FFF7FBFE73
:1026A000641CAC42F8D310E000240CE0FFF709FFF3
:1026B00053480088FFF7EFFE701CC6B24146304613
:1026C000FFF7DDFE641CAC42F0D3BDE8F081F0B54D
:1026D00005460E4617461C4600232246314628462C
:1026E000FFF7CAFFE919C8B2002322463146FFF7B7
:1026F000C3FF01233A4631462846FFF7BDFF301B92
:10270000401C81B201233A462846FFF7B5FFF0BDD1
:102710002DE9F04306460F4690460320A0EB4809FA
:102720000024454687E07A1991B23219D0B2FFF7FA
:10273000A6FEFFF7C6FE32480088FFF7ACFE7A1B04
:1027400091B23219D0B2FFF79AFEFFF7BAFE2C48C9
:102750000088FFF7A0FE7A1991B2321BD0B2FFF7C2
:102760008EFEFFF7AEFE26480088FFF794FE7A1B28
:1027700091B2321BD0B2FFF782FEFFF7A2FE2048D3
:102780000088FFF788FE3A1991B27219D0B2FFF7AC
:1027900076FEFFF796FE1A480088FFF77CFE3A1B8C
:1027A00091B27219D0B2FFF76AFEFFF78AFE1448A1
:1027B0000088FFF770FE3A1991B2721BD0B2FFF792
:1027C0005EFEFFF77EFE0E480088FFF764FE3A1BB0
:1027D00091B2721BD0B2FFF752FEFFF772FE0848AB
:1027E0000088FFF758FEB9F1000F1DDA062000EB54
:1027F000840081441EE00000000C01402C000020F9
:10280000280000202A000020001001402E3C000873
:1028100020202020202020202020202020202020B8
:102820002020202000000000601B0A2101EB800016
:1028300081446D1E641CAC427FF675AFBDE8F08329
:1028400070B506460024002540F23F110020FFF736
:1028500016FEFFF736FE00BF14E000250FE056F825
:1028600024000121A940084020B95F480088FFF7F3
:1028700012FE03E05D480088FFF70DFE6D1C202D61
:10288000EDD3641CB4F5166FE7D370BD70B5044684
:10289000002500266688A08846EA00466589A0894A
:1028A00045EA0045701B46082C4441F2080103200C
:1028B000FFF7A3FBFFF705FE002504E02088FFF7E4
:1028C000EAFDA41C6D1CB542F8D341F218010320A7
:1028D000FFF793FB70BD10B54FF4007044490860DA
:1028E000401008602020091F086022204149C8606C
:1028F00020203F490860091F0860C0000860FFF7FA
:1029000039FD4FF480603A4908603A48806884B2E3
:102910000815091F0860FFF71DFD4FF400703449CA
:10292000091F0860204610BD00B500211020FFF7E8
:1029300064FB00211120FFF760FB00211220FFF74C
:102940005CFB00211320FFF758FB1420FFF746FB28
:1029500041F2B0711020FFF750FB40F23711112007
:10296000FFF74BFB0520FFF739FB40F2391112202E
:10297000FFF743FB0520FFF731FB4FF4E85113202D
:10298000FFF73BFB13212920FFF737FB0520FFF75B
:1029900025FB40F273110720FFF72FFB00BD00B5A8
:1029A00040F273110720FFF728FB00BD00B500219E
:1029B0000720FFF722FB00BD30B505460021084681
:1029C000FFF75DFDFFF77DFD002409E015F81420F9
:1029D0006100491C695C42EA0120FFF75CFD641C50
:1029E000B4F5963FF2DB30BD2A000020280000201D
:1029F000140C014000100140FD49086000BFFC4973
:102A000009680029FBD17047FA480068012805D100
:102A1000F948C06840F48070F749C860F74800681A
:102A200040F00400F54908600846006820F0040002
:102A30000860F0480068022805D1EF48C06840F4FB
:102A40000070ED49C860ED48006840F00400EB49B3
:102A500008600846006820F004000860E548006847
:102A6000032805D1E448C06840F48060E249C860AA
:102A7000E248006840F00400E04908600846006849
:102A800020F004000860DB480068042805D1DA481B
:102A9000C06840F40060D849C860D848006840F079
:102AA0000400D64908600846006820F00400086069
:102AB000704700B5024603E040F28A20FFF79CFF12
:102AC000101EA2F10102F7D100BDCD4800684FF4FD
:102AD0007A72B0FBF2F1481EB0F1807F00D31BE0A8
:102AE000481E4FF0E022506150170F22002807DAED
:102AF00013071D0EC34B00F00F04241F1D5503E0E8
:102B000013071C0EC04B1C5400BF00204FF0E022E6
:102B100090610720106100BFC820FFF76DFF00F033
:102B2000A9FD4FF4E060FEF77BFE00F0FFFC00F033
:102B3000C7FE00F07EFD00F06BFD00F005FEFFF724
:102B400079FC4FF6FF70FFF734FD4FF6FF70FFF78B
:102B500090FC0020FFF787FCACA13020FFF70CFDB4
:102B6000A448B0A10268B44800F08EFFB2496020CA
:102B7000FFF732FD4FF47F4000F02DFD51E3C824F4
:102B80000520AE4908604FF47F4000F024FD9A48CC
:102B9000FDF7C1FCAA4908609648A2A10268A648B0
:102BA00000F072FFA4496020FFF716FDA4480068FA
:102BB00000F011FDFFF728FF73E00120FFF71CFF75
:102BC0000121A048FDF791FCB0B901209E49486061
:102BD0008948C06820F480708749C86087480068C9
:102BE00040F00400854908600846006820F00400B1
:102BF00008600120954908604FF480719148FDF705
:102C000074FCB0B90220904988607B48C06820F409
:102C100000707949C8607948006840F0040077493D
:102C200008600846006820F0040008600120874919
:102C3000086002218648FDF758FCB0B9032082499C
:102C4000C8606D48C06820F480606B49C8606B48FC
:102C5000006840F00400694908600846006820F0F8
:102C60000400086001207949086004217848FDF7D4
:102C70003CFCB0B90420744908615F48C06820F486
:102C800000605D49C8605D48006840F004005B4931
:102C900008600846006820F00400086001206B49C5
:102CA0000860201EA4F1010487D152480068022860
:102CB00002D1062061490860002064490860A8E24A
:102CC000C8244C48006861490968084461490860A3
:102CD0000846006804280FDD464800685B4909681B
:102CE000014444480068594A12681044001F0222F7
:102CF00002FB10105749086077E23E4800685549CA
:102D00000968884273DD10214E48FDF70AFC3948F6
:102D1000006850490968401A4F49086000234FF481
:102D20001672472140F2E73000F068FD01214B4860
:102D3000FEF798FA03204A49086001218807FEF748
:102D400091FA00204749086023E00120FFF7B1FE17
:102D500028480068401E27490860FFF755FE2648AE
:102D6000FDF7D9FB3649086022482EA10268324897
:102D700000F08AFE30496020FFF72EFC30490968D8
:102D800041F4704000F027FC36480068401C35498B
:102D9000086034480068304909688842D5DB002063
:102DA0002F49086000212D48FEF75CFA01202C49CC
:102DB00008604FF416730022232140F2E73000F040
:102DC0001DFD01212548FEF74DFA20211D48FDF784
:102DD000A6FBB420FFF710FE4FF4FA730022232164
:102DE00040F2E73000F00AFD202116483CE0DEE02A
:102DF0003000002038000020001001400C14014079
:102E00000000002018ED00E000E400E02020202079
:102E10002020202048494748202020202020202012
:102E200000000000202020202020202020256420D9
:102E30002020202020202000A80000205800002072
:102E40005C00002000080140600000203C000020E1
:102E5000000C014044000020480000200004004015
:102E6000500000204C000020FDF75BFBB420FFF772
:102E7000C3FD0021EB48FEF7F5F900214FF080403B
:102E8000FEF7F0F90020E8490860E848FDF743FB49
:102E9000E7490860E748AFF274010268E64800F0CD
:102EA000F3FDE5496020FFF797FBE148006800F07B
:102EB00092FB73E00120FFF79FFD0121DF48FDF742
:102EC00014FBB0B90120DE494860D848C06820F43E
:102ED0008070D649C860DB48006840F00400D949DA
:102EE00008600846006820F0040008600120D64908
:102EF00008604FF48071D148FDF7F7FAB0B90220AD
:102F0000CF498860C948C06820F40070C749C860CC
:102F1000CC48006840F00400CA49086008460068D0
:102F200020F0040008600120C74908600221C7485A
:102F3000FDF7DBFAB0B90320C149C860BB48C068DF
:102F400020F48060B949C860BE48006840F00400C1
:102F5000BC4908600846006820F0040008600120B1
:102F6000B94908600421B948FDF7BFFAB0B9042097
:102F7000B3490861AD48C06820F40060AB49C8603F
:102F8000B048006840F00400AE4908600846006898
:102F900020F0040008600120AB490860201EA4F165
:102FA000010487D1AA490860AA49086015E11021E7
:102FB000A248FDF7B4FAA84800689E490968401A7B
:102FC000A649086000234FF44872472140F2E730D9
:102FD00000F014FC01219348FEF744F902209249C5
:102FE000086001214007FEF73DF900209C49086078
:102FF00024E00120FFF75DFD8E480068401C8D49EC
:103000000860FFF701FD8948FDF785FA88490860E7
:103010008848AFF2F0110268874800F035FD864914
:103020006020FFF7D9FA8249096841F4704000F046
:10303000D2FA8B480068401C8949086088480068BB
:10304000864909688842D4DB00207749086000215E
:103050007448FEF707F90120734908604FF41673AE
:103060000022232140F2E73000F0C8FB01216D4827
:10307000FEF7F8F820217148FDF751FAB420FFF768
:10308000BBFC4FF4FA730022232140F2E73000F03A
:10309000B5FB20216948FDF744FAB420FFF7ACFCEA
:1030A00000216048FEF7DEF800214FF08040FEF777
:1030B000D9F800205C4908605C48FDF72CFA5C49AF
:1030C00008605C48AFF2A42102685B4800F0DCFCB9
:1030D00059496020FFF780FA5548006800F07BFAF4
:1030E00073E00120FFF788FC01215448FDF7FDF94A
:1030F000B0B90120524948604C48C06820F4807043
:103100004A49C8604F48006840F004004D490860D3
:103110000846006820F00400086001204A49086061
:103120004FF480714548FDF7E0F9B0B902204449F9
:1031300088603E48C06820F400703C49C86041483F
:10314000006840F004003F4908600846006820F02D
:103150000400086001203C49086002213B48FDF75B
:10316000C4F9B0B903203649C8603048C06820F4BB
:1031700080602E49C8603348006840F0040031493F
:1031800008600846006820F00400086001202E490D
:10319000086004212D48FDF7A8F9B0B9042028499A
:1031A00008612248C06820F400602049C8602548B2
:1031B000006840F00400234908600846006820F0D9
:1031C00004000860012020490860201EA4F10104C9
:1031D00087D11F4908601F4908601F4800681549CA
:1031E000086000201849086007E015481A49096876
:1031F00050F8210000283FF780AD00BF00211048A3
:103200000C4A126840F822100F480068401C0E4912
:1032100008600D480068134909688842FFF650AD00
:1032200000BFACE40004004050000020001001404A
:103230005C00002038000020A800002000080140A9
:10324000600000200C1401403C000020000C0140F4
:10325000940000209000002044000020480000203E
:103260004C0000205800002010B501218807FEF70F
:10327000C2FA00287DD097480068022862D196489B
:103280000068401C9449086008460068642805D11D
:103290009248C06820F480509049C8608E48006809
:1032A000C82805D18D48C06840F480508B49C8605B
:1032B00089480068B0F5967F05D18848C06820F439
:1032C00000508649C86084480068B0F5C87F05D1C1
:1032D0008248C06840F400508049C8607E48006859
:1032E000B0F5FA7F05D17D48C06820F480407B4965
:1032F000C86079480068B0F5167F05D17748C06886
:1033000040F480407549C86073480068B0F52F7F6D
:1033100005D17248C06820F400407049C8606E480A
:103320000068B0F5487F05D16C48C06840F40040A3
:103330006A49C86068480068B0F5617F02D1002022
:103340006549086063480068032864D164480068E0
:10335000401C6349086008460068B0F52F7F05D11E
:103360005E48C06820F480505C49C8605C480068D2
:1033700000E0A8E0B0F5487F05D15848C06840F4A7
:1033800080505649C86056480068B0F5FA7F05D1AC
:103390005248C06820F400505049C8605048006846
:1033A000B0F5167F05D14D48C06840F400504B4938
:1033B000C8604B480068B0F5967F05D14748C068A3
:1033C00020F480404549C86045480068B0F5C87F92
:1033D00005D14248C06840F480404049C860404838
:1033E0000068642805D13D48C06820F400403B498E
:1033F000C8603B480068C82805D13848C06840F418
:1034000000403649C86036480068B0F5617F02D197
:103410000020334908603348006840F00400314917
:1034200008600846006820F0040008602948006829
:10343000012844D12C480068401C2B4908600846EC
:103440000068192190FBF1F028B12748006890FB33
:10345000F1F0022812D12148FDF75DF823490860F8
:10346000234824A10268284800F00EFB264960206A
:10347000FFF7B2F81D48006800F0ADF81A48006880
:10348000192190FBF1F0012805D01748006890FB46
:10349000F1F003280CD11148FDF73DF813490860FD
:1034A0001AA16020FFF768F81048006800F093F850
:1034B0000D480068642802DB00200B4908600121E8
:1034C0008807FEF7A9F910BD17480068401E164985
:1034D00008607047500000208C0000200010014060
:1034E000540000200C140140900000205C000020DB
:1034F00038000020202020202020202020256420AB
:103500002020202020202000A80000202020202093
:1035100020202020202020202020202020202020AB
:1035200020202020000000003000002008B50121EC
:103530000420FDF703FA01210820FDF7FFF901211E
:103540001020FDF7FBF901212020FDF7F7F94820B5
:103550008DF8030040F20110ADF8000003208DF853
:10356000020069462648FCF72DFF10208DF8030065
:10357000B020ADF8000003208DF802006946204815
:10358000FCF720FF48208DF803000620ADF800006E
:1035900003208DF8020069461A48FCF713FF10203B
:1035A0008DF803004FF6FF70ADF8000003208DF892
:1035B000020069461448FCF705FF10208DF803004F
:1035C0000420ADF8000003208DF8020069460F4882
:1035D000FCF7F8FE08BD10B50446A1B20A48FCF796
:1035E000A7FF0A480C30006840F0040007490C317E
:1035F00008600846006820F00400086010BD000064
:1036000000080140000C014000100140001401407E
:1036100008B51C208DF8000000208DF80100032063
:103620008DF8020001208DF803006846FEF7FDF8D2
:1036300008BD0EB501210846FDF78DF940F2E730CF
:10364000ADF804004720ADF800000020ADF80600FA
:10365000ADF8020069464FF08040FDF7A7FA01215E
:103660008807FEF7C5F8012211469007FDF715FE01
:103670000EBD000010B56FF00400FEF720F92E48D3
:1036800000682E49B0FBF1F02D490870084600781B
:1036900000EB4001C1EBC0104FF6FF7101EAC00022
:1036A0002849088010BD0146254A12784A434FF048
:1036B000E0235A6100229A611A46126942F001021F
:1036C0001A6100BF4FF0E022106900F001021AB148
:1036D00000F48032002AF5D04FF0E022126922F087
:1036E00001024FF0E0231A6100229A6170470146FF
:1036F000144A12884A434FF0E0235A6100229A612B
:103700001A46126942F001021A6100BF4FF0E0222E
:10371000106900F001021AB100F48032002AF5D0DD
:103720004FF0E022126922F001024FF0E0231A610B
:1037300000229A61704700000000002000127A0009
:10374000980000209A00002000B585B0012144F2C5
:103750000400FDF7F3F84FF40070ADF810001820E6
:103760008DF8130003208DF8120004A92148FCF7FE
:1037700029FE4FF48060ADF8100004208DF813008E
:1037800004A91C48FCF71EFE4FF4E1300090002015
:10379000ADF80400ADF80600ADF80800ADF80C0077
:1037A0000C20ADF80A0069461348FEF756FA0121CD
:1037B0001148FEF7DEFA05B000BD70B504460D46AF
:1037C000E1B20D48FEF742FB00BF40210A48FEF778
:1037D000ABFB0028F9D0204670BD10B5044600BFF1
:1037E00020210548FEF7A0FB0028F9D00248FEF78B
:1037F00031FB10BD0008014000380140F0B589B030
:1038000007460C4615461E4601210220FDF7A3F887
:1038100001210520FDF792F84020ADF82000182086
:103820008DF8230003208DF8220008A92248FCF718
:10383000C9FD8020ADF8200018208DF8230003205A
:103840008DF8220008A91C48FCF7BCFDADF81870E3
:10385000ADF814400020ADF81A00ADF8160005A927
:103860001648FDF7A3F96020ADF804000120ADF87B
:103870000600A8B2ADF80A000020ADF80C0001A9BE
:103880000E48FDF7D0F908210C48FDF71BFEB0B239
:10389000ADF80A000020ADF80C0001A90748FDF7BB
:1038A00004FA08210548FDF716FE01210348FDF73B
:1038B000D9FD09B0F0BD000000080140000400403F
:1038C00008B501214FF0C050FDF745F80120FEF783
:1038D00082F8FEF713F80120FCF7B6FF00BF612065
:1038E000FCF701FF0028FAD04FF40070FCF7AFFF9F
:1038F0000120FCF7B2FFFEF72EF9FEF723F90121B4
:103900000846FEF7C3F8FEF71DF949F64040FEF7FA
:10391000F3F8FEF717F901210846FEF7B7F8002083
:10392000FEF7DDF8FEF70EF903208DF80000012008
:103930008DF8010000208DF8020001208DF80300B1
:103940006846FDF772FF08BD10B5FEF7BFF82B49BA
:10395000884204D10020FEF7C2F8FEF7F3F82848A9
:1039600000684FF46161B0FBF1F02649086024481B
:1039700000684FF46161B0FBF1F201FB12003C21E1
:10398000B0FBF1F0204908601D4800684FF4616108
:10399000B0FBF1F201FB12003C21B0FBF1F201FBA4
:1039A00012001A49086010BD08B50120FEF7F8F8AA
:1039B00018B313480068401C11490860FFF7C4FFA2
:1039C0001348FCF7A8FD13490860104800680090F0
:1039D0000D4803680B4810A10268164800F054F81F
:1039E0001449A820FEF7C8FD0A480068FFF7F3FD58
:1039F0000120FEF7E5F8FEF7A5F808BD7F510100AC
:103A0000340000209C000020A0000020A400002022
:103A1000001001405C00002020202054696D653AB0
:103A200025302E32643A25302E32643A25302E323B
:103A300064000000A800002030B50B4601460020BD
:103A40002022012409E021FA02F59D4205D303FA60
:103A500002F5491B04FA02F52844151EA2F10102E1
:103A6000F1DC30BD064C074D06E0E06840F0010394
:103A700094E8070098471034AC42F6D3FCF73AFBC1
:103A8000004E0008204E00080FB4084B10B504A9E2
:103A900002AA039800F01CF8044602A9002000F0D6
:103AA000C1F8204610BC5DF814FB0000253C00085E
:103AB00002E008C8121F08C1002AFAD170477047F7
:103AC000002001E001C1121F002AFBD17047000055
:103AD0002DE9FF4F89B09B460446002506E02528C6
:103AE0000BD05A460B999047641C6D1C2078002817
:103AF000F5D10DB02846BDE8F08F0027B846012269
:103B0000474900E0074314F8013F203B02FA03F065
:103B10000842F7D120782E2819D114F8010F47F068
:103B200004072A280ED06FF02F022078A0F1300170
:103B300009290CD808EB880102EB410100EB0108D0
:103B4000641CF2E70A98641C50F8048B0A902078F1
:103B50000028CED0642808D0692806D075281ED049
:103B60005A460B9990476D1C58E00A994FF00A0984
:103B700001C90A91002802DA40422D2102E03905EC
:103B800004D52B218DF82010012103E0F90704D082
:103B90002021F7E78A4608AE0DE00021FAE70A99EE
:103BA0004FF00A0901C90A91F7E74946FFF744FFB8
:103BB000303106F8011D0028F7D1ADEB060000F109
:103BC0002009780701D44FF00108C84502DDA8EBB1
:103BD000090000E000208046002706E008A85A46B9
:103BE000C05D0B9990476D1C7F1C5745F6DB04E0C8
:103BF00030205A460B9990476D1CB8F10001A8F18E
:103C00000108F5DC05E016F8010B5A460B999047C0
:103C10006D1CB9F10001A9F10109F4DC641C65E730
:103C2000092801000A68531C0B60107070470000DF
:103C30000000000000000000000000000000000084
:103C40000000000000000000000000000000000074
:103C50000000000000000000000000000000000064
:103C6000800180018001800180018001800180014C
:103C7000800180018001800180010000000080013E
:103C800080010000000000000000000000000000B3
:103C90000000CC00CC00CC00CC00CC00CC0000005C
:103CA0000000000000000000000000000000000014
:103CB0000000000000000000000000000000000004
:103CC00000000000000000000000600C600C600CB0
:103CD00030063006FE1FFE1F300638071803FE1F91
:103CE000FE1F180318038C018C018C0100000000DA
:103CF0008000E003F80F9C0E8C1C8C188C00980040
:103D0000F801E007800E801C8C188C189C18B80CE9
:103D1000F00FE003800080000000000000000000C1
:103D2000000000000E181B0C110C110611061103E7
:103D300011039B018E01C038C06C60446044304464
:103D400030441844186C0C380000000000000000DB
:103D5000E001F0033807180618063003F001F00000
:103D6000F8009C310E33061E061C061C063FFC7331
:103D7000F021000000000000000000000000000032
:103D800000000C000C000C000C000C000C000000EB
:103D90000000000000000000000000000000000023
:103DA0000000000000000000000000000000000013
:103DB000000200038001C000C0006000600030000D
:103DC0003000300030003000300030003000600043
:103DD0006000C000C000800100030002000000007D
:103DE00020006000C0008001800100030003000685
:103DF0000006000600060006000600060006000396
:103E0000000380018001C00060002000000000006D
:103E100000000000000000000000C000C000D80644
:103E2000F807E00130033807000000000000000040
:103E30000000000000000000000000000000000082
:103E400000000000000000000000800180018001EF
:103E500080018001FC3FFC3F8001800180018001E6
:103E600080010000000000000000000000000000D1
:103E70000000000000000000000000000000000042
:103E80000000000000000000000000000000000032
:103E9000800180010001000180000000000000009E
:103EA0000000000000000000000000000000000012
:103EB000000000000000E007E00700000000000034
:103EC00000000000000000000000000000000000F2
:103ED00000000000000000000000000000000000E2
:103EE00000000000000000000000000000000000D2
:103EF000C000C00000000000000000000000000042
:103F0000000C000C0006000600060003000300037E
:103F10008003800180018001C000C000C0006000FB
:103F20006000000000000000000000000000000031
:103F3000E003F007380E180C0C180C180C180C18AD
:103F40000C180C180C180C180C18180C380EF0075C
:103F5000E00300000000000000000000000000007E
:103F600000018001C001F0019801880180018001F9
:103F70008001800180018001800180018001800139
:103F800080010000000000000000000000000000B0
:103F9000E003F80F180C0C180C1800180018000C8F
:103FA000000600038001C000600030001800FC1F04
:103FB000FC1F0000000000000000000000000000E6
:103FC000E001F807180E0C0C0C0C000C0006C003E6
:103FD000C007000C001800180C180C18180CF80773
:103FE000E0030000000000000000000000000000EE
:103FF000000C000E000F000F800DC00C600C600C58
:10400000300C180C0C0CFC3FFC3F000C000C000C9E
:10401000000C000000000000000000000000000094
:10402000F80FF80F180018000C00EC03FC071C0E2A
:10403000001C0018001800180C181C0C180EF807AB
:10404000E00300000000000000000000000000008D
:10405000C007F00F381C181818000C00CC03EC0F28
:104060003C0E1C1C0C180C180C18181C380EF007F1
:10407000E00300000000000000000000000000005D
:10408000FC1FFC1F000C00060006000380038001DB
:10409000C001C000E000600060007000300030002F
:1040A00030000000000000000000000000000000E0
:1040B000E003F007380E180C180C180C3806F0073F
:1040C000F007180C0C180C180C180C18380CF80FFA
:1040D000E0030000000000000000000000000000FD
:1040E000E003F007380E1C0C0C180C180C181C1CE4
:1040F000381EF81BE0190018000C000C1C0EF80705
:10410000F0010000000000000000000000000000BE
:10411000000000000000000000008001800100009D
:10412000000000000000000000000000000080010E
:1041300080010000000000000000000000000000FE
:10414000000000000000000000008001800100006D
:1041500000000000000000000000000000008001DE
:10416000800100010001800000000000000000004C
:10417000000000000000000000000000000000102F
:10418000001C800FE003F8001800F800E003800F27
:10419000001C0010000000000000000000000000F3
:1041A0000000000000000000000000000000F81FF8
:1041B000000000000000F81F0000000000000000E8
:1041C00000000000000000000000000000000000EF
:1041D00000000000000000000000000000000800D7
:1041E0003800F001C007001F0018001FC007F001D1
:1041F000380008000000000000000000000000007F
:10420000E003F80F180C0C180C180018000C00062E
:1042100000038001C000C000C00000000000C0001A
:10422000C0000000000000000000000000000000CE
:104230000000E00718180420C229224A114409444A
:104240000944094409221113E20C02400420181801
:10425000E007000000000000000000000000000077
:1042600080038003C006C006C006600C600C3018D6
:1042700030183018F83FF83F1C700C600C6006C016
:1042800006C0000000000000000000000000000068
:10429000FC03FC0F0C0C0C180C180C180C0CFC0775
:1042A000FC0F0C180C300C300C300C300C18FC1FB0
:1042B000FC070000000000000000000000000000FB
:1042C000C007F01F38381C300C700660060006006E
:1042D000060006000600060006600C701C30F01F89
:1042E000E0070000000000000000000000000000E7
:1042F000FE03FE0F060E06180618063006300630BE
:10430000063006300630063006180618060EFE0F78
:10431000FE0300000000000000000000000000009C
:10432000FC3FFC3F0C000C000C000C000C00FC1FC0
:10433000FC1F0C000C000C000C000C000C00FC3FDF
:10434000FC3F000000000000000000000000000032
:10435000F83FF83F18001800180018001800F81F60
:10436000F81F18001800180018001800180018008E
:104370001800000000000000000000000000000025
:10438000E00FF83F3C780E6006E007C00300030032
:1043900003FE03FE03C007C006C00EC03CF0F83F9A
:1043A000E00F00000000000000000000000000001E
:1043B0000C300C300C300C300C300C300C30FC3F1E
:1043C000FC3F0C300C300C300C300C300C300C300E
:1043D0000C300000000000000000000000000000A1
:1043E00080018001800180018001800180018001C5
:1043F00080018001800180018001800180018001B5
:10440000800100000000000000000000000000002B
:10441000000600060006000600060006000600066C
:104420000006000600060006180618063807F00306
:10443000E00100000000000000000000000000009B
:1044400006300618060C060606038601C60066003E
:104450007600DE008E0106030606060C06180630FE
:1044600006600000000000000000000000000000E6
:10447000180018001800180018001800180018007C
:104480001800180018001800180018001800F81F6D
:10449000F81F000000000000000000000000000005
:1044A0000EE01EF01EF01EF036D836D836D836D8BC
:1044B00066CC66CC66CCC6C6C6C6C6C6C6C686C3ED
:1044C00086C30000000000000000000000000000A3
:1044D0000C301C303C303C306C306C30CC30CC304C
:1044E0008C310C330C330C360C360C3C0C3C0C3839
:1044F0000C30000000000000000000000000000080
:10450000E007F81F1C380E70066003C003C003C02C
:1045100003C003C003C003C006600E701C38F81F40
:10452000E0070000000000000000000000000000A4
:10453000FC0FFC1F0C380C300C300C300C300C18FD
:10454000FC1FFC070C000C000C000C000C000C0005
:104550000C0000000000000000000000000000004F
:10456000E007F81F1C380E70066003E003C003C0AC
:1045700003C003C003C007E006630E3F1C3CF83FC6
:10458000E0F700C000000000000000000000000094
:10459000FE0FFE1F06380630063006300638FE1FB6
:1045A000FE0706030606060C061806180630063037
:1045B0000660000000000000000000000000000095
:1045C000E003F80F1C0C0C180C180C001C00F8036E
:1045D000E00F001E0038063006300E301C1CF80FAD
:1045E000E0070000000000000000000000000000E4
:1045F000FE7FFE7F800180018001800180018001BB
:1046000080018001800180018001800180018001A2
:104610008001000000000000000000000000000019
:104620000C300C300C300C300C300C300C300C30AA
:104630000C300C300C300C300C300C301818F81FCB
:10464000E007000000000000000000000000000083
:1046500003600630063006300C180C180C18180CC5
:10466000180C380E30063006700760036003C00176
:10467000C001000000000000000000000000000079
:104680000360C361C361C3616633663366336633F7
:10469000663366336C1B6C1B6C1B2C1A3C1E380E6D
:1046A000380E0000000000000000000000000000C4
:1046B0000FE00C7018303018700C600EC0078003CB
:1046C0008003C003E006700C301C18180C300E601C
:1046D00007E00000000000000000000000000000F3
:1046E00003C006600C301C383818300C6006E00738
:1046F000C003800180018001800180018001800170
:104700008001000000000000000000000000000028
:10471000FC7FFC7F006000300018000C00060003E6
:104720008001C0006000300018000C000600FE7F11
:10473000FE7F0000000000000000000000000000FC
:10474000E003E00360006000600060006000600063
:104750006000600060006000600060006000600059
:104760006000600060006000E003E0030000000003
:1047700030003000600060006000C000C000C00079
:10478000C0018001800180010003000300030006D6
:104790000006000000000000000000000000000013
:1047A000E003E00300030003000300030003000331
:1047B00000030003000300030003000300030003E1
:1047C0000003000300030003E003E0030000000017
:1047D0000000C001C00160036003600330063006C2
:1047E000180C180C00000000000000000000000081
:1047F00000000000000000000000000000000000B9
:1048000000000000000000000000000000000000A8
:104810000000000000000000000000000000000098
:10482000FFFFFFFF0000000000000000000000008C
:104830000C000C000C000C000C000C000000000030
:104840000000000000000000000000000000000068
:104850000000000000000000000000000000000058
:1048600000000000000000000000F003F8071C0C2E
:104870000C0C000FF00FF80C0C0C0C0C1C0FF80FAC
:10488000F018000000000000000000000000000020
:1048900018001800180018001800D803F80F380C7A
:1048A000181818181818181818181818380CF80F9D
:1048B000D80300000000000000000000000000001D
:1048C00000000000000000000000C003F007300EF0
:1048D000180C1800180018001800180C300EF007FB
:1048E000C003000000000000000000000000000005
:1048F00000180018001800180018C01BF01F301C0A
:10490000181818181818181818181818301CF01F2C
:10491000C01B0000000000000000000000000000BC
:1049200000000000000000000000C003F00F300C89
:104930001818F81FF81F180018003818301CF00F4E
:10494000C0070000000000000000000000000000A0
:10495000800FC00FC000C000C000F007F007C0000B
:10496000C000C000C000C000C000C000C000C00047
:10497000C000000000000000000000000000000077
:1049800000000000000000000000E00DF80F180E0D
:104990000C0C0C0C0C0C0C0C0C0C0C0C180EF80F5A
:1049A000E00D000C0C0C1C06F807F00100000000E4
:1049B00018001800180018001800D807F80F381C45
:1049C0001818181818181818181818181818181867
:1049D00018180000000000000000000000000000A7
:1049E000C000C000000000000000C000C000C00007
:1049F000C000C000C000C000C000C000C000C000B7
:104A0000C0000000000000000000000000000000E6
:104A1000C000C000000000000000C000C000C000D6
:104A2000C000C000C000C000C000C000C000C00086
:104A3000C000C000C000C000F80078000000000006
:104A40000C000C000C000C000C000C0C0C060C03F1
:104A50008C01CC006C00FC009C018C030C030C0648
:104A60000C0C00000000000000000000000000002E
:104A7000C000C000C000C000C000C000C000C00036
:104A8000C000C000C000C000C000C000C000C00026
:104A9000C000000000000000000000000000000056
:104AA000000000000000000000007C3CFF7EC7E327
:104AB00083C183C183C183C183C183C183C183C1D6
:104AC00083C10000000000000000000000000000A2
:104AD000000000000000000000009807F80F381CDC
:104AE0001818181818181818181818181818181846
:104AF0001818000000000000000000000000000086
:104B000000000000000000000000C003F00F300CA7
:104B1000181818181818181818181818300CF00F3A
:104B2000C0030000000000000000000000000000C2
:104B300000000000000000000000D803F80F380C4F
:104B4000181818181818181818181818380CF80FFA
:104B5000D803180018001800180018000000000002
:104B600000000000000000000000C01BF01F301C0F
:104B7000181818181818181818181818301CF01FBA
:104B8000C01B0018001800180018001800000000D2
:104B900000000000000000000000B007F0037000FB
:104BA0003000300030003000300030003000300085
:104BB00030000000000000000000000000000000C5
:104BC00000000000000000000000E003F003380EC9
:104BD000180C3800F003C007000C180C380EF00752
:104BE000E0030000000000000000000000000000E2
:104BF00000008000C000C000C000F007F007C00047
:104C0000C000C000C000C000C000C000C000C0079D
:104C1000800700000000000000000000000000000D
:104C200000000000000000000000181818181818F4
:104C3000181818181818181818181818381CF01FF1
:104C4000E01900000000000000000000000000006B
:104C5000000000000000000000000C18180C180CE8
:104C6000180C300630063006600360036003C00194
:104C7000C001000000000000000000000000000073
:104C800000000000000000000000C141C141C361FC
:104C90006363636363633636363636361C1C1C1C0E
:104CA0001C1C0000000000000000000000000000CC
:104CB000000000000000000000001C38381C300C10
:104CC000600660036003600360036006300C381CFC
:104CD0001C38000000000000000000000000000080
:104CE00000000000000000000000183030183018EC
:104CF0007018600C600CE00CC006C00680038003D6
:104D0000800380018001C001F000700000000000FD
:104D100000000000000000000000FC1FFC1F000C51
:104D2000000600038001C000600030001800FC1F76
:104D3000FC1F000000000000000000000000000058
:104D400000038001C000C000C000C000C000C0005F
:104D500060006000300060004000C000C000C00083
:104D6000C000C000C000800100030000000000007F
:104D7000800180018001800180018001800180012B
:104D8000800180018001800180018001800180011B
:104D9000800180018001800180018001000000000D
:104DA0006000C000C001800180018001800180019D
:104DB0000003000300060003000180018001800160
:104DC000800180018001C000600000000000000040
:104DD0000000000000000000000000000000F010D3
:104DE000F81F080F00000000000000000000000095
:104DF00000000000000000000000000000000000B3
:104E0000204E000800000020A8000000B03A000872
:104E1000C84E0008A800002038040000C03A00086E
:104E200000A24A0400000000000000000102030488
:104E30000607080900000000010203040102030440
:104E400006070809020406080000FFFF0000000032
:104E50000000000000000000010000000000000051
:104E60000000000000000000000000000000000042
:104E70000000000000000000000000000000000032
:104E8000FBFFFFFF0000000000000000000000002A
:104E9000000000000000000001000000020000000F
:104EA00003000000040000000000000000000000FB
:104EB00000000000000000000000000000000000F2
:084EC0000000000000000000EA
:04000005080000ED02
:00000001FF
