:020000040800F2
:10000000A80A002001010008090100080B010008EE
:100010000D0100080F010008110100080000000098
:1000200000000000000000000000000013010008B4
:100030001501000800000000170100085D490008D4
:100040001B0100081B0100081B010008DD4E000811
:100050001B0100081B0100081B0100081B01000810
:100060001B0100081B0100081B0100081B01000800
:100070001B0100081B0100081B0100081B010008F0
:100080001B0100081B0100081B0100081B010008E0
:100090001B0100081B0100081B0100081B010008D0
:1000A0001B0100081B0100081B0100081B010008C0
:1000B000EF480008694800081B0100081B01000800
:1000C0001B0100081B0100081B0100081B010008A0
:1000D0001B0100081B0100086B4A00081B010008F7
:1000E0001B0100081B0100081B010008DFF80CD0F1
:1000F00005F046FD0048004781300008A80A0020AE
:100100000648804706480047FEE7FEE7FEE7FEE7B1
:10011000FEE7FEE7FEE7FEE7FEE7FEE70302000874
:10012000ED0000080CB50020019000906C480068BC
:1001300040F480306A49086000BF6948006800F4F4
:10014000003000900198401C0190009818B9019867
:10015000B0F5A06FF1D16248006800F4003010B132
:100160000120009001E0002000900098012843D178
:100170005C48006840F010005A4908600846006872
:1001800020F0030008600846006840F002000860A4
:1001900053484068524948600846406848600846ED
:1001A000406840F4806048600846406820F47C1055
:1001B00048600846406840F4E81048600846006817
:1001C00040F08070086000BF4548006800F0007093
:1001D0000028F9D04248406820F0030040494860B8
:1001E0000846406840F00200486000BF3C48406854
:1001F00000F00C000828F9D10CBD10B5FFF792FFF4
:1002000010BD10B53648006840F001003449086060
:10021000084640683449084031494860084600684B
:10022000324908402E4908600846006820F48020C2
:1002300008600846406820F4FE0048604FF41F0044
:100240008860FFF7DAFF4FF000602949086010BDB1
:1002500010B5002100200022214B5B6803F00C0147
:1002600021B1042906D0082928D107E0214B224CCE
:10027000236027E01F4B204C236023E0184B5B6872
:1002800003F47010164B5B6803F48032022303EB17
:10029000904022B9194B4343174C23600DE0104B9B
:1002A0005B6803F4003323B1144B4343124C2360C7
:1002B00003E0104B4343104C236003E00D4B0E4C06
:1002C000236000BF00BF064B5B68C3F303130C4CF5
:1002D000E15C094B1B68CB40074C236010BD00005C
:1002E00000100240002002400000FFF8FFFFF6FE71
:1002F00008ED00E000127A000000002000093D0037
:100300000400002010B50446CC48844208D10121E5
:10031000042000F02DFB0021042000F029FB46E022
:10032000C748844208D10121082000F021FB0021A8
:10033000082000F01DFB3AE0C248844208D10121A8
:10034000102000F015FB0021102000F011FB2EE022
:10035000BD48844208D10121202000F009FB002182
:10036000202000F005FB22E0B848844208D101219A
:10037000402000F0FDFA0021402000F0F9FA16E0DC
:10038000B348844208D10121802000F0F1FA002115
:10039000802000F0EDFA0AE0AE48844207D1012146
:1003A000801500F0E5FA0021A01500F0E1FA10BD7B
:1003B00010B50121084600F0DBFA0021012000F011
:1003C000D7FA10BD2DE9F041024600250026002095
:1003D00000230024002791F803C00CF00F0591F8CA
:1003E00003C00CF0100CBCF1000F03D091F802C058
:1003F0004CEA050591F800C0BCF1000F31D014683B
:1004000000202BE04FF0010C0CFA00F3B1F800C013
:100410000CEA03069E4220D183004FF00F0C0CFA29
:1004200003F7BC4305FA03FC4CEA040491F803C04B
:10043000BCF1280F06D14FF0010C0CFA00FCC2F8F9
:1004400014C00AE091F803C0BCF1480F05D14FF089
:10045000010C0CFA00FCC2F810C0401C0828D1D3D3
:100460001460B1F800C0BCF1FF0F34DD5468002007
:100470002EE000F1080C4FF0010808FA0CF3B1F877
:1004800000C00CEA03069E4221D183004FF00F0CFE
:100490000CFA03F7BC4305FA03FC4CEA040491F898
:1004A00003C0BCF1280F05D100F1080C08FA0CF8C4
:1004B000C2F8148091F803C0BCF1480F07D100F1D5
:1004C000080C4FF0010808FA0CF8C2F81080401C24
:1004D0000828CED35460BDE8F0814FF6FF7101804B
:1004E000022181700421C170704702460020936888
:1004F0000B400BB1012000E00020704701468868E6
:1005000080B2704702460020D3680B400BB1012037
:1005100000E0002070470146C86880B27047016162
:100520007047416170470AB1016100E04161704765
:10053000C16070474FF480320A43826181618261F9
:1005400082698269704702460020434B18684FF663
:100550008073184040EA021008433F4B1860704710
:100560003E49C8617047F0B50A46002300240021C7
:10057000002500F00046B6F1004F02D1364EF16979
:1005800001E0354E7168C0F3034583B200F44016B4
:10059000B6F5401F08D121F070612F4E766826F025
:1005A00070662D4F7E6012E000F48016B6F5801F55
:1005B00006D1032606FA05F4A14341F0706106E076
:1005C000460D360103FA06F6B14341F0706122B1DF
:1005D000460D360103FA06F6314300F00046B6F147
:1005E000004F02D11C4EF16101E01B4E7160F0BD65
:1005F00030B500228B071C0F0F2303FA04F2164BB1
:1006000008338C1053F824309343134C08348D1066
:1006100044F8253023468C1053F824308C07240FDF
:1006200000FA04F423430C4C08348D1044F82530B0
:1006300030BD0A49DC310860704700000008014005
:10064000000C01400010014000140140001801405E
:10065000001C014000200140000001400000204239
:10066000DF48006840F00100DD4908600846406846
:10067000DC490840DA49486008460068DA49084021
:10068000D74908600846006820F4802008600846C2
:10069000406820F4FE0048604FF41F0088607047F7
:1006A000CF49096821F48031CD4A116011460968AB
:1006B00021F480211160B0F5803F03D0B0F5802F88
:1006C0000ED106E0C649096841F48031C44A116080
:1006D00007E0C349096841F4A021C14A116000E064
:1006E00000BF00BF704710B5014600220023002064
:1006F0004A11012A02D1BA4C236806E0022A02D12B
:10070000B74C236A01E0B64C636A01F01F02012472
:1007100094401C400CB1012000E0002010BD38B511
:10072000002000900024002500BF3120FFF7DBFFF0
:1007300005460098401C00900098B0F5A06F01D0CD
:10074000002DF2D03120FFF7CEFF08B1012400E0E8
:100750000024204638BD01460020A14A106820F040
:10076000F80040EAC10010607047A0490860704777
:10077000024600209A4B586820F47C1042EA01039C
:100780001843974B58607047984908667047014670
:100790000020934A506820F00300084350607047DF
:1007A0008F48406800F00C007047014600208C4ADA
:1007B000506820F0F0000843506070470146002068
:1007C000874A506820F4E060084350607047014653
:1007D0000020834A506820F4605040EAC100506015
:1007E000704729B17E4A527A02437D4B5A7204E027
:1007F0007B4A527A82437A4B5A7270477B49D8318E
:100800000860704701460020754A506820F4404057
:100810000843506070470021714A20321170704ABD
:1008200082F82010012802D004280AD104E0012116
:100830006B4A2032117005E00521694A203211709F
:1008400000E000BF00BF7047694908607047644915
:10085000096A0143624A1162704765494439086078
:10086000704730B500210022002400235C4D6D68E4
:1008700005F00C0121B1042905D0082923D105E098
:100880005C4D056022E05B4D05601FE0544D6D68D6
:1008900005F47012524D6D6805F48034022505EBA5
:1008A00092421CB9544D554305600BE04C4D6D68A8
:1008B00005F400351DB1504D5543056002E04D4D26
:1008C0005543056002E04B4D056000BF00BF444D3D
:1008D0006D6805F0F0010909484D6B5C0568DD4065
:1008E00045603F4D6D6805F4E061090A434D6B5C5E
:1008F0004568DD4085603A4D6D6805F46051C90A70
:100900003E4D6B5C4568DD40C560354D6D6805F456
:100910004041890B3A4D6B5CC568B5FBF3F5056149
:1009200030BD29B12E4A526902432D4B5A6104E071
:100930002B4A526982432A4B5A61704729B1284A8F
:1009400092690243264B9A6104E0254A92698243E8
:10095000234B9A61704729B1214AD2690243204B47
:10096000DA6104E01E4AD26982431D4BDA617047A6
:1009700029B11B4AD2680243194BDA6004E0184AD5
:10098000D2688243164BDA60704729B1144A126963
:100990000243134B1A6104E0114A12698243104B5F
:1009A0001A61704712494039086070470F49C8649E
:1009B00070470B49C87170470948406A40F0807021
:1009C00007494862704701460020054A92680A407C
:1009D0000AB1012000E00020704701498872704789
:1009E000001002400000FFF8FFFFF6FE0000424248
:1009F0008004424200127A0000093D0014000020E9
:100A00002400002031490143314A1160704770B51C
:100A1000002100230F22C47804B32D4C246804F471
:100A2000E064C4F5E064210AC1F10403CA404478DB
:100A300004FA03F18478144021430901254C067817
:100A4000A155047804F01F050124AC4005786D1110
:100A5000AD0005F1E025C5F8004109E0047804F097
:100A60001F050124AC401C4D0678761145F8264040
:100A700070BD1A4A0A400243154B1B1F1A6070478B
:100A800039B1134A121D12680243114B1B1D1A6023
:100A900006E00F4A121D126882430D4B1B1D1A609F
:100AA0007047042808D14FF0E021096941F00401A2
:100AB0004FF0E022116107E04FF0E021096921F0D9
:100AC00004014FF0E0221161704700000000FA05B8
:100AD0000CED00E000E400E080E100E080FFFF1F9B
:100AE00010B50446FA48844208D101214015FFF7A9
:100AF0003FFF00216015FFF73BFF17E0F5488442F8
:100B000008D101210015FFF733FF00212015FFF761
:100B10002FFF0BE0F048844208D10121C803FFF702
:100B200027FF00214FF40040FFF722FF10BD30B532
:100B30000246002000235068E84C20400D790C68E4
:100B400044EA0524204350609068E54C2040D1E9F8
:100B500002542C434D7944EA450420439060D06A06
:100B600020F470000C7C641EE4B2234340EA03507E
:100B7000D06230BD00210160017141718160C160AE
:100B800001210174704721B1826842F00102826044
:100B900003E0826822F001028260704721B182681E
:100BA00042F48072826003E0826822F48072826084
:100BB000704710B50023CBB21AB144681C4344609F
:100BC00002E044689C43446010BD816841F0080124
:100BD00081607047014600208A6802F008020AB16D
:100BE000012000E000207047816841F0040181602D
:100BF0007047014600208A6802F004020AB1012011
:100C000000E00020704721B1826842F4A0028260B7
:100C100003E0826822F4A00282607047014600204F
:100C20008A6802F480020AB1012000E000207047C7
:100C300010B50A4600210023416821F46041531E8B
:100C400041EA4331416010BD21B1426842F4006283
:100C5000426003E0426822F4006242607047F0B5EF
:100C600004460D4600200021092D11DDE068A5F1A4
:100C70000A0606EB4607072606FA07F18843A5F1A0
:100C80000A0606EB460603FA06F10843E0600CE0AC
:100C9000206905EB4507072606FA07F1884305EBAF
:100CA000450603FA06F108432061072A0FDA606B54
:100CB000561E06EB86071F2606FA07F18843561EC6
:100CC00006EB860605FA06F10843606322E00D2A6A
:100CD0000FDA206BD61F06EB86071F2606FA07F1F0
:100CE0008843D61F06EB860605FA06F10843206303
:100CF00010E0E06AA2F10D0606EB86071F2606FA51
:100D000007F18843A2F10D0606EB860605FA06F107
:100D10000843E062F0BD21B1826842F48012826033
:100D200003E0826822F48012826070470146C86C3A
:100D300080B2704766484C300068704721B1426805
:100D400042F48062426003E0426822F480624260C2
:100D5000704721B1426842F48052426003E0426829
:100D600022F48052426070470A460021816821F4D3
:100D7000E04111438160704721B1826842F4004232
:100D8000826003E0826822F400428260704721B1F1
:100D9000826842F40212826003E0826822F4021246
:100DA00082607047014600208A6802F400120AB18E
:100DB000012000E000207047F0B5044615460020F1
:100DC00000220026092911DDE068A1F10A0707EBDE
:100DD000470C072707FA0CF29043A1F10A0707EB2B
:100DE000470703FA07F21043E0600CE0206901EBCB
:100DF000410C072707FA0CF2904301EB410703FA75
:100E000007F210432061A06BC0F30156EF1C06F1FE
:100E1000010CA7EB0C0707EB870C1F2707FA0CF256
:100E20009043EF1C06F1010CA7EB0C0707EB8707BB
:100E300001FA07F21043A063F0BD10B50A46002185
:100E40000023816B21F44011531E41EA0351816359
:100E500010BD08B5002300930090009B0B44009345
:100E6000009B1A6008BD08B5024600200090009261
:100E700001F12800009B184400900098006880B29F
:100E800008BD0A4600214168164B194011434160D4
:100E900070474162826270470A460021416821F032
:100EA0001F0111434160704740B109490831096889
:100EB00041F40001064A0832116007E00449083194
:100EC000096821F40001024A0832116070470000ED
:100ED0000024014000280140003C0140FFFEF0FFDB
:100EE000FDF7F1FFFFFD3FFF0246002013680B40B6
:100EF0000BB1012000E000207047CA430260704738
:100F000070B502460020002300240B125568CEB2B3
:100F100005EA060415681D4015B10CB1012000E07A
:100F2000002070BD00220A12D34303607047000006
:100F300010B50120FFF736FD0020FFF733FD10BD8F
:100F40002A49086070472949091F086070472749E6
:100F500084310860704701460020254A10884FF60A
:100F60007F4210400843224A10807047014600200B
:100F70001F4A10884FF68072104008431C4A1080A8
:100F8000704708B500220092194A2C3A0092009A44
:100F900002440092009A116008BD08B50146002085
:100FA000009013482C380090009808440090009856
:100FB000008808BD0D489C300068C0B270470C48DE
:100FC0000830008840F00100094908310880704766
:100FD0000648A0300068C0B2704705480830008855
:100FE00040F00200024908310880704704860D4233
:100FF0002C6C004001684FF6FE7211400160002128
:10100000016041608160C1608D49884208D18C498E
:101010000839496841F00F01894A083A51608AE06D
:1010200087491431884208D185490839496841F017
:10103000F001834A083A51607DE0814928318842B5
:1010400008D17F490839496841F470617C4A083AFF
:10105000516070E07A493C31884208D178490839BA
:10106000496841F47041764A083A516063E0744936
:101070005031884208D172490839496841F47021D9
:101080006F4A083A516056E06D496431884208D190
:101090006B490839496841F47001694A083A51605E
:1010A00049E067497831884208D16549083949687B
:1010B00041F07061624A083A51603CE061498842FF
:1010C00006D1011F096841F00F01021F116032E0D3
:1010D0005C491431884208D15A49091F096841F016
:1010E000F001584A121F116025E056492831884204
:1010F00008D15449091F096841F47061514A121F0F
:10110000116018E04F493C31884208D14D49091F10
:10111000096841F470414B4A121F11600BE04949C4
:101120005031884207D14749091F096841F47021AD
:10113000444A121F1160704710B50022026847F63A
:10114000F0739A430C6A8B6823430C6923434C6900
:1011500023438C692343CC6923434C6A23438C6A21
:1011600023431A430260CB6843600B6883604B687B
:10117000C36010BD0021016041608160C1600161F8
:1011800041618161C161016241628162704721B147
:10119000026842F00102026004E002684FF6FE734A
:1011A0001A40026070471AB103680B43036002E003
:1011B00003688B430360704741607047014648688D
:1011C00080B2704701460020002201F080531BB11D
:1011D0001C4B083B1A6802E0194B083B1A6802EAEC
:1011E00001030BB1012000E00020704700F08051A6
:1011F00019B11449091F086002E011490839486013
:10120000704701460020002201F080531BB10D4BB6
:10121000083B1A6802E00A4B083B1A6802EA01031D
:101220000BB1012000E00020704700F0805119B19F
:101230000449091F086002E0014908394860704705
:10124000080002400804024010B501210807FFF71A
:101250009CFB00214FF08050FFF797FB10BD2A49FF
:101260000862704728490861704701460020274AF4
:10127000106820F0E0000843106070472249A03158
:101280000860704710B502460020204B186820F017
:101290000300104318601E4B1B6843F004031C4CF2
:1012A0002360012901D130BF00E020BF184B1B682B
:1012B00023F00403164C236010BD1448006840F06E
:1012C0000400124908600846006840F00200086007
:1012D0000F48006840F004000D49086000BF00BFDF
:1012E00030BF704701460020084A52680A400AB1E0
:1012F000012000E0002070470449096841EA8001AC
:10130000024A11607047000000000E420070004069
:1013100010ED00E029B1504A128802434E4B1A806A
:1013200004E04D4A128882434B4B1A8070474A486A
:10133000001D008840F010004749091D08807047D3
:101340004548001D00884FF6EF7108404249091DCD
:1013500008807047002140481C300188001F008829
:1013600041EA0040704700B50246FFF7E0FF100C6D
:10137000394918310880091D0A80FFF7E1FF00BDD7
:1013800000B50246FFF7D3FFC2F3034032490831EC
:101390000880091D0A80FFF7D3FF00BD00B5024693
:1013A000FFF7C5FF100C2C4920310880091D0A8069
:1013B000FFF7C6FF00BD0020274910310988090743
:1013C000080B2549143109880843704700BF22489B
:1013D000001D008800F020000028F8D070471E484B
:1013E000001D00884FF6F77108401B49091D088051
:1013F00000BF1948001D008800F008000028F8D040
:10140000704701460020144A121D12880A400AB192
:10141000012000E0002070470F49091D0988814321
:101420000D4A121D11807047014600200A4A121D04
:1014300012880A40D0B2084A12880A4012B108B194
:10144000012000E0002070470349091D09888143FD
:10145000014A121D118070470028004010B5044653
:10146000FE48844208D10121C014FFF781FA00210F
:10147000E014FFF77DFAC4E0B4F1804F08D10121F8
:101480000846FFF782FA00210120FFF77EFAB8E054
:10149000F348844208D101210220FFF776FA0021A7
:1014A0000220FFF772FAACE0EE48844208D1012135
:1014B0000420FFF76AFA00210420FFF766FAA0E093
:1014C000E948844208D101210820FFF75EFA002193
:1014D0000820FFF75AFA94E0E448844208D1012139
:1014E0001020FFF752FA00211020FFF74EFA88E093
:1014F000DF48844208D101212020FFF746FA00216D
:101500002020FFF742FA7CE0DA48844208D101212A
:101510004014FFF72DFA00216014FFF729FA70E05C
:10152000D548844209D10121C804FFF721FA0021DE
:101530004FF40020FFF71CFA63E0D048844209D141
:1015400001210805FFF714FA00214FF48010FFF77E
:101550000FFA56E0CA48844209D101214805FFF735
:1015600007FA00214FF40010FFF702FA49E0C548DE
:10157000844208D101214020FFF707FA00214020D2
:10158000FFF703FA3DE0C048844208D101218020E2
:10159000FFF7FBF900218020FFF7F7F931E0BB48A6
:1015A000844208D101218015FFF7EFF90021A01531
:1015B000FFF7EBF925E0B648844209D10121080480
:1015C000FFF7D6F900214FF48030FFF7D1F918E08A
:1015D000B048844209D101214804FFF7C9F900212C
:1015E0004FF40030FFF7C4F90BE0AB48844208D158
:1015F00001218804FFF7BCF900214FF48020FFF798
:10160000B7F910BD00220288944B98420ED0994B36
:1016100098420BD0B0F1804F08D0914B984205D042
:10162000904B984202D0904B984204D14FF68F7362
:101630001A404B881A438D4B984207D08C4B9842E6
:1016400004D04FF6FF431A40CB881A4302808B88A0
:1016500083850B880385814B98420BD0854B98423C
:1016600008D08B4B984205D08A4B984202D08A4BC7
:10167000984201D10B7A038601238382704770B5AB
:10168000002400220023058C4FF6FE7635400584A9
:10169000028C8388048B4FF68F752C40B51E2C402E
:1016A0000D882C43751E2A400D892A434D882A43F4
:1016B0006A4DA8420BD06F4DA84208D0744DA84285
:1016C00005D0744DA84202D0734DA84213D14FF6F5
:1016D000F7752A404D892A434FF6FB752A408D88BD
:1016E0002A434FF6FF652B404FF6FF552B408D895F
:1016F0002B43CD892B4383800483CD888586028448
:1017000070BD70B5002400220023058C4FF6EF76E3
:1017100035400584028C8388048B48F6FF752C4085
:101720004FF6FF452C400D884FF6FF7606EA05255B
:101730002C434FF6DF752A400D8906EA05152A432A
:101740004D8806EA05152A43444DA84202D0494D6A
:10175000A8421DD14FF67F752A404D894FF6FF767E
:1017600006EA05152A434FF6BF752A408D8806EA1A
:1017700005152A434FF6FF352B404FF2FF752B40DE
:101780008D8906EA85052B43CD8906EA85052B431D
:1017900083800483CD880587028470BD70B50024E2
:1017A00000220023058C4FF6FF6635400584028C2D
:1017B0008388848B4FF68F752C404FF6FC752C4038
:1017C0000D882C434FF6FF552A400D894FF6FF76C2
:1017D00006EA05252A434D8806EA05252A431F4DBA
:1017E000A84202D0234DA8421DD14FF2FF752A40D6
:1017F0004D894FF6FF7606EA05252A434FF6FF3559
:101800002A408D8806EA05252A434EF6FF752B40AF
:101810004DF6FF752B408D8906EA05152B43CD89C2
:1018200006EA05152B4383808483CD88858702844F
:1018300070BD70B5002200230024058C4EF6FF76A3
:1018400035400584038C8488828B48F6FF752A40D6
:101850004FF6FF452A400D8820E00000002C014093
:101860000004004000080040000C00400010004050
:101870000014004000340140004C01400050014081
:101880000054014000180040001C004000200040AF
:101890000040014000440140004801404FF6FF76FF
:1018A00006EA05252A434DF6FF752B400D8906EA09
:1018B00005352B434D8806EA05352B43FA4DA842E2
:1018C00002D0FA4DA84208D14BF6FF752C408D8905
:1018D0004FF6FF7606EA85152C4384808283CD88F7
:1018E000A0F84050038470BD828B4FF2FF331A4042
:1018F0008283828B4FF6FF7303EA01231A438283AC
:101900007047F0B50C461546002200210026078CD2
:101910004EF6FF7C07EA0C070784828B018C4FF69A
:10192000FF7707EA043640F6FF473A404FF6FF7765
:1019300007EA05273A434FF6FF7707EA03373A43AA
:10194000D94FB8420ED0D94FB8420BD0B0F1804F2A
:1019500008D0D74FB84205D0D64FB84202D0D64FA4
:10196000B84206D14DF6FF77394046F480573943E7
:1019700005E047F6FF57394044F4805739438283E6
:101980000184F0BD828B4FF6F3731A408283828B01
:101990000A4382837047F0B50C46154600220021A9
:1019A0000026078C4FF6FF6C07EA0C070784828B32
:1019B000018C4FF6FF7707EA04264FF60C773A4082
:1019C0004FF6FF7707EA03172F433A43B64FB84263
:1019D0000ED0B64FB8420BD0B0F1804F08D0B44F04
:1019E000B84205D0B34FB84202D0B34FB84206D187
:1019F0004FF6FF57394046F48077394305E04FF200
:101A0000FF57394044F48077394382830184F0BD25
:101A1000028B4FF2FF331A400283028B4FF6FF73A3
:101A200003EA01231A4302837047F0B50C461546BA
:101A3000002200210026078C4FF6EF7C07EA0C07F6
:101A40000784028B018C4FF6FF7707EA041640F6F5
:101A5000FF473A404FF6FF7707EA03373A434FF61E
:101A6000FF7707EA05273A438F4FB8420ED08F4FD2
:101A7000B8420BD0B0F1804F08D08D4FB84205D09E
:101A80008C4FB84202D08C4FB84206D14FF6DF7768
:101A9000394046F01007394305E04FF65F7739408B
:101AA00044F01007394302830184F0BD028B4FF6E6
:101AB000F3731A400283028B0A4302837047F0B526
:101AC0000C46154600220021068C4FF6FE773E405C
:101AD0000684028B018C4FF60C7632407E1C06EA9F
:101AE00003162E433243704EB0420ED06F4EB042BA
:101AF0000BD0B0F1804F08D06D4EB04205D06D4E86
:101B0000B04202D06C4EB04206D14FF6FD76314065
:101B100044F00106314305E04FF6F576314044F0DC
:101B20000106314302830184F0BD70B505460C46C1
:101B30005D4885420ED05D4885420BD0B5F1804F9F
:101B400008D05B48854205D05A48854202D05A48A1
:101B5000854200D100E000BF208850B92389A288C7
:101B600061882846FFF7ABFFE1882846FFF79EFF14
:101B700025E0208804280AD12389A2886188284684
:101B8000FFF753FFE1882846FFF742FF17E0208860
:101B900008280AD12389A28861882846FFF7FBFE1E
:101BA000E1882846FFF7EEFE09E02389A2886188D4
:101BB0002846FFF7A6FEE1882846FFF795FE70BD90
:101BC0002DE9F04105460C4600260127608808B93A
:101BD000022600E00026A088012801D1022700E0AB
:101BE00001272088A0B92389A28861882846FFF7A9
:101BF00066FFE1882846FFF759FF23893A463146B8
:101C00002846FFF712FFE1882846FFF701FF13E09F
:101C10002389A28861882846FFF707FFE1882846C4
:101C2000FFF7F6FE23893A4631462846FFF747FF7D
:101C3000E1882846FFF73AFFBDE8F0810A884B8823
:101C40001A438B881A43CB881A430B891A434B8952
:101C50001A438B891A43A0F8442070474FF6FF714E
:101C6000818000210180C180418001727047002184
:101C7000018041808180C180018141818181C18158
:101C80007047002101804180012181800021C180B5
:101C9000018170470021018041808180C1800181E4
:101CA0004181818170470000002C014000340140D7
:101CB0000004004000080040000C004021B10288F0
:101CC00042F00102028004E002884FF6FE731A40DF
:101CD0000280704731B1B0F8442042F40042A0F8CD
:101CE000442005E0B0F84420C2F30E02A0F84420DE
:101CF00070471AB183890B43838102E083898B4348
:101D0000838170478182704741EA0203A0F848301E
:101D100070471AB183890B43838102E083898B4327
:101D20008381704701894FF6F87211400181704735
:101D30000A46002101894FF68F7319401143018132
:101D4000704730B504460D4629462046FFF7F0FFA0
:101D5000208940F00700208130BD2DE9F041044684
:101D60000D4616461F46602D06D13B4601223146E0
:101D70002046FFF75AFE05E03B4601223146204649
:101D8000FFF79DFE29462046FFF7D2FF208940F04D
:101D900007002081BDE8F08130B50C4600210189A3
:101DA000C9B24FF6FF7505EA0325154325432943BC
:101DB000018130BD2DE9F04105460E461746984693
:101DC000002443463A4631462846FFF7E5FF2C8972
:101DD0004FF6F870044044F007044FF68F7004404B
:101DE00044F070042C81BDE8F081F0B504460D4646
:101DF00016461F463B46324629462046FFF7CCFF93
:101E0000208940F480402081F0BD018582827047A6
:101E10000A46002101884FF68F7319401143018053
:101E20007047F0B50C4615461E46002100220023DF
:101E30000189028B038C4FF6F877394021434FF626
:101E4000FC473A4040F201173A434FF6DD773B40FA
:101E50004FF6FF7707EA06172F433B4301810283C2
:101E60000384F0BD0A460021018B4FF68F731940A1
:101E70001143018370470A460021018B48F6FF7326
:101E800019404FF6FF7303EA022319430183704799
:101E90000A460021818B4FF68F73194011438183CD
:101EA00070470A460021818B48F6FF7319404FF6B0
:101EB000FF7303EA022319438183704721B102882B
:101EC00042F08002028004E002884FF67F731A40DD
:101ED0000280704721B1828842F00402828004E0CF
:101EE00082884FF6FB731A408280704721B1828846
:101EF00042F00802828004E082884FF6F7731A40AD
:101F00008280704721B1828842F00102828004E021
:101F100082884FF6FE731A40828070470A4600217D
:101F2000018B4FF6F77319401143018370470A463E
:101F30000021018B4FF2FF7319404FF6FF7303EA44
:101F400002231943018370470A460021818B4FF613
:101F5000F77319401143818370470A460021818B32
:101F60004FF2FF7319404FF6FF7303EA0223194340
:101F7000818370470A460021018B4FF6FB7319409D
:101F80001143018370470A460021018B4FF6FF334E
:101F900019404FF6FF7303EA022319430183704788
:101FA0000A460021818B4FF6FB7319401143818350
:101FB00070470A460021818B4FF6FF3319404FF6D8
:101FC000FF7303EA02231943818370470A46002105
:101FD000018B4FF67F7319401143018370470A4606
:101FE0000021018BC1F30E014FF6FF7303EA0223B8
:101FF0001943018370470A460021818B4FF67F7396
:1020000019401143818370470A460021818BC1F337
:102010000E014FF6FF7303EA0223194381837047D1
:102020000A460021018C4FF6FD73194011430184CB
:1020300070470A460021018C4FF6F773194011438F
:10204000018470470A460021018C4FF6DF73194066
:102050004FF6FF7303EA02131943018470470A46DF
:102060000021018C4FF67F7319404FF6FF7303EA8E
:1020700002131943018470470A460021018C4FF670
:10208000FF5319404FF6FF7303EA022319430184FB
:1020900070470A460021018C4FF2FF7319404FF63A
:1020A000FF7303EA02231943018470470A460021A3
:1020B000018C4DF6FF7319404FF6FF7303EA0233AC
:1020C00019430184704730B5002301248C40A3B22A
:1020D000048C9C430484048C02FA01F5ADB22C43B9
:1020E000048430BD30B5002304248C40A3B2048C9A
:1020F0009C430484048C02FA01F5ADB22C430484A1
:1021000030BD70B503460020002418461830012564
:102110008D40ACB21D8CA5431D8409B1082909D19D
:1021200000EB6100056825F0700505600568154342
:1021300005600EE00D1FC5F34E052844056825F423
:10214000E045056005684FF6FF7606EA022635434E
:10215000056070BD21B1028842F00202028004E0F5
:1021600002884FF6FD731A400280704721B1028841
:1021700042F00402028004E002884FF6FB731A402A
:102180000280704721B1828842F08002828004E0A0
:1021900082884FF67F731A408280704702884FF61C
:1021A000F7731A40028002880A43028070478288CF
:1021B0004FF68F731A40828082880A43828070476C
:1021C00002894FF6F8731A40028102890A4302819C
:1021D000704702894FF67F731A40028102890A43D1
:1021E000028170478184704781857047818670477E
:1021F0000187704781877047A0F8401070470288B8
:102200004FF6FF431A40028002880A43028070475B
:102210000146888E70470146088F70470146888FB7
:1022200070470146B1F8400070470146888C7047FE
:102230000146088D704702460020138A0B400BB1FF
:10224000012000E000207047CA430282704730B589
:102250000246002000230024158A05EA010395891F
:1022600005EA010413B10CB1012000E0002030BDEB
:10227000CA4302827047000010B50446FB488442FE
:1022800009D101218803FEF773FB00214FF4804040
:10229000FEF76EFB32E0F648844209D10121480482
:1022A000FEF773FB00214FF40030FEF76EFB25E0D4
:1022B000F048844209D101218804FEF766FB002121
:1022C0004FF48020FEF761FB18E0EB48844209D10F
:1022D0000121C804FEF759FB00214FF40020FEF74E
:1022E00054FB0BE0E548844208D101210805FEF7C4
:1022F0004CFB00214FF48010FEF747FB10BD2DE989
:10230000F04786B005460E460024A24600BFA1460F
:102310000027B08900B100BF2F462C8A4CF6FF7011
:102320000440F08804432C82AC894EF6F31004403C
:10233000B08831890843718908430443AC81AC8A71
:102340004FF6FF400440B0890443AC8201A8FEF779
:1023500088FAC648874202D1DDF810A001E0DDF816
:102360000CA0A88900F4004040B10AEBCA0000EBC1
:102370000A1031684900B0FBF1F807E00AEBCA0027
:1023800000EB0A1031688900B0FBF1F86420B8FB5B
:10239000F0F004012009642101FB1089A88900F4F0
:1023A000004040B1322000EBC900B0FBF1F000F07A
:1023B0000700044308E0322000EB09106421B0FB61
:1023C000F1F000F00F0004432C8106B0BDE8F08767
:1023D0004FF41651016000218180C18001810C21E0
:1023E000418100218181704710B502460020108A8A
:1023F0004FF2FF0318400B884C8823438C882343FB
:10240000CC8823431843108210BD002101804180F5
:102410008180C180704721B1828942F4005282815B
:1024200004E082894DF6FF731A4082817047F0B54F
:102430000346002400260025002040F66A17B94212
:1024400000D100BF1846C1F3421401F01F06012756
:1024500007FA06F5012C01D10C3004E0022C01D161
:10246000103000E014301AB107682F43076002E013
:102470000768AF430760F0BD1AB1838A0B438382BC
:1024800002E0838A8B4383827047028A4FF6F0739F
:102490001A400282028A0A430282704782894FF2FE
:1024A000FF731A40828182890A438281704721B179
:1024B000828942F00202828104E082894FF6FD7334
:1024C0001A4082817047028A4FF6DF731A400282F7
:1024D000028A0A430282704721B1028A42F4804292
:1024E000028204E0028A4BF6FF731A4002827047B0
:1024F000C1F308028280704701468888C0F3080053
:102500007047818941F0010181817047028BD2B20D
:102510000283028B42EA012202837047028B02F49B
:102520007F420283028B0A430283704721B1828A71
:1025300042F02002828204E0828A4FF6DF731A4062
:102540008282704721B1828A42F01002828204E0C6
:10255000828A4FF6EF731A408282704721B1828AD5
:1025600042F00802828204E0828A4FF6F7731A4032
:102570008282704721B1828942F40042828103E065
:102580008289C2F30E028281704721B1828A42F4AD
:102590000062828204E0828A4FF2FF731A408282D4
:1025A0007047828A4FF6FB731A408282828A0A43FE
:1025B0008282704721B1828A42F00202828204E064
:1025C000828A4FF6FD731A408282704702460020CD
:1025D000B1F5007F00D100BF13880B400BB1012083
:1025E00000E00020704701F40072B2F5007F00D1D6
:1025F00000BFCA430280704770B502460024002322
:102600000025002040F66A16B14200D100BFC1F398
:10261000421501F01F03012606FA03F3012D02D132
:102620009689334006E0022D02D1168A334001E03C
:10263000968A33400C12012606FA04F416883440B8
:1026400013B10CB1012000E0002070BD10B50022D4
:10265000002340F66A14A14200D100BF0A120124EF
:102660009440A3B2DC43048010BD00000038014058
:102670000044004000480040004C00400050004032
:10268000002109E0002201E0531C9AB240F6B83361
:102690009A42F9DB4B1C99B28142F3DB70474FF44D
:1026A0000072FA4B1A6052101A6020221B1F1A6027
:1026B000F74AD06020221B1D1A601B1F1A60D2002F
:1026C0001A60F34AD16020221B1D1A601B1F1A607A
:1026D000D2001A60704700B501210020FFF7DFFF2C
:1026E0004FF47A70FFF7CCFF00210120FFF7D7FFEE
:1026F00041F290711020FFF7D2FF4FF41C5160207F
:10270000FFF7CDFF01216120FFF7C9FF022146201D
:10271000FFF7C5FF48F210011320FFF7C0FF48F292
:10272000FE011220FFF7BBFF4FF4A0610220FFF76C
:10273000B6FF41F230010320FFF7B1FF40F2033151
:102740003020FFF7ACFF40F203313120FFF7A7FF45
:1027500040F203313220FFF7A2FF4FF440713320E3
:10276000FFF79DFF03213420FFF799FF40F203316B
:102770003520FFF794FF14213620FFF790FF40F239
:1027800003313720FFF78BFF40F203313820FFF78A
:1027900086FF40F203313920FFF781FF4FF440718B
:1027A0003A20FFF77CFF03213B20FFF778FF40F240
:1027B00003313C20FFF773FF4FF4A0513D20FFF79A
:1027C0006EFF4FF400719220FFF769FF40F2033172
:1027D0009320FFF764FF40F60D019020FFF75FFFA5
:1027E00041F218010320FFF75AFF40F2731107204E
:1027F000FFF755FF00BD00B543F20801E320FFF7E6
:102800004EFF1221E720FFF74AFF41F23121EF206E
:10281000FFF745FF00210120FFF741FF4FF4E06182
:102820000220FFF73CFF41F230010320FFF737FFA2
:1028300000210420FFF733FF40F207210820FFF7B3
:102840002EFF00210920FFF72AFF00210A20FFF7B1
:1028500026FF00210C20FFF722FF00210D20FFF7AB
:102860001EFF00210F20FFF71AFF00211020FFF7A5
:1028700016FF07211120FFF712FF00211220FFF79A
:102880000EFF00211320FFF70AFF4FF47A70FFF7C5
:10289000F7FE41F290611020FFF701FF40F227217F
:1028A0001120FFF7FCFE3220FFF7EAFE1D21122067
:1028B000FFF7F5FE3220FFF7E3FE4FF4006113202F
:1028C000FFF7EDFE14212920FFF7E9FE0B212B2055
:1028D000FFF7E5FE3220FFF7D3FE00212020FFF7AF
:1028E000DEFE00212120FFF7DAFE07213020FFF76E
:1028F000D6FE40F207713120FFF7D1FE06213220CB
:10290000FFF7CDFE40F204713520FFF7C8FE41F617
:1029100004713620FFF7C3FE04213720FFF7BFFE06
:1029200000213820FFF7BBFE40F206713920FFF787
:10293000B6FE40F201713C20FFF7B1FE0F213D20B1
:10294000FFF7ADFE00215020FFF7A9FEEF21512037
:10295000FFF7A5FE00215220FFF7A1FE40F23F1134
:102960005320FFF79CFE4FF41C516020FFF797FEA9
:1029700001216120FFF793FE00216A20FFF78FFEFF
:1029800000218020FFF78BFE00218120FFF787FECA
:1029900000218220FFF783FE00218320FFF77FFEC6
:1029A00000218420FFF77BFE00218520FFF777FEC2
:1029B00010219020FFF773FE00219220FFF76FFE99
:1029C00003219320FFF76BFE4FF488719520FFF7EA
:1029D00066FE00219720FFF762FE00219820FFF796
:1029E0005EFE41F218010320FFF759FE40F2731119
:1029F0000720FFF754FE00BD08B54FF6FF70ADF895
:102A0000000003208DF8020010208DF803006946B5
:102A10001F48FDF7D7FC08BD08B54FF6FF70ADF8AD
:102A2000000003208DF8020048208DF8030069465D
:102A30001748FDF7C7FC08BD70B504464FF4007099
:102A400012490860401008602020091F08601048E3
:102A5000C4602020091D0860091F0860C0000860CC
:102A6000FFF7DAFF4FF48060084908600848806883
:102A700085B20815091F0860FFF7BEFF4FF400700C
:102A80000249091F0860284670BD0000140C01406F
:102A90000010014008B501211820FDF74FFF01216A
:102AA0002020FDF74BFF4FF4E460ADF8000001205B
:102AB0008DF8020010208DF803006946F848FDF7F4
:102AC00081FCFFF799FFF6481030006840F4C460BD
:102AD000F3491031086008BD10B5FFF7DBFF002097
:102AE000FFF7AAFFEF4908800846008848F2302126
:102AF000884202D1FFF7EFFD01E0FFF77CFE0020E6
:102B0000FFF79AFFE749088010BD01B5BDF8000046
:102B1000E549088008BD01B5BDF80000E34908801B
:102B200008BD30B504460D4621462020FFF7B7FD0D
:102B300029462120FFF7B3FD30BD4FF40071D84A7C
:102B4000143211604910121F116020211160D84900
:102B5000C8602021121D1160121F1160C900116090
:102B60004900116070474FF40070CD49143108607E
:102B7000401008602020091F08602220CC49C8604E
:102B80002020C74914310860091F0860C000086090
:102B90004000086070472DE9F04306468946174615
:102BA00000240025A046B04649464046FFF7B9FF3D
:102BB00000BF1EE0FFF7D7FF00250FE037F8140035
:102BC0000121A940084020B9B8480088FFF7B5FFA7
:102BD00003E0B5480088FFF7B0FF6D1C102DEDD362
:102BE00008F1010000F0FF0849464046FFF799FF51
:102BF000641C182CDED3BDE8F08370B505460E4684
:102C00001446A4F12000C4B204EB4400A94901EB2E
:102C1000001231462846FFF7BEFF70BDF0B50746EB
:102C20000C46002540F23F1609E02278314638462E
:102C3000FFF7E3FFA6F1100086B2641C6D1C20783C
:102C400008B1142DF1D3F0BD10B504469AA1204669
:102C5000FFF7E4FF10BD30B505460024002108460B
:102C6000FFF75FFFFFF77FFF00BF03E02846FFF796
:102C700064FF641CB4F5963FF8D330BDF0B504464C
:102C80000D4616461F46B44206DBA01B401C81B20F
:102C90005020FFF704FD03E000215020FFF7FFFC68
:102CA00021465120FFF7FBFCBD4206DBE81B401C20
:102CB00081B25220FFF7F3FC03E000215220FFF71E
:102CC000EEFC29465320FFF7EAFC29462046FFF791
:102CD00028FFF0BD00B54FF4A073F022591EEF207D
:102CE000FFF7CCFF41F218010320FFF7D8FC00BD2D
:102CF0002DE9F0410646884615461F460024414608
:102D00003046FFF70EFF5FB9FFF72DFF00BF04E06D
:102D100065480088FFF711FF641CAC42F8D310E04F
:102D200000240CE0FFF71FFF5F480088FFF705FF56
:102D3000701CC6B241463046FFF7F3FE641CAC423D
:102D4000F0D3BDE8F081F0B505460E4617461C46A7
:102D50000023224631462846FFF7CAFFE919C8B2C8
:102D6000002322463146FFF7C3FF01233A4631468E
:102D70002846FFF7BDFF301B401C81B201233A46B5
:102D80002846FFF7B5FFF0BD2DE9F04306460F4694
:102D900090460320A0EB4809002445466EE07A19CE
:102DA00091B23219D0B2FFF7BCFEFFF7DCFE3E480D
:102DB0000088FFF7C2FE7A1B91B23219D0B2FFF73A
:102DC000B0FEFFF7D0FE38480088FFF7B6FE7A194C
:102DD00091B2321BD0B2FFF7A4FEFFF7C4FE324817
:102DE0000088FFF7AAFE7A1B91B2321BD0B2FFF720
:102DF00098FEFFF7B8FE2C480088FFF79EFE3A19B0
:102E000091B27219D0B2FFF78CFEFFF7ACFE2648E4
:102E10000088FFF792FE3A1B91B27219D0B2FFF709
:102E200080FEFFF7A0FE20480088FFF786FE3A19D3
:102E300091B2721BD0B2FFF774FEFFF794FE1A48EE
:102E40000088FFF77AFE3A1B91B2721BD0B2FFF7EF
:102E500068FEFFF788FE14480088FFF76EFEB9F1A0
:102E6000000F04DA062000EB8400814405E0601BBB
:102E70000A2101EB800081446D1E641CAC428ED996
:102E8000BDE8F08370B506460024002540F23F11EE
:102E90000020FFF746FEFFF766FE00BF2DE00000B2
:102EA000000C01402C000020280000202A000020F7
:102EB00000100140E864000820202020202020206D
:102EC0002020202020202020202020200000000082
:102ED00000250FE056F824000121A940084020B940
:102EE0005F480088FFF729FE03E05E480088FFF78F
:102EF00024FE6D1C202DEDD3641CB4F5166FE7D3B2
:102F000070BD70B50446002500266688A08846EA94
:102F100000466589A08945EA0045701B46082C4497
:102F200041F208010320FFF7BAFBFFF71CFE002562
:102F300004E02088FFF701FEA41C6D1CB542F8D305
:102F400041F218010320FFF7AAFB70BD10B54FF442
:102F5000007045490860401008602020091F086083
:102F600022204249C86020203F490860091F0860AC
:102F7000C0000860FFF750FD4FF480603A490860D8
:102F80003A48806884B20815091F0860FFF734FDCD
:102F90004FF400703449091F0860204610BD00B589
:102FA00000211020FFF77BFB00211120FFF777FBAA
:102FB00000211220FFF773FB00211320FFF76FFBA6
:102FC0001420FFF75DFB41F2B0711020FFF767FBA3
:102FD00040F237111120FFF762FB0520FFF750FB8D
:102FE00040F239111220FFF75AFB0520FFF748FB8A
:102FF0004FF4E8511320FFF752FB13212920FFF76C
:103000004EFB0520FFF73CFB40F273110720FFF752
:1030100046FB00BD00B540F273110720FFF73FFBF0
:1030200000BD00B500210720FFF739FB00BD30B51A
:10303000054600210846FFF774FDFFF794FD0024C4
:1030400009E015F814206100491C695C42EA01207E
:10305000FFF773FD641CB4F5963FF2DB30BD000052
:103060002A00002028000020140C0140001001401C
:10307000FB49086000BFFA4909680029FBD1704785
:1030800088B0F84800684FF47A71B0FBF1F007900F
:103090000798401EB0F1807F00D323E00798401EC0
:1030A0004FF0E0214861481705900F2006900598E1
:1030B000002809DA06980007020EEB48059901F08E
:1030C0000F01091F425405E006980007020EE74869
:1030D0000599425400BF00204FF0E021886107208D
:1030E000086100BFC820FFF7C3FFFFF7F5FC4FF4EE
:1030F000C060FDF787FC01F0CBFD01F00FFD01F092
:103100001DFE01F077FE01F00FFF02F059F802F00A
:10311000ABF802F015F94FF6FF7002F0CAF81F2065
:10312000FFF799FD1F20FFF7F6FC4FF6FF70FFF742
:10313000ECFC4FF47A70FFF79BFF4FF6FF7002F044
:10314000B8F801F08CBB142002F067F8C849086099
:10315000152002F062F8C7490860162002F05DF8F9
:10316000C5490860002007900BE00798401CC0B2DA
:10317000069002F052F8C14A079950540798401C33
:10318000079007980428F0DBBC480068BC49086039
:10319000B94800684FF461714843BA490860012199
:1031A000B948FDF7A2F958B900BF0121B648FDF7AB
:1031B0009CF90028F9D0B5480068401CB349086064
:1031C0000AE2B34801F023FD019002F06AFB4FF0E0
:1031D0006632B04BCDE9020102F053FA0022AE4B49
:1031E000CDE9040102F047FACDE9060102F06CFBDB
:1031F000AA490860AA49A948006802F081FB02D8E0
:10320000A848A64908609E480168A74802F054F9FA
:10321000079002F032FBA5490880A548006802F03B
:103220001FFBA44AA44BCDE9020102F02AFAA34AEB
:10323000A34BCDE9040102F07DF9CDE9060102F0CE
:1032400043FBA0490860A0480068012812D18948C2
:103250000268874801689DA002F0B4FCA148036899
:10326000A1480268A1480168A1A002F0ABFC0020BF
:10327000954908609448006802283CD100200790D6
:1032800031E0079800EB80009E4901EB8000406828
:103290000690079800EB800051F820000590014649
:1032A00099A0069A02F08EFC079800EB80009549E1
:1032B00001EB800000690690079800EB800001EBAD
:1032C0008000C0680590079800EB800001EB80004B
:1032D00080680490014691A0DDE9052302F072FCAC
:1032E0000798401C07909249079809688842C8DBF4
:1032F0000020754908605E48006802F0A3FA079054
:1033000066480168079802F0FBFA28D289480078DD
:10331000401C8849087008460078C82801D1002060
:10332000087084480078079000EBD070411007982F
:10333000A0EB410018B90021012001F0CEFF7D482B
:103340000078079000EBD07041100798A0EB410087
:10335000012808D10121084601F0BFFF03E0002148
:10336000012001F0BAFF4348006802F06BFA0790B1
:1033700054480168079802F0C3FA28D26E480078D2
:10338000401C6D49087008460078C82801D100200B
:10339000087069480078079000EBD07041100798DA
:1033A000A0EB410018B90021022001F096FF62480D
:1033B0000078079000EBD07041100798A0EB410017
:1033C000012808D10121022001F087FF03E000213C
:1033D000022001F082FF59A11820FFF71FFC2F489F
:1033E000006802F05EFA02460B46CDE9060159A1DB
:1033F0005F4802F0F7FB5E494820FFF70FFC3148B9
:10340000006802F04EFA02460B46CDE9060159A1CA
:10341000574802F0E7FB56497820FFF7FFFB314899
:10342000006800903048036830485AA1026850484C
:1034300002F0D8FB4E49A820FFF7F0FB5D485EA1E3
:1034400002684B4802F0CEFB4949D820FFF7E6FB63
:1034500001210D48FDF749F800B9C9E0BCE00000C2
:10346000400000200000002018ED00E000E400E033
:1034700044000020480000204C000020580000209C
:103480005000002088000020000801403800002083
:1034900030060020666638400000344030000020CE
:1034A000000098C10000A0C100A08C469C00002034
:1034B00074000020B5A679C7293A823F9E5E29CBC9
:1034C00010C7F13F3400002090000020B5B1C7B014
:1034D000CEC2CAAAB6C8E3D0D6B53A2564B6C825C6
:1034E00064252500A8000020A4000020A0000020E2
:1034F000B5B1C7B0CAB1BCE43A25642D25642D2509
:103500006400000080010020CEC2CAAAB6C82564AB
:10351000B6C8256425250D0A00000000B5B1C7B066
:10352000CAB1BCE43A25642D25642D25640D0A003A
:1035300094000020640000206500002020202072FC
:1035400065616C2074696D65206461746120202060
:103550000000000043757272656E742074656D70B2
:103560003A252E3066432020202020200000000035
:10357000B800002043757272656E742068756D69BD
:10358000646974793A252E30662525202020202074
:103590002000000054696D653A25302E32642D25D7
:1035A000302E32642D25302E326420202020202021
:1035B00020202000800000202020205265636F72B0
:1035C000642074696D6573203A25642020202020D2
:1035D0002020202000000000FE480068079000EB3B
:1035E000D07041100798A0EB410000283FF4E9ADEE
:1035F00000BF01F027B94FF48071F748FCF775FF61
:1036000060B900BF4FF48071F348FCF76EFF0028EB
:10361000F8D0F2480068401CF0490860F0480068A3
:10362000012814D1EF480268EF480168AFF2641036
:1036300002F0C8FAED480368ED480268ED480168F9
:10364000AFF2541002F0BEFA0020E5490860E448E9
:10365000006802283ED10020079033E0079800EB75
:103660008000E54901EB800040680690079800EB78
:10367000800051F8200005900146AFF27410069AC0
:1036800002F0A0FA079800EB8000DB4901EB800014
:1036900000690690079800EB800001EB8000C0688D
:1036A0000590079800EB800001EB80008068049093
:1036B0000146AFF29810DDE9052302F083FA07987E
:1036C000401C0790CD49079809688842C6DD002054
:1036D000C3490860C448006802F0B4F80790C848BD
:1036E0000168079802F00CF928D2C6480078401CFF
:1036F000C449087008460078C82801D10020087025
:10370000C0480078079000EBD07041100798A0EBFC
:10371000410018B90021012001F0DFFDB94800780F
:10372000079000EBD07041100798A0EB41000128F2
:1037300008D10121084601F0D0FD03E0002101205D
:1037400001F0CBFDA748006802F07CF80790AE4876
:103750000168079802F0D4F828D2AC480078401CE1
:10376000AA49087008460078C82801D100200870CE
:10377000A6480078079000EBD07041100798A0EBA6
:10378000410018B90021022001F0A7FD9F480078F0
:10379000079000EBD07041100798A0EB4100012882
:1037A00008D10121022001F098FD03E00021022050
:1037B00001F093FDD9E102219548FCF796FE58B936
:1037C00000BF02219248FCF790FE0028F9D08648FD
:1037D0000068401C844908608E4801F018FA019086
:1037E00002F05FF84FF066328B4BCDE9020101F039
:1037F00048FF0022894BCDE9040101F03CFFCDE9EF
:10380000060102F061F87E49086085497C4800683D
:1038100002F076F802D88348794908608248016846
:10382000824801F049FE079002F027F8804908809D
:103830008048006802F014F87F4A804BCDE902010D
:1038400001F01FFF7E4A7F4BCDE9040101F072FEBB
:10385000CDE9060102F038F86B490860604800685D
:10386000012814D15F4802685F480168AFF2A430B4
:1038700002F0A8F95D4803685D4802685D48016888
:10388000AFF2943002F09EF9002055490860544888
:10389000006802283ED10020079033E0079800EB33
:1038A0008000554901EB800040680690079800EBC6
:1038B000800051F8200005900146AFF2B430069A1E
:1038C00002F080F9079800EB80004B4901EB800083
:1038D00000690690079800EB800001EB8000C0684B
:1038E0000590079800EB800001EB80008068049051
:1038F0000146AFF2D830DDE9052302F063F90798FD
:10390000401C07903D49079809688842C6DB0020A3
:10391000334908603448006801F094FF0790384844
:103920000168079801F0ECFF28D236480078401C67
:103930003449087008460078C82801D10020087072
:1039400030480078079000EBD07041100798A0EB4A
:10395000410018B90021012001F0BFFC294800787E
:10396000079000EBD07041100798A0EB41000128B0
:1039700008D10121084601F0B0FC03E0002101203C
:1039800001F0ABFC1748006801F05CFF07901E488F
:103990000168079801F0B4FF63D21C480078401C0E
:1039A0001A49087008460078C82801D1002008701C
:1039B00016480078079000EBD07041100798A0EBF4
:1039C000410018B90021022001F087FC0F4800785F
:1039D000079039E038000020000801403C0000203A
:1039E000900000204800002044000020A800002093
:1039F000A4000020A00000208001002094000020EE
:103A00003000002064000020340000206500002009
:103A1000000C01403006002066663840000034404B
:103A2000000098C10000A0C15000002000A08C46FA
:103A30009C00002074000020B5A679C7293A823F77
:103A40009E5E29CB10C7F13F00EBD0704110079864
:103A5000A0EB4100012808D10121022001F03DFC2A
:103A600003E00021022001F038FC0421FE48FCF7AD
:103A70003CFD58B900BF0421FB48FCF736FD002887
:103A8000F9D0FA480068401EF8490860F748007805
:103A900001460790142001F0A6FBF5480078014686
:103AA0000790152001F09FFBF2480078014607902F
:103AB000162001F098FBF048F049086000200790BC
:103AC0000EE0EE4801680798085C06900798401CD5
:103AD000C0B20590069901F086FB0798401C07903C
:103AE00007980428EDDB4FF47840FFF70EF8DF4825
:103AF000E3A10268E84802F075F8E7494820FFF7BB
:103B00008DF84FF6FF70FFF700F8D948E3A102687F
:103B1000E14802F067F8E0497820FFF77FF8D548E0
:103B2000E4A10268DC4802F05DF8DB49A820FFF759
:103B300075F8D148006801F0B4FE02460B46CDE9A5
:103B40000601E2A1D44802F04DF8D349D820FFF78E
:103B500065F84FF48071E448FCF7C7FC20B10121FF
:103B6000E148FCF7C2FC00B90CE0E0480068C1176E
:103B7000079000EB917081100798A0EB810000285E
:103B80003FF419AE00BF23E20221B748FCF7ADFCB9
:103B900088B900BF0221B448FCF7A7FC0028F9D07F
:103BA000B3480068401CB2490860084600686428B1
:103BB00001DB642008600421AB48FCF796FC88B95F
:103BC00000BF0421A848FCF790FC0028F9D0A848C1
:103BD0000068401EA649086008460068002801DC0D
:103BE00000200860C24801F012F8019001F059FE6F
:103BF0004FF06632BF4BCDE9020101F042FD0022D9
:103C0000BD4BCDE9040101F036FDCDE9060101F01F
:103C10005BFEBA490860BA49B848006801F070FE16
:103C200002D8B848B549086093480168B64801F021
:103C300043FC079001F021FEB4490880B4480068B5
:103C400001F00EFEB34AB44BCDE9020101F019FDBB
:103C5000B24AB34BCDE9040101F06CFCCDE9060199
:103C600001F032FEAF490860AF480068012814D166
:103C70007F4802687D480168AFF2B07001F0A2FF92
:103C8000AA480368AA480268AA480168AFF2A0706F
:103C900001F098FF0020A4490860A34800680228AA
:103CA00041D10020079036E0079800EB8000A24940
:103CB00001EB800040680690079800EB80019E4869
:103CC00050F8210005900146AFF2C470069A01F049
:103CD00079FF079800EB8001974800EB81000069AD
:103CE0000690079800EB8000934901EB8000C068C4
:103CF0000590079800EB80018F4800EB81008068F9
:103D000004900146AFF2EC70DDE9052301F05AFFA3
:103D10000798401C07908949079809688842C3DBC7
:103D20000020814908605148006801F08BFD079030
:103D300072480168079801F0E3FD28D280480078B6
:103D4000401C7F49087008460078C82801D100202F
:103D500008707B480078079000EBD07041100798FE
:103D6000A0EB410018B90021012001F0B6FA744817
:103D70000078079000EBD07041100798A0EB41004D
:103D8000012808D10121084601F0A7FA03E000212B
:103D9000012001F0A2FA3648006801F053FD0790B7
:103DA00060480168079801F0ABFD28D265480078AB
:103DB000401C6449087008460078C82801D10020DA
:103DC000087060480078079000EBD07041100798A9
:103DD000A0EB410018B90021022001F07EFA5948F9
:103DE0000078079000EBD07041100798A0EB4100DD
:103DF000012808D10121022001F06FFA03E000211F
:103E0000022001F06AFA1948007801460790142050
:103E100001F0E9F91648007801460790152001F0F5
:103E2000E2F91448007801460790162001F0DBF90A
:103E3000114812490860002007900EE00F48016801
:103E40000798085C06900798401CC0B20590069938
:103E500001F0C9F90798401C079007980428EDDB8A
:103E60004FF4784070E00000000C01404400002056
:103E7000480000204C00002050000020540000208A
:103E80005570706572206C696D69743A25644320C1
:103E90002020202020000000B80000204C6F776513
:103EA00072206C696D69743A2564252520202020D4
:103EB0002020000053616D706C696E672020203AED
:103EC0002564532020202020200000007465737496
:103ED000207369676E616C3A252E31664B487A20F3
:103EE0002020202020000000000801403C0000208D
:103EF0003006002066663840000034403000002064
:103F0000000098C10000A0C100A08C469C000020C9
:103F100074000020B5A679C7293A823F9E5E29CB5E
:103F200010C7F13F3400002090000020A8000020BE
:103F3000A4000020A00000208001002094000020A8
:103F40006400002065000020FEF7DFFDFE48AFF2B0
:103F5000B4010268FD4801F045FEFC497820FEF7F7
:103F60005DFE4FF6FF70FEF7D0FDF948AFF2F001AD
:103F70000268F64801F036FEF4494820FEF74EFE8E
:103F8000F448AFF2D0010268F04801F02BFEEF498F
:103F9000A820FEF743FEF048006801F082FC0246CC
:103FA0000B46CDE90601AFF2DC01E84801F01AFE4C
:103FB000E649D820FEF732FE4FF48071E748FCF75F
:103FC00094FA20B10121E548FCF78FFA00B90CE022
:103FD000E3480068C117079000EB917081100798C3
:103FE000A0EB810001283FF4CFAD00BFF8E1022132
:103FF000DC48FCF77AFA88B900BF0221D948FCF7FF
:1040000074FA0028F9D0D3480068401CD1490860F0
:1040100008460068052801DB052008600421D14816
:10402000FCF763FA88B900BF0421CE48FCF75DFABB
:104030000028F9D0C7480068401EC64908600846F5
:104040000068012801DC01200860C24800684FF4C4
:1040500061714843C4490860C44800F0D8FD01902C
:1040600001F01FFC4FF06632C14BCDE9020101F0B7
:1040700008FB0022BF4BCDE9040101F0FCFACDE9B9
:10408000060101F021FCBC490860BC49BA4800683F
:1040900001F036FC02D8BA48B7490860AE4801685A
:1040A000B84801F009FA079001F0E7FBB64908802B
:1040B000B648006801F0D4FBB54AB64BCDE9020121
:1040C00001F0DFFAB44AB54BCDE9040101F032FA50
:1040D000CDE9060101F0F8FBB1490860B14800687C
:1040E000012814D19848026899480168AFF6244025
:1040F00001F068FDAC480368AC480268AC48016850
:10410000AFF6144001F05EFD0020A6490860A54806
:104110000068022840D10020079035E0079800EBA6
:104120008000A44901EB800040680690079800EBEE
:10413000800051F8200005900146AFF63440069A01
:1041400001F040FD079800EB80009A4901EB8000E8
:1041500000690690079800EB8001964800EB81000B
:10416000C0680590079800EB8000924901EB800041
:10417000806804900146AFF65C40DDE9052301F05C
:1041800021FD0798401C07908B49079809688842D1
:10419000C4DB0020834908606D48006801F052FBD1
:1041A000079075480168079801F0AAFB28D2834858
:1041B0000078401C8149087008460078C82801D161
:1041C000002008707D480078079000EBD070411007
:1041D0000798A0EB410018B90021012001F07DF8FB
:1041E00076480078079000EBD07041100798A0EB5C
:1041F0004100012808D10121084601F06EF803E0D2
:104200000021012001F069F84F48006801F01AFB15
:10421000079063480168079801F072FB28D268484C
:104220000078401C6649087008460078C82801D10B
:104230000020087062480078079000EBD0704110B1
:104240000798A0EB410018B90021022001F045F8C1
:104250005B480078079000EBD07041100798A0EB06
:104260004100012808D10121022001F036F803E0C5
:104270000021022001F031F835480078014607900E
:10428000142000F0B0FF3048007801460790152058
:1042900000F0A9FF2F48007801460790162000F093
:1042A000A2FF2D4847490860002007900EE04548CE
:1042B00001680798085C06900798401CC0B20590FA
:1042C000069900F090FF0798401C07900798042873
:1042D000EDDB4FF47840FEF718FC1E48AFF22C419E
:1042E00002681A4801F07EFC1849A820FEF796FCE7
:1042F0004FF6FF70FEF709FC1548AFF27C410268EB
:10430000124801F06FFC11494820FEF787FC0E4867
:10431000AFF2784102680D4801F064FC0B49782047
:10432000FEF77CFC0C48006801F0BBFA02460B4625
:10433000CDE90601AFF26C41044801F053FC03499A
:10434000D820FEF76BFC3FE048000020B8000020BA
:10435000440000204C0000205000002000080140D4
:104360003C000020000C01408800002030060020A6
:10437000666638400000344030000020000098C1DC
:104380000000A0C100A08C469C000020740000200A
:10439000B5A679C7293A823F9E5E29CB10C7F13F67
:1043A0003400002090000020A8000020A40000207D
:1043B000A000002080010020940000206400002064
:1043C00065000020540000204FF48071FB48FCF78A
:1043D0008CF820B10121F948FCF787F800B90CE00E
:1043E000F7480068C117079000EB9170811007989B
:1043F000A0EB810002283FF4FAAD00BFC9E1022121
:10440000F048FCF772F8F8B900BF0221ED48FCF75C
:104410006CF80028F9D0EC48006801F042FA00225C
:10442000EA4BCDE9040101F085F8CDE9060101F080
:104430004BFAE5490860E649E348006801F06AFA8A
:1044400002D8E348E04908600421DE48FCF74DF853
:10445000F8B900BF0421DB48FCF747F80028F9D081
:10446000D948006801F01DFA0022D84BCDE90401BB
:1044700001F001F9CDE9060101F026FAD249086000
:104480000021D148006801F03BFA02D80020CE4953
:104490000860D04800F0BBFB019001F002FA4FF039
:1044A0006632CD4BCDE9020101F0EBF80022CB4B97
:1044B000CDE9040101F0DFF8CDE9060101F004FACD
:1044C000C7490860C749C648006801F019FA02D810
:1044D000C548C3490860BC480168C44800F0ECFF07
:1044E000079001F0CAF9C2490880C248006801F08B
:1044F000B7F9C14AC14BCDE9020101F0C2F8C04A87
:10450000C04BCDE9040101F015F8CDE9060101F039
:10451000DBF9BD490860BD480068012813D1BC48DB
:104520000268BC480168BC4801F04CFBBB4803680A
:10453000BB480268BB480168B748243001F042FB21
:104540000020B2490860B148006802283ED100202E
:10455000079033E0079800EB8000B34901EB80003F
:1045600040680690079800EB800051F82000059005
:104570000146A9483C30069A01F024FB079800EB5D
:104580008000A94901EB800000690690079800EBC4
:10459000800001EB8000C0680590079800EB800068
:1045A00001EB80008068049001469B485030DDE9B3
:1045B000052301F007FB0798401C07909B490798CB
:1045C00009688842C6DB002090490860914800686D
:1045D00001F038F9079082480168079801F090F9D6
:1045E00028D293480078401C91490870084600780A
:1045F000C82801D1002008708D480078079000EB92
:10460000D07041100798A0EB410018B9002101209B
:1046100000F063FE86480078079000EBD0704110F0
:104620000798A0EB4100012808D10121084600F0BD
:1046300054FE03E00021012000F04FFE74480068A2
:1046400001F000F9079070480168079801F058F9E7
:1046500028D278480078401C7649087008460078CF
:10466000C82801D10020087072480078079000EB3C
:10467000D07041100798A0EB410018B9002102202A
:1046800000F02BFE6B480078079000EBD0704110D3
:104690000798A0EB4100012808D10121022000F079
:1046A0001CFE03E00021022000F017FE59480078AC
:1046B00001460790142000F096FD55480078014609
:1046C0000790152000F08FFD5B48007801460790A9
:1046D000162000F088FD3C485849086000200790EB
:1046E0000EE0564801680798085C06900798401C41
:1046F000C0B20590069900F076FD0798401C07901F
:1047000007980428EDDB4FF47840FEF7FEF92E48B9
:10471000006801F0C6F802460B46CDE90601AFF687
:104720005401474801F05EFA4549D820FEF776FA71
:104730004FF6FF70FEF7E9F93648AFF6BC010268A4
:104740003F4801F04FFA3E494820FEF767FA3A48E1
:10475000AFF6A00102683A4801F044FA3849A820AF
:10476000FEF75CFA2A48AFF6CC010268344801F043
:1047700039FA33497820FEF751FA4FF480710F4827
:10478000FBF7B3FE20B101210C48FBF7AEFE00B9E8
:104790000CE00B480068C117079000EB9170811086
:1047A0000798A0EB810003283FF429AE00BF012148
:1047B0000248FBF79AFE00B950E043E000080140D0
:1047C0003C000020000C0140500000200000E03FB1
:1047D000000030413006002066663840000034405A
:1047E00030000020000098C10000A0C100A08C464D
:1047F0009C00002074000020B5A679C7293A823FAA
:104800009E5E29CB10C7F13F3400002090000020AD
:104810004800002044000020CC340008A8000020FC
:10482000A4000020A00000208001002094000020AF
:1048300064000020650000204C000020540000208F
:10484000B800002007480068079000EBD0704110C6
:104850000798A0EB410001283EF4CDAE00BFFEF763
:1048600072BC00003800002010B504219148FDF70B
:10487000EEFC01283AD104218E48FDF7F9FC8E4860
:10488000008840B98B48FDF7C6FC8C4908800120A0
:10489000894908802AE088480088012826D185486F
:1048A000FDF7B9FC864908800846008883490988D5
:1048B000884207DD8248008880490988401A81497A
:1048C000086009E07D4800884FF6FF71081A7C49AE
:1048D000098808447B4908607A4800687A49B1FB36
:1048E000F0F07A49086000207349088010BD10B5C7
:1048F00004210807FDF7ABFC78B304210807FDF796
:10490000B7FC4FF08040FDF786FC71490880714884
:10491000006890B96F480068401C6E4908606E4896
:10492000048804EBD4706A4A128802EB600081B2FA
:104930004FF08040FDF75CFC0FE000206549086007
:104940006548048804EBD470614A128802EB600069
:1049500081B24FF08040FDF74BFC10BD10B55F48B1
:104960000068401E5D4908605D480068401E5C4963
:104970000860002878D15B4800684FF461714843B3
:104980005749086058480068401C57490860084665
:104990000068B0F5C87F01D3002008605248007855
:1049A00000F00100002852D100215048FCF7EFFB35
:1049B0003C204E490839886401214C48FCF7E7FB4C
:1049C0004B480068401C4A4908604A4800683C2837
:1049D00002D10020474908604748006800F04DFFB9
:1049E0004449096801EB8101444A42F821004448E6
:1049F000006800F042FF3F49096801EB81013F4A2E
:104A000002EB810148603F4800683A49096801EBC0
:104A1000810102EB810188603B48006835490968E3
:104A200001EB810102EB8101C8603848006831491F
:104A3000096801EB810102EB810108612D480068E2
:104A4000401C2C4908600021032000F046FC264849
:104A5000007800F0010038B100212448FCF797FBF2
:104A60000121032000F039FC10BD10B540F22551A2
:104A70002748FDF7C1FDE0B140F225512448FDF77C
:104A8000E5FD2348FDF738FD224908700846007807
:104A90001F49091D08801F480078432802D10120C2
:104AA0001D4908601B480078542802D102201A4989
:104AB000086010BD000400406C0000206800002069
:104AC0006A0000207000002080A8120174000020FD
:104AD000780000207C0000209C0000204000002086
:104AE000880000204C0000208400002008000240C4
:104AF0008000002094000020300000208001002071
:104B000034000020A0000020A4000020A800002005
:104B1000004400408C0000209000002000B591B0BF
:104B200001210846FBF7FDFE01214FF40270FBF75F
:104B300005FF0120ADF8400000208DF8430010A9CA
:104B40004B48FBF73FFC4B4800904B48019000203E
:104B500002903C20039000200490802005904000AB
:104B60000690800007902020089000020990002005
:104B70000A9069464148FCF7DFFA01213F48FCF7FB
:104B800006FB00200B908DF8300001208DF83100DD
:104B90004FF460200D9000200E9001208DF83C0015
:104BA0000BA934484C38FBF7C2FF4FF44040FBF7E9
:104BB00029FE0523012208212E484C38FCF74FF826
:104BC00001212C484C38FBF7E9FF012129484C38DA
:104BD000FBF7D9FF27484C38FBF7F7FF00BF254804
:104BE0004C38FBF7F7FF0028F9D122484C38FBF787
:104BF000FBFF00BF1F484C38FBF7FBFF0028F9D133
:104C000001211C484C38FBF7FEFF11B000BD2DE917
:104C1000F05F82464FF0000B002409E03AF81400E0
:104C200000F019FE0546594600F0EEFB8346641C71
:104C30003C2CF3DB1249584600F03EFC1149086059
:104C40000846006800F02DFE06464FF066320E4B17
:104C500000F017FD044600220C4B00F084FD804656
:104C600000F032FE0749086008460068BDE8F09F82
:104C7000000C01404C240140300600200800024096
:104C8000000070429800002066660A400000B040B4
:104C900000B589B001210220FBF75DFE012104204F
:104CA000FBF74CFE8020ADF8200004208DF8230097
:104CB00003208DF8220008A91E48FBF783FB4FF65E
:104CC000FF70ADF808000320ADF804000020ADF837
:104CD0000A00ADF8060001A91748FCF793FC1D2057
:104CE0008DF81C0000208DF81D0001208DF81E009D
:104CF0008DF81F0007A8FBF78AFE0420ADF810000E
:104D00000020ADF812000120ADF814000020ADF82D
:104D10001600ADF8180004A90748FCF706FF0121AA
:104D20000548FCF7CBFF012204210348FCF7E1FF13
:104D300009B000BD000801400004004000B589B082
:104D400001210846FBF707FE01210420FBF7F6FDD1
:104D50001C208DF8000000208DF801008DF8020065
:104D600001208DF803006846FBF751FE0220ADF8E4
:104D7000200018208DF8230003208DF8220008A9B8
:104D80001A48FBF71FFB4FF6FF70ADF81800032021
:104D9000ADF814000020ADF81A00ADF8160005A912
:104DA0004FF08040FCF72EFC3020ADF804000120CD
:104DB000ADF806000E480088ADF80A000220ADF8F4
:104DC0000C0001A94007FCF79CFC00214FF080403B
:104DD000FDF7ADF801218807FCF770FF01220421DF
:104DE0000807FCF786FF09B000BD0000000801407D
:104DF0009C00002008B501214FF0C050FBF7ABFD2F
:104E00000120FCF72CFAFCF793F80120FBF71CFDBE
:104E100000BF6120FBF767FC0028FAD04FF4007058
:104E2000FBF715FD0120FBF718FDFCF7D8FAFCF79E
:104E3000CDFA01210846FCF76DFAFCF7C7FA49F6EE
:104E40004040FCF79DFAFCF7C1FA01210846FCF747
:104E500061FA0020FCF787FAFCF7B8FA03208DF816
:104E6000000001208DF8010000208DF802000120D3
:104E70008DF803006846FBF7CAFD08BD10B5FCF7C6
:104E800069FA2449884204D10020FCF76CFAFCF747
:104E90009DFA214800684FF46161B0FBF1F01F49B1
:104EA00008601D4800684FF46161B0FBF1F201FB3E
:104EB00012003C21B0FBF1F0194908601648006867
:104EC0004FF46161B0FBF1F201FB12003C21B0FB39
:104ED000F1F201FB12001349086010BD10B501206A
:104EE000FCF7A2FAA0B10C480068401C0A4908600F
:104EF000084600680749491C884202D1002006493B
:104F00000860FFF7BBFF0120FCF79EFAFCF75EFA92
:104F100010BD00007F510100AC000020A000002067
:104F2000A4000020A800002008B501210820FBF7FC
:104F300005FD0620ADF8000048208DF80300032091
:104F40008DF8020069460248FBF73CFA08BD0000F4
:104F5000000C014008B58020ADF8000002208DF85B
:104F6000020028208DF803006946BD48FBF72AFAA5
:104F700008BD08B58020ADF8000002208DF80200C1
:104F800010208DF803006946B548FBF71BFA08BDF1
:104F900010B5044624B18021B148FBF7C0FA03E004
:104FA0008021AF48FBF7BDFA10BD10B5044624B10F
:104FB0004021AB48FBF7B3FA03E04021A848FBF7D8
:104FC000B0FA10BD10B58021A548FBF78EFA10BDD0
:104FD000002100E0491C8142FCD3704710B501203C
:104FE000FFF7D6FF4FF4FA70FFF7F2FF0120FFF74B
:104FF000DCFF4FF4FA70FFF7EBFF0020FFF7C8FF6C
:105000004FF4FA70FFF7E4FF0020FFF7CEFF4FF4F4
:10501000FA70FFF7DDFF10BD10B50020FFF7C5FFE8
:105020004FF4FA70FFF7D4FF0020FFF7B1FF4FF401
:10503000FA70FFF7CDFF0120FFF7B7FF4FF4FA70CA
:10504000FFF7C6FF0120FFF7A3FF4FF4FA70FFF749
:10505000BFFF10BD10B50524FFF77CFF4FF4FA70B9
:10506000FFF7B6FF0120FFF7A0FF4FF4FA70FFF73C
:10507000AFFF0CE0601E84B24FF4FA70FFF7A8FF98
:105080002CB9FFF776FFFFF7C7FF002010BDFFF731
:1050900099FF0028EED1FFF76CFF0020FFF785FF96
:1050A0004FF4FA70FFF794FF0120EFE710B50020EE
:1050B000FFF76EFF4FF4FA70FFF78AFF4FF4FA70B4
:1050C000FFF786FF0120FFF770FF4FF4FA70FFF73C
:1050D0007FFF0020FFF769FF4FF4FA70FFF778FFBA
:1050E00010BD10B50120FFF753FF4FF4FA70FFF722
:1050F0006FFF0120FFF759FF4FF4FA70FFF768FFC9
:105100000020FFF752FF4FF4FA70FFF761FF10BD68
:1051100070B5044608251BE00020FFF746FF4FF45A
:10512000FA70FFF755FF04F08000FFF731FF4FF4EE
:10513000FA70FFF74DFF6006040E4FF4FA70FFF7A8
:1051400047FF0120FFF731FF4FF4FA70FFF740FFF0
:10515000281EA5F10101CDB2DED1FFF726FF4FF4E5
:10516000FA70FFF735FF70BD70B508250024FFF712
:10517000F1FE16E06006040E0020FFF716FF4FF464
:10518000FA70FFF725FF4FF4FA70FFF721FF0120B7
:10519000FFF70BFF4FF4FA70FFF71AFFFFF712FF4C
:1051A0000443281EA5F10101CDB2E3D1FFF7FDFEB6
:1051B0004FF4FA70FFF70CFFFFF7DBFE204670BDDF
:1051C00008B501210820FBF7B9FBC020ADF80000AD
:1051D00002208DF8020010208DF803006946204857
:1051E000FBF7F0F808BD70B505460C46FFF7F6FE74
:1051F000A020FFF78DFFFFF72DFF2846FFF788FF60
:10520000FFF728FF2046FFF783FFFFF723FFFFF795
:1052100003FF0520FDF72CFF70BD10B50446FFF716
:10522000DDFEA020FFF774FFFFF714FF2046FFF715
:105230006FFFFFF70FFFFFF7D1FEA120FFF768FF19
:10524000FFF708FFFFF790FF06490870FFF749FFD7
:10525000FFF7E2FE0520FDF70BFF0248007810BDC6
:10526000000C0140B000002008B501211020FBF720
:1052700065FB01212020FBF761FB4FF47F40ADF877
:10528000000010208DF8030003208DF8020069460D
:105290002748FBF797F80420ADF8000010208DF8A0
:1052A000030003208DF8020069462248FBF78AF8C4
:1052B00008BD10B50446A1B21D48FBF739F91D48D9
:1052C0000C30006840F004001A490C3108600846B0
:1052D000006820F00400086010BD7FB504460D464C
:1052E0009DB9154991E80D00C9688DE80D0003913D
:1052F000601E3DF810001149098808430F490880D5
:1053000008460088FFF7D5FF11E00B4B10330FCB99
:105310008DE80F00601E3DF810000849098808401C
:105320000649088008460088FFF7C3FF00BF7FBD1D
:105330000010014000140140B8760008B2000020BF
:1053400000B587B001210420FBF7F8FA01214804D9
:10535000FBF701FB26208DF8040000208DF80500E6
:1053600003208DF8060001208DF8070001A8FBF747
:105370004EFB0420ADF8180018208DF81B00032008
:105380008DF81A0006A91E48FBF71CF80820ADF896
:10539000180004208DF81B0006A91948FBF712F825
:1053A0004FF4165002900020ADF80C00ADF80E003E
:1053B000ADF81000ADF814000C20ADF8120002A9F1
:1053C0001048FCF79CFF012240F225510D48FDF7E3
:1053D0002EF801210B48FDF71EF807B000BD70B58F
:1053E00004460D46E1B20748FDF782F800BF0548C4
:1053F000008800F080000028F9D0204670BD000031
:105400000008014000440040F0B480EA0102D40FDB
:105410004200B2EB410F02D20246084611464A0052
:1054200042D0C30DDDB2C1F3C752AD1A202D35DA1B
:10543000C1F3160141F4000204B15242C5F1200645
:1054400002FA06F12A411044B3EBD05F23D0C4B175
:10545000012DA0EBC35009DCF0BC4FF0004202EA82
:10546000C352DBB200F5000000F0CFBA400000F1FB
:10547000807000EBC350A0F1807040EAD170490009
:1054800009E0490841EAC071A0EBC35000F50000F3
:10549000400800EBC350F0BC00F0AEBA61420122FC
:1054A00002EB4101001BF6E7F0BC704781F00041C0
:1054B000AAE780F00040A7E730B480EA010202F0DA
:1054C000004530F0004221F0004013D090B1C30DF0
:1054D000D40DC2F31601C0F31600E41A41F4000122
:1054E00040F400027D34914201D3641C00E0490085
:1054F000002C02DA30BC002070474FF4000000237B
:10550000914201D3891A034340084FEA4101F7D180
:1055100051B1914202D14FF0004105E002D24FF06B
:10552000010101E06FF0010103EBC450284430BCDD
:1055300000F062BA2DE9FE4F804681EA0300C00FF9
:105540000C46009021F0004123F00045B8EB02002A
:10555000A94105D24046214690461C460B460246CC
:1055600023F00040104347D0270DC7F30A00C3F3D0
:105570000A510290401A019040286BDAC3F31300DD
:1055800040F4801B0098924620B10023D2EB030A1E
:1055900063EB0B0B01985946C0F14002504600F0F6
:1055A0000AFA06460D4650465946019A00F012FA8C
:1055B00010EB08006141002487EA115284EAE77386
:1055C0001A4340D0009A62B3019A012A4FEA075267
:1055D00015DC001B61EB02014FF0004202EA0752AA
:1055E000CDE90042001C41F5801132462B4600F007
:1055F00049FA03B0BDE8F08F40462146F9E7001BA9
:1056000061EB0201001C41F5801300185B4120187A
:10561000A2F5001747EB030140EAD570B6196D41BA
:1056200011E06D084FEA360645EAC0754FEA0752A9
:10563000001B61EB0201001C41F5801149084FEA93
:1056400030000019514132462B4603B0BDE8F04FFF
:1056500000F009BA0098012240000023D0EB0202BA
:1056600063EBE073009821464FEAE074B8EB00006A
:1056700061EB0401E9E783F000435BE781F000415F
:1056800058E72DE9FE4F81EA030404F0004421F0BD
:10569000004100944FF0000B23F0004350EA010456
:1056A0005ED052EA03045BD0C3F30A54C1F30A5537
:1056B0002C44A4F2F3340194A0FB0254C1F313016F
:1056C00041F48011C3F3130343F4801301FB02443C
:1056D00000FB034E840A970A44EA815447EA835741
:1056E000A4FB076802958D0A05FB07854FEA932CFA
:1056F00004FB0C542705029D4FEA065847EA16376B
:10570000B5EB08056EEB070C870E920E47EA811782
:1057100042EA8312A7FB0201B6EB0B0164EB000423
:105720002B0D43EA0C335E1844EB1C50DA4651460D
:10573000E7FB0201C5F313044FEA0B3343EA1453AA
:105740004FEA0432019C43EA0603A4F10C040294DC
:10575000009CCDE900B400F095F903B0BDE8F08FEE
:1057600000200146F9E72DE9F04D81EA030404F039
:10577000004B21F0004514464FF0000A23F0004191
:1057800050EA050220D054EA01021DD0C5F30A57A1
:105790000246C5F31303C1F31300C1F30A5640F4E4
:1057A000801543F48013A7EB0608101BD64608F2B9
:1057B000FD3873EB050002D308F1010801E09218EF
:1057C0005B41B8F1000F03DA00200146BDE8F08D1F
:1057D00000204FF48011064684460EE0171B73EB41
:1057E000050705D3121B63EB050306434CEA010CC6
:1057F00049084FEA300092185B4150EA0107EDD1A9
:1058000052EA030012D082EA040083EA0501084349
:1058100005D0101BAB4106D20122002306E0002276
:105820004FF0004302E06FF0010253101AEB060044
:105830004CEB085110EB0A0041EB0B01BDE8F04DB9
:1058400000F011B9C10F80EAE0700844CA0796233E
:10585000002100F0DAB896230022114600F0D5B8F6
:105860000EB540F2334102910021CDE900110A4604
:105870000B4600F007F903B000BD20F00040C10D59
:10588000C0F3160040F400007F2901DA00207047C1
:10589000962903DCC1F19601C840704796398840CB
:1058A000704700F0004230F000400AD0C10D01F511
:1058B0006071C0F3160042EA0151C208400711436B
:1058C000704700200146704701F0004330B421F0DA
:1058D000004150EA010206D00A0DA2F56072C1F340
:1058E0001301002A02DC30BC00207047440F44EA58
:1058F000C104C100E01830BC00EBC25000F07CB81D
:10590000002801DBC0F10040002901DBC1F10041AA
:1059100081427047002801DBC0F10040002901DB13
:10592000C1F100418842704730B50B460146002066
:105930002022012409E021FA02F59D4205D303FA51
:1059400002F5491B04FA02F52844151EA2F10102D2
:10595000F1DC30BD2DE9F05F0546002092469B4604
:1059600088460646814640241BE028464146474675
:10597000224600F017F953465A46C01A914110D3F7
:1059800011461846224600F016F82D1A67EB01085A
:105990004F4622460120002100F00DF817EB0009C8
:1059A0004E41201EA4F10104DFDC484631462A4660
:1059B0004346BDE8F09F202A04DB203A00FA02F1BA
:1059C000002070479140C2F1200320FA03F31943ED
:1059D00090407047202A06DBCB17203A41FA02F0AC
:1059E00043EAE07306E041FA02F3D040C2F120023C
:1059F00091400843194670470029A8BF7047401CD2
:105A0000490008BF20F00100704710B4B0FA80FCD4
:105A100000FA0CF050EA010404BF10BC704749B111
:105A2000CCF1200421FA04F411FA0CF118BF012181
:105A300021430843A3EB0C01CB1D4FEA00614FEA61
:105A4000102042BF002010BC704700EBC350104430
:105A50000029A4BF10BC7047401C490008BF20F0BB
:105A6000010010BC704710B5141E73F1000408DA71
:105A7000401C41F1000192185B411A4301D120F012
:105A8000010010BD2DE9F04D92469B4611B1B1FACF
:105A900081F202E0B0FA80F220329046FFF78BFFED
:105AA00004460F4640EA0A0041EA0B0153465A46B3
:105AB000084313D0114653EA010019D0C8F140023F
:105AC000504600F06FF805460E465046594642468D
:105AD000FFF771FF084305D0012004E02046394656
